{
  "contractName": "Faucet",
  "abi": [
    {
      "inputs": [
        {
          "internalType": "address",
          "name": "admin",
          "type": "address"
        },
        {
          "internalType": "address",
          "name": "tokenFaucet",
          "type": "address"
        }
      ],
      "stateMutability": "nonpayable",
      "type": "constructor"
    },
    {
      "anonymous": false,
      "inputs": [
        {
          "indexed": true,
          "internalType": "bytes32",
          "name": "role",
          "type": "bytes32"
        },
        {
          "indexed": true,
          "internalType": "bytes32",
          "name": "previousAdminRole",
          "type": "bytes32"
        },
        {
          "indexed": true,
          "internalType": "bytes32",
          "name": "newAdminRole",
          "type": "bytes32"
        }
      ],
      "name": "RoleAdminChanged",
      "type": "event"
    },
    {
      "anonymous": false,
      "inputs": [
        {
          "indexed": true,
          "internalType": "bytes32",
          "name": "role",
          "type": "bytes32"
        },
        {
          "indexed": true,
          "internalType": "address",
          "name": "account",
          "type": "address"
        },
        {
          "indexed": true,
          "internalType": "address",
          "name": "sender",
          "type": "address"
        }
      ],
      "name": "RoleGranted",
      "type": "event"
    },
    {
      "anonymous": false,
      "inputs": [
        {
          "indexed": true,
          "internalType": "bytes32",
          "name": "role",
          "type": "bytes32"
        },
        {
          "indexed": true,
          "internalType": "address",
          "name": "account",
          "type": "address"
        },
        {
          "indexed": true,
          "internalType": "address",
          "name": "sender",
          "type": "address"
        }
      ],
      "name": "RoleRevoked",
      "type": "event"
    },
    {
      "stateMutability": "payable",
      "type": "fallback"
    },
    {
      "inputs": [],
      "name": "DEFAULT_ADMIN_ROLE",
      "outputs": [
        {
          "internalType": "bytes32",
          "name": "",
          "type": "bytes32"
        }
      ],
      "stateMutability": "view",
      "type": "function"
    },
    {
      "inputs": [
        {
          "internalType": "bytes32",
          "name": "role",
          "type": "bytes32"
        }
      ],
      "name": "getRoleAdmin",
      "outputs": [
        {
          "internalType": "bytes32",
          "name": "",
          "type": "bytes32"
        }
      ],
      "stateMutability": "view",
      "type": "function"
    },
    {
      "inputs": [
        {
          "internalType": "bytes32",
          "name": "role",
          "type": "bytes32"
        },
        {
          "internalType": "uint256",
          "name": "index",
          "type": "uint256"
        }
      ],
      "name": "getRoleMember",
      "outputs": [
        {
          "internalType": "address",
          "name": "",
          "type": "address"
        }
      ],
      "stateMutability": "view",
      "type": "function"
    },
    {
      "inputs": [
        {
          "internalType": "bytes32",
          "name": "role",
          "type": "bytes32"
        }
      ],
      "name": "getRoleMemberCount",
      "outputs": [
        {
          "internalType": "uint256",
          "name": "",
          "type": "uint256"
        }
      ],
      "stateMutability": "view",
      "type": "function"
    },
    {
      "inputs": [
        {
          "internalType": "bytes32",
          "name": "role",
          "type": "bytes32"
        },
        {
          "internalType": "address",
          "name": "account",
          "type": "address"
        }
      ],
      "name": "grantRole",
      "outputs": [],
      "stateMutability": "nonpayable",
      "type": "function"
    },
    {
      "inputs": [
        {
          "internalType": "bytes32",
          "name": "role",
          "type": "bytes32"
        },
        {
          "internalType": "address",
          "name": "account",
          "type": "address"
        }
      ],
      "name": "hasRole",
      "outputs": [
        {
          "internalType": "bool",
          "name": "",
          "type": "bool"
        }
      ],
      "stateMutability": "view",
      "type": "function"
    },
    {
      "inputs": [
        {
          "internalType": "bytes32",
          "name": "role",
          "type": "bytes32"
        },
        {
          "internalType": "address",
          "name": "account",
          "type": "address"
        }
      ],
      "name": "renounceRole",
      "outputs": [],
      "stateMutability": "nonpayable",
      "type": "function"
    },
    {
      "inputs": [
        {
          "internalType": "bytes32",
          "name": "role",
          "type": "bytes32"
        },
        {
          "internalType": "address",
          "name": "account",
          "type": "address"
        }
      ],
      "name": "revokeRole",
      "outputs": [],
      "stateMutability": "nonpayable",
      "type": "function"
    },
    {
      "inputs": [
        {
          "internalType": "bytes4",
          "name": "interfaceId",
          "type": "bytes4"
        }
      ],
      "name": "supportsInterface",
      "outputs": [
        {
          "internalType": "bool",
          "name": "",
          "type": "bool"
        }
      ],
      "stateMutability": "view",
      "type": "function"
    },
    {
      "stateMutability": "payable",
      "type": "receive"
    },
    {
      "inputs": [
        {
          "internalType": "address",
          "name": "newAdmin",
          "type": "address"
        }
      ],
      "name": "setAdmin",
      "outputs": [],
      "stateMutability": "nonpayable",
      "type": "function"
    },
    {
      "inputs": [
        {
          "internalType": "address",
          "name": "newAdmin",
          "type": "address"
        }
      ],
      "name": "unsetAdmin",
      "outputs": [],
      "stateMutability": "nonpayable",
      "type": "function"
    },
    {
      "inputs": [
        {
          "internalType": "address",
          "name": "token",
          "type": "address"
        }
      ],
      "name": "unsetOwner",
      "outputs": [],
      "stateMutability": "nonpayable",
      "type": "function"
    },
    {
      "inputs": [
        {
          "internalType": "address",
          "name": "token",
          "type": "address"
        },
        {
          "internalType": "uint256",
          "name": "amountForClaimers",
          "type": "uint256"
        },
        {
          "internalType": "uint256",
          "name": "_secs",
          "type": "uint256"
        }
      ],
      "name": "makeMeOwner",
      "outputs": [],
      "stateMutability": "payable",
      "type": "function"
    },
    {
      "inputs": [
        {
          "internalType": "address",
          "name": "token",
          "type": "address"
        }
      ],
      "name": "claim",
      "outputs": [],
      "stateMutability": "nonpayable",
      "type": "function"
    },
    {
      "inputs": [
        {
          "internalType": "address",
          "name": "token",
          "type": "address"
        },
        {
          "internalType": "uint256",
          "name": "_amount",
          "type": "uint256"
        },
        {
          "internalType": "uint256",
          "name": "_secs",
          "type": "uint256"
        }
      ],
      "name": "setUpToken",
      "outputs": [],
      "stateMutability": "nonpayable",
      "type": "function"
    },
    {
      "inputs": [
        {
          "internalType": "address",
          "name": "token",
          "type": "address"
        }
      ],
      "name": "vaciarFaucet",
      "outputs": [],
      "stateMutability": "nonpayable",
      "type": "function"
    },
    {
      "inputs": [],
      "name": "getEther",
      "outputs": [],
      "stateMutability": "nonpayable",
      "type": "function"
    },
    {
      "inputs": [
        {
          "internalType": "address",
          "name": "user",
          "type": "address"
        },
        {
          "internalType": "address",
          "name": "token",
          "type": "address"
        }
      ],
      "name": "getExpiryOf",
      "outputs": [
        {
          "internalType": "uint256",
          "name": "",
          "type": "uint256"
        }
      ],
      "stateMutability": "view",
      "type": "function"
    },
    {
      "inputs": [
        {
          "internalType": "address",
          "name": "token",
          "type": "address"
        }
      ],
      "name": "getOwnerOf",
      "outputs": [
        {
          "internalType": "address",
          "name": "",
          "type": "address"
        }
      ],
      "stateMutability": "view",
      "type": "function"
    },
    {
      "inputs": [
        {
          "internalType": "address",
          "name": "token",
          "type": "address"
        }
      ],
      "name": "getAmountOf",
      "outputs": [
        {
          "internalType": "uint256",
          "name": "",
          "type": "uint256"
        }
      ],
      "stateMutability": "view",
      "type": "function"
    },
    {
      "inputs": [
        {
          "internalType": "address",
          "name": "token",
          "type": "address"
        }
      ],
      "name": "getSecsOf",
      "outputs": [
        {
          "internalType": "uint256",
          "name": "",
          "type": "uint256"
        }
      ],
      "stateMutability": "view",
      "type": "function"
    },
    {
      "inputs": [],
      "name": "getEthBalance",
      "outputs": [
        {
          "internalType": "uint256",
          "name": "",
          "type": "uint256"
        }
      ],
      "stateMutability": "view",
      "type": "function"
    }
  ],
  "bytecode": "0x60806040523480156200001157600080fd5b50604051620019c3380380620019c383398101604081905262000034916200027f565b6200004a600083640100000000620000a0810204565b600160a060020a0390811660009081526003602090815260408083208054600160a060020a0319169590941694909417909255600482528281206102589055600590915220670de0b6b3a76400009055620002b6565b620000ba828264010000000062000b35620000e782021704565b6000828152600160205260409020620000e2908264010000000062000b436200010082021704565b505050565b620000fc828264010000000062000129810204565b5050565b60006200012083600160a060020a038416640100000000620001c5810204565b90505b92915050565b6200013e82826401000000006200021d810204565b620000fc57600082815260208181526040808320600160a060020a03851684529091529020805460ff191660011790556200018164010000000062000246810204565b600160a060020a031681600160a060020a0316837f2f8788117e7eff1d82e926ec794901d17c78024a50270940304540a733656f0d60405160405180910390a45050565b6000620001dc83836401000000006200024a810204565b620002145750815460018181018455600084815260208082209093018490558454848252828601909352604090209190915562000123565b50600062000123565b600091825260208281526040808420600160a060020a0393909316845291905290205460ff1690565b3390565b60009081526001919091016020526040902054151590565b8051600160a060020a03811681146200027a57600080fd5b919050565b6000806040838503121562000292578182fd5b6200029d8362000262565b9150620002ad6020840162000262565b90509250929050565b6116fd80620002c66000396000f3fe60806040526004361061013d5760003560e060020a9004806391d14854116100af578063ca15c87311610073578063ca15c87314610353578063d547741f14610373578063de0ff7c514610393578063e8b2400c146103a8578063ee3c3640146103c8578063f7662f8e146103e857610144565b806391d14854146102be57806398710fac146102de578063a217fddf146102fe578063a6312ab914610313578063bd4972c31461033357610144565b8063396c5e5011610101578063396c5e50146102095780634d253b5014610229578063704b6c021461024957806370ed0ada1461026957806379c1e1191461027e5780639010d07c1461029157610144565b806301ffc9a7146101465780631e83409a1461017c578063248a9ca31461019c5780632f2ff15d146101c957806336568abe146101e957610144565b3661014457005b005b34801561015257600080fd5b5061016661016136600461133f565b610408565b604051610173919061142d565b60405180910390f35b34801561018857600080fd5b50610144610197366004611246565b61044e565b3480156101a857600080fd5b506101bc6101b73660046112e4565b6105a0565b6040516101739190611438565b3480156101d557600080fd5b506101446101e43660046112fc565b6105b5565b3480156101f557600080fd5b506101446102043660046112fc565b6105dc565b34801561021557600080fd5b506101bc610224366004611260565b6105fe565b34801561023557600080fd5b50610144610244366004611246565b610670565b34801561025557600080fd5b50610144610264366004611246565b6106b3565b34801561027557600080fd5b506101bc6106ea565b61014461028c366004611292565b6106ef565b34801561029d57600080fd5b506102b16102ac36600461131e565b61078b565b6040516101739190611400565b3480156102ca57600080fd5b506101666102d93660046112fc565b6107aa565b3480156102ea57600080fd5b506101bc6102f9366004611246565b6107d3565b34801561030a57600080fd5b506101bc6107ee565b34801561031f57600080fd5b5061014461032e366004611246565b6107f3565b34801561033f57600080fd5b506102b161034e366004611246565b610887565b34801561035f57600080fd5b506101bc61036e3660046112e4565b6108a5565b34801561037f57600080fd5b5061014461038e3660046112fc565b6108bc565b34801561039f57600080fd5b506101446108c6565b3480156103b457600080fd5b506101bc6103c3366004611246565b610942565b3480156103d457600080fd5b506101446103e3366004611246565b61095d565b3480156103f457600080fd5b50610144610403366004611292565b610ac2565b6000600160e060020a031982167f5a05180f000000000000000000000000000000000000000000000000000000001480610446575061044682610b58565b90505b919050565b600160a060020a03811660009081526002602052604081204291610470610b96565b600160a060020a0316600160a060020a03168152602001908152602001600020541061049b57600080fd5b80600160a060020a031663a9059cbb6104b2610b96565b600160a060020a0384166000908152600560205260409081902054905160e060020a63ffffffff85160281526104ec929190600401611414565b602060405180830381600087803b15801561050657600080fd5b505af115801561051a573d6000803e3d6000fd5b505050506040513d601f19601f8201168201806040525081019061053e91906112c4565b50600160a060020a0381166000908152600460205260409020546105629042611619565b600160a060020a038216600090815260026020526040812090610583610b96565b600160a060020a0316815260208101919091526040016000205550565b60009081526020819052604090206001015490565b6105bf8282610b9a565b60008281526001602052604090206105d79082610b43565b505050565b6105e68282610bbe565b60008281526001602052604090206105d79082610c03565b600160a060020a03808216600090815260026020908152604080832093861683529290529081205442908110610635576000610666565b600160a060020a03808416600090815260026020908152604080832093881683529290522054610666908290611650565b9150505b92915050565b61067d60006102d9610b96565b6106a55760405160e560020a62461bcd02815260040161069c9061154e565b60405180910390fd5b6106b06000826108bc565b50565b6106c060006102d9610b96565b6106df5760405160e560020a62461bcd02815260040161069c9061154e565b6106b0600082610c18565b303190565b600160a060020a038084166000908152600360205260409020548491161561072c5760405160e560020a62461bcd02815260040161069c90611517565b610734610b96565b600160a060020a039485166000908152600360209081526040808320805473ffffffffffffffffffffffffffffffffffffffff19169490981693909317909655600586528181209490945560049094525091902055565b60008281526001602052604081206107a39083610c22565b9392505050565b600091825260208281526040808420600160a060020a0393909316845291905290205460ff1690565b600160a060020a031660009081526004602052604090205490565b600081565b61080060006102d9610b96565b806108345750600160a060020a0380821660009081526003602052604090205416610829610b96565b600160a060020a0316145b6108535760405160e560020a62461bcd02815260040161069c906114e0565b600160a060020a03166000908152600360205260409020805473ffffffffffffffffffffffffffffffffffffffff19169055565b600160a060020a039081166000908152600360205260409020541690565b600081815260016020526040812061044690610c2e565b6105e68282610c39565b6108d360006102d9610b96565b6108f25760405160e560020a62461bcd02815260040161069c9061154e565b6108fa610b96565b604051600160a060020a039190911690303180156108fc02916000818181858888f193505050506109405760405160e560020a62461bcd02815260040161069c90611585565b565b600160a060020a031660009081526005602052604090205490565b80610966610b96565b600160a060020a0382811660009081526003602052604090205481169116146109a45760405160e560020a62461bcd02815260040161069c906114a9565b81600160a060020a031663a9059cbb6109bb610b96565b6040517f70a08231000000000000000000000000000000000000000000000000000000008152600160a060020a038616906370a0823190610a00903090600401611400565b60206040518083038186803b158015610a1857600080fd5b505afa158015610a2c573d6000803e3d6000fd5b505050506040513d601f19601f82011682018060405250810190610a509190611367565b6040518363ffffffff1660e060020a028152600401610a70929190611414565b602060405180830381600087803b158015610a8a57600080fd5b505af1158015610a9e573d6000803e3d6000fd5b505050506040513d601f19601f820116820180604052508101906105d791906112c4565b82610acb610b96565b600160a060020a038281166000908152600360205260409020548116911614610b095760405160e560020a62461bcd02815260040161069c906114a9565b50600160a060020a03909216600090815260046020908152604080832094909455600590529190912055565b610b3f8282610c58565b5050565b60006107a383600160a060020a038416610cdd565b6000600160e060020a031982167f7965db0b000000000000000000000000000000000000000000000000000000001480610446575061044682610d27565b3390565b610ba3826105a0565b610bb481610baf610b96565b610d59565b6105d78383610c58565b610bc6610b96565b600160a060020a031681600160a060020a031614610bf95760405160e560020a62461bcd02815260040161069c906115bc565b610b3f8282610dc0565b60006107a383600160a060020a038416610e43565b6105bf8282610b35565b60006107a38383610f69565b600061044682610fa4565b610c42826105a0565b610c4e81610baf610b96565b6105d78383610dc0565b610c6282826107aa565b610b3f57600082815260208181526040808320600160a060020a03851684529091529020805460ff19166001179055610c99610b96565b600160a060020a031681600160a060020a0316837f2f8788117e7eff1d82e926ec794901d17c78024a50270940304540a733656f0d60405160405180910390a45050565b6000610ce98383610fa8565b610d1f5750815460018181018455600084815260208082209093018490558454848252828601909352604090209190915561066a565b50600061066a565b600160e060020a031981167f01ffc9a70000000000000000000000000000000000000000000000000000000014919050565b610d6382826107aa565b610b3f57610d7b81600160a060020a03166014610fc0565b610d86836020610fc0565b604051602001610d9792919061137f565b60408051601f198184030181529082905260e560020a62461bcd02825261069c91600401611441565b610dca82826107aa565b15610b3f57600082815260208181526040808320600160a060020a03851684529091529020805460ff19169055610dff610b96565b600160a060020a031681600160a060020a0316837ff6391f5c32d9c69d2a47ea670b442974b53935d1edc7fd64eb21e047a839171b60405160405180910390a45050565b60008181526001830160205260408120548015610f5f576000610e67600183611650565b8554909150600090610e7b90600190611650565b9050818114610f02576000866000018281548110610eac5760e060020a634e487b7102600052603260045260246000fd5b9060005260206000200154905080876000018481548110610ee05760e060020a634e487b7102600052603260045260246000fd5b6000918252602080832090910192909255918252600188019052604090208390555b8554869080610f245760e060020a634e487b7102600052603160045260246000fd5b60019003818190600052602060002001600090559055856001016000868152602001908152602001600020600090556001935050505061066a565b600091505061066a565b6000826000018281548110610f915760e060020a634e487b7102600052603260045260246000fd5b9060005260206000200154905092915050565b5490565b60009081526001919091016020526040902054151590565b60606000610fcf836002611631565b610fda906002611619565b67ffffffffffffffff8111156110035760e060020a634e487b7102600052604160045260246000fd5b6040519080825280601f01601f19166020018201604052801561102d576020820181803683370190505b5090507f3000000000000000000000000000000000000000000000000000000000000000816000815181106110755760e060020a634e487b7102600052603260045260246000fd5b60200101907effffffffffffffffffffffffffffffffffffffffffffffffffffffffffffff1916908160001a9053507f7800000000000000000000000000000000000000000000000000000000000000816001815181106110e95760e060020a634e487b7102600052603260045260246000fd5b60200101907effffffffffffffffffffffffffffffffffffffffffffffffffffffffffffff1916908160001a9053506000611125846002611631565b611130906001611619565b90505b600181111561120d577f303132333435363738396162636465660000000000000000000000000000000085600f16601081106111825760e060020a634e487b7102600052603260045260246000fd5b1a7f0100000000000000000000000000000000000000000000000000000000000000028282815181106111c85760e060020a634e487b7102600052603260045260246000fd5b60200101907effffffffffffffffffffffffffffffffffffffffffffffffffffffffffffff1916908160001a90535060109094049361120681611697565b9050611133565b5083156107a35760405160e560020a62461bcd02815260040161069c90611474565b8035600160a060020a038116811461044957600080fd5b600060208284031215611257578081fd5b6107a38261122f565b60008060408385031215611272578081fd5b61127b8361122f565b91506112896020840161122f565b90509250929050565b6000806000606084860312156112a6578081fd5b6112af8461122f565b95602085013595506040909401359392505050565b6000602082840312156112d5578081fd5b815180151581146107a3578182fd5b6000602082840312156112f5578081fd5b5035919050565b6000806040838503121561130e578182fd5b823591506112896020840161122f565b60008060408385031215611330578182fd5b50508035926020909101359150565b600060208284031215611350578081fd5b8135600160e060020a0319811681146107a3578182fd5b600060208284031215611378578081fd5b5051919050565b60007f416363657373436f6e74726f6c3a206163636f756e7420000000000000000000825283516113b7816017850160208801611667565b7f206973206d697373696e6720726f6c652000000000000000000000000000000060179184019182015283516113f4816028840160208801611667565b01602801949350505050565b600160a060020a0391909116815260200190565b600160a060020a03929092168252602082015260400190565b901515815260200190565b90815260200190565b6000602082528251806020840152611460816040850160208701611667565b601f01601f19169190910160400192915050565b6020808252818101527f537472696e67733a20686578206c656e67746820696e73756666696369656e74604082015260600190565b60208082526012908201527f6f6e6c794f776e65722066756e6374696f6e0000000000000000000000000000604082015260600190565b60208082526013908201527f4e6f742061646d696e206e6f72206f776e657200000000000000000000000000604082015260600190565b60208082526011908201527f6e6f204f776e65722066756e6374696f6e000000000000000000000000000000604082015260600190565b60208082526012908201527f6f6e6c7941646d696e2066756e6374696f6e0000000000000000000000000000604082015260600190565b60208082526014908201527f4661696c656420746f2073656e64206574686572000000000000000000000000604082015260600190565b6020808252602f908201527f416363657373436f6e74726f6c3a2063616e206f6e6c792072656e6f756e636560408201527f20726f6c657320666f722073656c660000000000000000000000000000000000606082015260800190565b6000821982111561162c5761162c6116ae565b500190565b600081600019048311821515161561164b5761164b6116ae565b500290565b600082821015611662576116626116ae565b500390565b60005b8381101561168257818101518382015260200161166a565b83811115611691576000848401525b50505050565b6000816116a6576116a66116ae565b506000190190565b60e060020a634e487b7102600052601160045260246000fdfea26469706673582212204e1f95d030d1630e536ed9a09c1926ed8a7f56b9d620106e6e6d976fcfa1f50264736f6c63430008000033",
  "immutableReferences": {},
  "source": "// SPDX-License-Identifier: MIT\npragma solidity >=0.4.22 <0.9.0;\n\nimport \"@openzeppelin/contracts/token/ERC20/IERC20.sol\";\nimport \"@openzeppelin/contracts/access/AccessControlEnumerable.sol\";\n\ncontract Faucet is AccessControlEnumerable{\n  \n  mapping(address=>mapping(address=>uint)) expiryOf;\n  mapping(address=>address) owner;\n  mapping(address=>uint) secs;\n  mapping(address=>uint) amounts;\n\n  constructor(address admin, address tokenFaucet) {\n    _setupRole(DEFAULT_ADMIN_ROLE, admin);\n    owner[tokenFaucet] = admin;\n    secs[tokenFaucet] = 600;\n    amounts[tokenFaucet] = 1 ether; \n  }\n\n  modifier onlyAdmin(){\n    require(hasRole(DEFAULT_ADMIN_ROLE, _msgSender()), \"onlyAdmin function\");\n    _;\n  }\n  modifier onlyOwner(address token){\n    require(owner[token] == _msgSender(), \"onlyOwner function\");\n    _;\n  }\n  modifier noOwner(address token){\n    require(owner[token] == address(0), \"no Owner function\");\n    _;\n  }\n  \n  function setAdmin(address newAdmin) external onlyAdmin{\n    _setupRole(DEFAULT_ADMIN_ROLE, newAdmin);    //me da out of gas\n  }\n  function unsetAdmin(address newAdmin) external onlyAdmin{\n    revokeRole(DEFAULT_ADMIN_ROLE, newAdmin);\n  }\n  function unsetOwner(address token) external {\n    require(hasRole(DEFAULT_ADMIN_ROLE, _msgSender()) || _msgSender() == owner[token], \"Not admin nor owner\");\n    owner[token] = address(0);\n  }\n\n\n  function makeMeOwner(address token, uint amountForClaimers, uint _secs) external payable noOwner(token){\n    owner[token] = _msgSender();\n    amounts[token] = amountForClaimers;\n    secs[token] = _secs;\n  }\n\n  function claim(address token) external{\n    require(expiryOf[token][_msgSender()] < block.timestamp);\n\n    IERC20(token).transfer(_msgSender(), amounts[token]);\n\n    expiryOf[token][_msgSender()] = block.timestamp + secs[token];\n  }\n\n  function setUpToken(address token, uint _amount, uint _secs) external onlyOwner(token){\n    secs[token] = _secs;\n    amounts[token] = _amount;\n  }\n\n  function vaciarFaucet(address token) external onlyOwner(token){\n    //Require time block retiro\n    IERC20(token).transfer(_msgSender(), IERC20(token).balanceOf(address(this)));\n  }\n\n  receive() external payable{}\n  fallback() external payable{}\n  function getEther() external onlyAdmin{\n    require(payable(_msgSender()).send(address(this).balance),  \"Failed to send ether\");\n  }\n  \n\n  function getExpiryOf(address user, address token) external view returns(uint){\n    uint nowTime = block.timestamp;\n    return  expiryOf[token][user] > nowTime ? expiryOf[token][user] - nowTime : 0 ;\n  }\n\n  function getOwnerOf(address token) external view returns(address){\n    return owner[token];\n  }\n  function getAmountOf(address token) external view returns(uint){\n    return amounts[token];\n  }\n  function getSecsOf(address token) external view returns(uint){\n    return secs[token];\n  }\n  function getEthBalance() external view returns(uint){\n    return address(this).balance;\n  }\n}\n",
  "sourcePath": "/home/guillermo/dapps/patoProyect/blockEnd/contracts/Faucet.sol",
  "compiler": {
    "name": "solc",
    "version": "0.8.0+commit.c7dfd78e.Emscripten.clang"
  },
  "schemaVersion": "3.4.3",
  "updatedAt": "2021-11-05T21:12:40.145Z",
  "devdoc": {
    "kind": "dev",
    "methods": {
      "getRoleAdmin(bytes32)": {
        "details": "Returns the admin role that controls `role`. See {grantRole} and {revokeRole}. To change a role's admin, use {_setRoleAdmin}."
      },
      "getRoleMember(bytes32,uint256)": {
        "details": "Returns one of the accounts that have `role`. `index` must be a value between 0 and {getRoleMemberCount}, non-inclusive. Role bearers are not sorted in any particular way, and their ordering may change at any point. WARNING: When using {getRoleMember} and {getRoleMemberCount}, make sure you perform all queries on the same block. See the following https://forum.openzeppelin.com/t/iterating-over-elements-on-enumerableset-in-openzeppelin-contracts/2296[forum post] for more information."
      },
      "getRoleMemberCount(bytes32)": {
        "details": "Returns the number of accounts that have `role`. Can be used together with {getRoleMember} to enumerate all bearers of a role."
      },
      "grantRole(bytes32,address)": {
        "details": "Overload {grantRole} to track enumerable memberships"
      },
      "hasRole(bytes32,address)": {
        "details": "Returns `true` if `account` has been granted `role`."
      },
      "renounceRole(bytes32,address)": {
        "details": "Overload {renounceRole} to track enumerable memberships"
      },
      "revokeRole(bytes32,address)": {
        "details": "Overload {revokeRole} to track enumerable memberships"
      },
      "supportsInterface(bytes4)": {
        "details": "See {IERC165-supportsInterface}."
      }
    },
    "version": 1
  },
  "userdoc": {
    "kind": "user",
    "methods": {},
    "version": 1
  }
}