{
  "contractName": "Faucet",
  "abi": [
    {
      "inputs": [
        {
          "internalType": "address",
          "name": "admin",
          "type": "address"
        },
        {
          "internalType": "address",
          "name": "tokenFaucet",
          "type": "address"
        }
      ],
      "stateMutability": "nonpayable",
      "type": "constructor"
    },
    {
      "anonymous": false,
      "inputs": [
        {
          "indexed": true,
          "internalType": "bytes32",
          "name": "role",
          "type": "bytes32"
        },
        {
          "indexed": true,
          "internalType": "bytes32",
          "name": "previousAdminRole",
          "type": "bytes32"
        },
        {
          "indexed": true,
          "internalType": "bytes32",
          "name": "newAdminRole",
          "type": "bytes32"
        }
      ],
      "name": "RoleAdminChanged",
      "type": "event"
    },
    {
      "anonymous": false,
      "inputs": [
        {
          "indexed": true,
          "internalType": "bytes32",
          "name": "role",
          "type": "bytes32"
        },
        {
          "indexed": true,
          "internalType": "address",
          "name": "account",
          "type": "address"
        },
        {
          "indexed": true,
          "internalType": "address",
          "name": "sender",
          "type": "address"
        }
      ],
      "name": "RoleGranted",
      "type": "event"
    },
    {
      "anonymous": false,
      "inputs": [
        {
          "indexed": true,
          "internalType": "bytes32",
          "name": "role",
          "type": "bytes32"
        },
        {
          "indexed": true,
          "internalType": "address",
          "name": "account",
          "type": "address"
        },
        {
          "indexed": true,
          "internalType": "address",
          "name": "sender",
          "type": "address"
        }
      ],
      "name": "RoleRevoked",
      "type": "event"
    },
    {
      "stateMutability": "payable",
      "type": "fallback"
    },
    {
      "inputs": [],
      "name": "DEFAULT_ADMIN_ROLE",
      "outputs": [
        {
          "internalType": "bytes32",
          "name": "",
          "type": "bytes32"
        }
      ],
      "stateMutability": "view",
      "type": "function"
    },
    {
      "inputs": [
        {
          "internalType": "bytes32",
          "name": "role",
          "type": "bytes32"
        }
      ],
      "name": "getRoleAdmin",
      "outputs": [
        {
          "internalType": "bytes32",
          "name": "",
          "type": "bytes32"
        }
      ],
      "stateMutability": "view",
      "type": "function"
    },
    {
      "inputs": [
        {
          "internalType": "bytes32",
          "name": "role",
          "type": "bytes32"
        },
        {
          "internalType": "uint256",
          "name": "index",
          "type": "uint256"
        }
      ],
      "name": "getRoleMember",
      "outputs": [
        {
          "internalType": "address",
          "name": "",
          "type": "address"
        }
      ],
      "stateMutability": "view",
      "type": "function"
    },
    {
      "inputs": [
        {
          "internalType": "bytes32",
          "name": "role",
          "type": "bytes32"
        }
      ],
      "name": "getRoleMemberCount",
      "outputs": [
        {
          "internalType": "uint256",
          "name": "",
          "type": "uint256"
        }
      ],
      "stateMutability": "view",
      "type": "function"
    },
    {
      "inputs": [
        {
          "internalType": "bytes32",
          "name": "role",
          "type": "bytes32"
        },
        {
          "internalType": "address",
          "name": "account",
          "type": "address"
        }
      ],
      "name": "grantRole",
      "outputs": [],
      "stateMutability": "nonpayable",
      "type": "function"
    },
    {
      "inputs": [
        {
          "internalType": "bytes32",
          "name": "role",
          "type": "bytes32"
        },
        {
          "internalType": "address",
          "name": "account",
          "type": "address"
        }
      ],
      "name": "hasRole",
      "outputs": [
        {
          "internalType": "bool",
          "name": "",
          "type": "bool"
        }
      ],
      "stateMutability": "view",
      "type": "function"
    },
    {
      "inputs": [
        {
          "internalType": "bytes32",
          "name": "role",
          "type": "bytes32"
        },
        {
          "internalType": "address",
          "name": "account",
          "type": "address"
        }
      ],
      "name": "renounceRole",
      "outputs": [],
      "stateMutability": "nonpayable",
      "type": "function"
    },
    {
      "inputs": [
        {
          "internalType": "bytes32",
          "name": "role",
          "type": "bytes32"
        },
        {
          "internalType": "address",
          "name": "account",
          "type": "address"
        }
      ],
      "name": "revokeRole",
      "outputs": [],
      "stateMutability": "nonpayable",
      "type": "function"
    },
    {
      "inputs": [],
      "name": "setActiveOn",
      "outputs": [
        {
          "internalType": "bool",
          "name": "",
          "type": "bool"
        }
      ],
      "stateMutability": "view",
      "type": "function"
    },
    {
      "inputs": [
        {
          "internalType": "bytes4",
          "name": "interfaceId",
          "type": "bytes4"
        }
      ],
      "name": "supportsInterface",
      "outputs": [
        {
          "internalType": "bool",
          "name": "",
          "type": "bool"
        }
      ],
      "stateMutability": "view",
      "type": "function"
    },
    {
      "stateMutability": "payable",
      "type": "receive"
    },
    {
      "inputs": [
        {
          "internalType": "address",
          "name": "newAdmin",
          "type": "address"
        }
      ],
      "name": "setAdmin",
      "outputs": [],
      "stateMutability": "nonpayable",
      "type": "function"
    },
    {
      "inputs": [
        {
          "internalType": "address",
          "name": "newAdmin",
          "type": "address"
        }
      ],
      "name": "unsetAdmin",
      "outputs": [],
      "stateMutability": "nonpayable",
      "type": "function"
    },
    {
      "inputs": [
        {
          "internalType": "address",
          "name": "token",
          "type": "address"
        }
      ],
      "name": "unsetOwner",
      "outputs": [],
      "stateMutability": "nonpayable",
      "type": "function"
    },
    {
      "inputs": [
        {
          "internalType": "address",
          "name": "token",
          "type": "address"
        },
        {
          "internalType": "uint256",
          "name": "amountForClaimers",
          "type": "uint256"
        },
        {
          "internalType": "uint256",
          "name": "_secs",
          "type": "uint256"
        }
      ],
      "name": "makeMeOwner",
      "outputs": [],
      "stateMutability": "payable",
      "type": "function"
    },
    {
      "inputs": [
        {
          "internalType": "address",
          "name": "token",
          "type": "address"
        }
      ],
      "name": "claim",
      "outputs": [],
      "stateMutability": "nonpayable",
      "type": "function"
    },
    {
      "inputs": [
        {
          "internalType": "address",
          "name": "token",
          "type": "address"
        },
        {
          "internalType": "uint256",
          "name": "_amount",
          "type": "uint256"
        },
        {
          "internalType": "uint256",
          "name": "_secs",
          "type": "uint256"
        }
      ],
      "name": "setUpToken",
      "outputs": [],
      "stateMutability": "nonpayable",
      "type": "function"
    },
    {
      "inputs": [
        {
          "internalType": "address",
          "name": "token",
          "type": "address"
        }
      ],
      "name": "vaciarFaucet",
      "outputs": [],
      "stateMutability": "nonpayable",
      "type": "function"
    },
    {
      "inputs": [],
      "name": "getEther",
      "outputs": [],
      "stateMutability": "nonpayable",
      "type": "function"
    },
    {
      "inputs": [
        {
          "internalType": "address",
          "name": "user",
          "type": "address"
        },
        {
          "internalType": "address",
          "name": "token",
          "type": "address"
        }
      ],
      "name": "getExpiryOf",
      "outputs": [
        {
          "internalType": "uint256",
          "name": "",
          "type": "uint256"
        }
      ],
      "stateMutability": "view",
      "type": "function"
    },
    {
      "inputs": [
        {
          "internalType": "address",
          "name": "token",
          "type": "address"
        }
      ],
      "name": "getOwnerOf",
      "outputs": [
        {
          "internalType": "address",
          "name": "",
          "type": "address"
        }
      ],
      "stateMutability": "view",
      "type": "function"
    },
    {
      "inputs": [
        {
          "internalType": "address",
          "name": "token",
          "type": "address"
        }
      ],
      "name": "getAmountOf",
      "outputs": [
        {
          "internalType": "uint256",
          "name": "",
          "type": "uint256"
        }
      ],
      "stateMutability": "view",
      "type": "function"
    },
    {
      "inputs": [
        {
          "internalType": "address",
          "name": "token",
          "type": "address"
        }
      ],
      "name": "getSecsOf",
      "outputs": [
        {
          "internalType": "uint256",
          "name": "",
          "type": "uint256"
        }
      ],
      "stateMutability": "view",
      "type": "function"
    },
    {
      "inputs": [],
      "name": "getEthBalance",
      "outputs": [
        {
          "internalType": "uint256",
          "name": "",
          "type": "uint256"
        }
      ],
      "stateMutability": "view",
      "type": "function"
    },
    {
      "inputs": [
        {
          "internalType": "bool",
          "name": "_activeBool",
          "type": "bool"
        }
      ],
      "name": "ActivateFaucet",
      "outputs": [],
      "stateMutability": "nonpayable",
      "type": "function"
    }
  ],
  "bytecode": "0x60806040526006805460ff191690553480156200001b57600080fd5b5060405162001a9b38038062001a9b8339810160408190526200003e916200028a565b62000054600083640100000000620000ab810204565b600160a060020a0390811660009081526003602090815260408083208054600160a060020a0319169590941694909417909255600482528281206201517f9055600590915220670de0b6b3a76400009055620002c1565b620000c5828264010000000062000bdc620000f282021704565b6000828152600160205260409020620000ed908264010000000062000bea6200010b82021704565b505050565b62000107828264010000000062000134810204565b5050565b60006200012b83600160a060020a038416640100000000620001d0810204565b90505b92915050565b62000149828264010000000062000228810204565b6200010757600082815260208181526040808320600160a060020a03851684529091529020805460ff191660011790556200018c64010000000062000251810204565b600160a060020a031681600160a060020a0316837f2f8788117e7eff1d82e926ec794901d17c78024a50270940304540a733656f0d60405160405180910390a45050565b6000620001e7838364010000000062000255810204565b6200021f575081546001818101845560008481526020808220909301849055845484825282860190935260409020919091556200012e565b5060006200012e565b600091825260208281526040808420600160a060020a0393909316845291905290205460ff1690565b3390565b60009081526001919091016020526040902054151590565b8051600160a060020a03811681146200028557600080fd5b919050565b600080604083850312156200029d578182fd5b620002a8836200026d565b9150620002b8602084016200026d565b90509250929050565b6117ca80620002d16000396000f3fe6080604052600436106101535760003560e060020a9004806391d14854116100ba578063d547741f11610073578063d547741f1461039e578063d7704eeb146103be578063de0ff7c5146103de578063e8b2400c146103f3578063ee3c364014610413578063f7662f8e146104335761015a565b806391d14854146102e957806398710fac14610309578063a217fddf14610329578063a6312ab91461033e578063bd4972c31461035e578063ca15c8731461037e5761015a565b806349ce15f21161010c57806349ce15f21461023f5780634d253b5014610254578063704b6c021461027457806370ed0ada1461029457806379c1e119146102a95780639010d07c146102bc5761015a565b806301ffc9a71461015c5780631e83409a14610192578063248a9ca3146101b25780632f2ff15d146101df57806336568abe146101ff578063396c5e501461021f5761015a565b3661015a57005b005b34801561016857600080fd5b5061017c6101773660046113fe565b610453565b60405161018991906114ec565b60405180910390f35b34801561019e57600080fd5b5061015a6101ad3660046112ed565b610499565b3480156101be57600080fd5b506101d26101cd3660046113a3565b6105ff565b60405161018991906114f7565b3480156101eb57600080fd5b5061015a6101fa3660046113bb565b610614565b34801561020b57600080fd5b5061015a61021a3660046113bb565b61063b565b34801561022b57600080fd5b506101d261023a366004611307565b61065d565b34801561024b57600080fd5b5061017c6106cf565b34801561026057600080fd5b5061015a61026f3660046112ed565b6106d8565b34801561028057600080fd5b5061015a61028f3660046112ed565b61071b565b3480156102a057600080fd5b506101d2610752565b61015a6102b7366004611339565b610757565b3480156102c857600080fd5b506102dc6102d73660046113dd565b6107f3565b60405161018991906114bf565b3480156102f557600080fd5b5061017c6103043660046113bb565b610812565b34801561031557600080fd5b506101d26103243660046112ed565b61083b565b34801561033557600080fd5b506101d2610856565b34801561034a57600080fd5b5061015a6103593660046112ed565b61085b565b34801561036a57600080fd5b506102dc6103793660046112ed565b6108ef565b34801561038a57600080fd5b506101d26103993660046113a3565b61090d565b3480156103aa57600080fd5b5061015a6103b93660046113bb565b610924565b3480156103ca57600080fd5b5061015a6103d936600461136b565b61092e565b3480156103ea57600080fd5b5061015a61096d565b3480156103ff57600080fd5b506101d261040e3660046112ed565b6109e9565b34801561041f57600080fd5b5061015a61042e3660046112ed565b610a04565b34801561043f57600080fd5b5061015a61044e366004611339565b610b69565b6000600160e060020a031982167f5a05180f000000000000000000000000000000000000000000000000000000001480610491575061049182610bff565b90505b919050565b600160a060020a038116600090815260026020526040812042916104bb610c3d565b600160a060020a0316600160a060020a0316815260200190815260200160002054106104e657600080fd5b60065460ff1615156001146104fa57600080fd5b80600160a060020a031663a9059cbb610511610c3d565b600160a060020a0384166000908152600560205260409081902054905160e060020a63ffffffff851602815261054b9291906004016114d3565b602060405180830381600087803b15801561056557600080fd5b505af1158015610579573d6000803e3d6000fd5b505050506040513d601f19601f8201168201806040525081019061059d9190611387565b50600160a060020a0381166000908152600460205260409020546105c190426116d8565b600160a060020a0382166000908152600260205260408120906105e2610c3d565b600160a060020a0316815260208101919091526040016000205550565b60009081526020819052604090206001015490565b61061e8282610c41565b60008281526001602052604090206106369082610bea565b505050565b6106458282610c65565b60008281526001602052604090206106369082610caa565b600160a060020a038082166000908152600260209081526040808320938616835292905290812054429081106106945760006106c5565b600160a060020a038084166000908152600260209081526040808320938816835292905220546106c590829061170f565b9150505b92915050565b60065460ff1681565b6106e56000610304610c3d565b61070d5760405160e560020a62461bcd0281526004016107049061160d565b60405180910390fd5b610718600082610924565b50565b6107286000610304610c3d565b6107475760405160e560020a62461bcd0281526004016107049061160d565b610718600082610cbf565b303190565b600160a060020a03808416600090815260036020526040902054849116156107945760405160e560020a62461bcd028152600401610704906115d6565b61079c610c3d565b600160a060020a039485166000908152600360209081526040808320805473ffffffffffffffffffffffffffffffffffffffff19169490981693909317909655600586528181209490945560049094525091902055565b600082815260016020526040812061080b9083610cc9565b9392505050565b600091825260208281526040808420600160a060020a0393909316845291905290205460ff1690565b600160a060020a031660009081526004602052604090205490565b600081565b6108686000610304610c3d565b8061089c5750600160a060020a0380821660009081526003602052604090205416610891610c3d565b600160a060020a0316145b6108bb5760405160e560020a62461bcd0281526004016107049061159f565b600160a060020a03166000908152600360205260409020805473ffffffffffffffffffffffffffffffffffffffff19169055565b600160a060020a039081166000908152600360205260409020541690565b600081815260016020526040812061049190610cd5565b6106458282610ce0565b61093b6000610304610c3d565b61095a5760405160e560020a62461bcd0281526004016107049061160d565b6006805460ff1916911515919091179055565b61097a6000610304610c3d565b6109995760405160e560020a62461bcd0281526004016107049061160d565b6109a1610c3d565b604051600160a060020a039190911690303180156108fc02916000818181858888f193505050506109e75760405160e560020a62461bcd02815260040161070490611644565b565b600160a060020a031660009081526005602052604090205490565b80610a0d610c3d565b600160a060020a038281166000908152600360205260409020548116911614610a4b5760405160e560020a62461bcd02815260040161070490611568565b81600160a060020a031663a9059cbb610a62610c3d565b6040517f70a08231000000000000000000000000000000000000000000000000000000008152600160a060020a038616906370a0823190610aa79030906004016114bf565b60206040518083038186803b158015610abf57600080fd5b505afa158015610ad3573d6000803e3d6000fd5b505050506040513d601f19601f82011682018060405250810190610af79190611426565b6040518363ffffffff1660e060020a028152600401610b179291906114d3565b602060405180830381600087803b158015610b3157600080fd5b505af1158015610b45573d6000803e3d6000fd5b505050506040513d601f19601f820116820180604052508101906106369190611387565b82610b72610c3d565b600160a060020a038281166000908152600360205260409020548116911614610bb05760405160e560020a62461bcd02815260040161070490611568565b50600160a060020a03909216600090815260046020908152604080832094909455600590529190912055565b610be68282610cff565b5050565b600061080b83600160a060020a038416610d84565b6000600160e060020a031982167f7965db0b000000000000000000000000000000000000000000000000000000001480610491575061049182610dce565b3390565b610c4a826105ff565b610c5b81610c56610c3d565b610e00565b6106368383610cff565b610c6d610c3d565b600160a060020a031681600160a060020a031614610ca05760405160e560020a62461bcd0281526004016107049061167b565b610be68282610e67565b600061080b83600160a060020a038416610eea565b61061e8282610bdc565b600061080b8383611010565b60006104918261104b565b610ce9826105ff565b610cf581610c56610c3d565b6106368383610e67565b610d098282610812565b610be657600082815260208181526040808320600160a060020a03851684529091529020805460ff19166001179055610d40610c3d565b600160a060020a031681600160a060020a0316837f2f8788117e7eff1d82e926ec794901d17c78024a50270940304540a733656f0d60405160405180910390a45050565b6000610d90838361104f565b610dc6575081546001818101845560008481526020808220909301849055845484825282860190935260409020919091556106c9565b5060006106c9565b600160e060020a031981167f01ffc9a70000000000000000000000000000000000000000000000000000000014919050565b610e0a8282610812565b610be657610e2281600160a060020a03166014611067565b610e2d836020611067565b604051602001610e3e92919061143e565b60408051601f198184030181529082905260e560020a62461bcd02825261070491600401611500565b610e718282610812565b15610be657600082815260208181526040808320600160a060020a03851684529091529020805460ff19169055610ea6610c3d565b600160a060020a031681600160a060020a0316837ff6391f5c32d9c69d2a47ea670b442974b53935d1edc7fd64eb21e047a839171b60405160405180910390a45050565b60008181526001830160205260408120548015611006576000610f0e60018361170f565b8554909150600090610f229060019061170f565b9050818114610fa9576000866000018281548110610f535760e060020a634e487b7102600052603260045260246000fd5b9060005260206000200154905080876000018481548110610f875760e060020a634e487b7102600052603260045260246000fd5b6000918252602080832090910192909255918252600188019052604090208390555b8554869080610fcb5760e060020a634e487b7102600052603160045260246000fd5b6001900381819060005260206000200160009055905585600101600086815260200190815260200160002060009055600193505050506106c9565b60009150506106c9565b60008260000182815481106110385760e060020a634e487b7102600052603260045260246000fd5b9060005260206000200154905092915050565b5490565b60009081526001919091016020526040902054151590565b606060006110768360026116f0565b6110819060026116d8565b67ffffffffffffffff8111156110aa5760e060020a634e487b7102600052604160045260246000fd5b6040519080825280601f01601f1916602001820160405280156110d4576020820181803683370190505b5090507f30000000000000000000000000000000000000000000000000000000000000008160008151811061111c5760e060020a634e487b7102600052603260045260246000fd5b60200101907effffffffffffffffffffffffffffffffffffffffffffffffffffffffffffff1916908160001a9053507f7800000000000000000000000000000000000000000000000000000000000000816001815181106111905760e060020a634e487b7102600052603260045260246000fd5b60200101907effffffffffffffffffffffffffffffffffffffffffffffffffffffffffffff1916908160001a90535060006111cc8460026116f0565b6111d79060016116d8565b90505b60018111156112b4577f303132333435363738396162636465660000000000000000000000000000000085600f16601081106112295760e060020a634e487b7102600052603260045260246000fd5b1a7f01000000000000000000000000000000000000000000000000000000000000000282828151811061126f5760e060020a634e487b7102600052603260045260246000fd5b60200101907effffffffffffffffffffffffffffffffffffffffffffffffffffffffffffff1916908160001a9053506010909404936112ad81611756565b90506111da565b50831561080b5760405160e560020a62461bcd02815260040161070490611533565b8035600160a060020a038116811461049457600080fd5b6000602082840312156112fe578081fd5b61080b826112d6565b60008060408385031215611319578081fd5b611322836112d6565b9150611330602084016112d6565b90509250929050565b60008060006060848603121561134d578081fd5b611356846112d6565b95602085013595506040909401359392505050565b60006020828403121561137c578081fd5b813561080b81611786565b600060208284031215611398578081fd5b815161080b81611786565b6000602082840312156113b4578081fd5b5035919050565b600080604083850312156113cd578182fd5b82359150611330602084016112d6565b600080604083850312156113ef578182fd5b50508035926020909101359150565b60006020828403121561140f578081fd5b8135600160e060020a03198116811461080b578182fd5b600060208284031215611437578081fd5b5051919050565b60007f416363657373436f6e74726f6c3a206163636f756e742000000000000000000082528351611476816017850160208801611726565b7f206973206d697373696e6720726f6c652000000000000000000000000000000060179184019182015283516114b3816028840160208801611726565b01602801949350505050565b600160a060020a0391909116815260200190565b600160a060020a03929092168252602082015260400190565b901515815260200190565b90815260200190565b600060208252825180602084015261151f816040850160208701611726565b601f01601f19169190910160400192915050565b6020808252818101527f537472696e67733a20686578206c656e67746820696e73756666696369656e74604082015260600190565b60208082526012908201527f6f6e6c794f776e65722066756e6374696f6e0000000000000000000000000000604082015260600190565b60208082526013908201527f4e6f742061646d696e206e6f72206f776e657200000000000000000000000000604082015260600190565b60208082526011908201527f6e6f204f776e65722066756e6374696f6e000000000000000000000000000000604082015260600190565b60208082526012908201527f6f6e6c7941646d696e2066756e6374696f6e0000000000000000000000000000604082015260600190565b60208082526014908201527f4661696c656420746f2073656e64206574686572000000000000000000000000604082015260600190565b6020808252602f908201527f416363657373436f6e74726f6c3a2063616e206f6e6c792072656e6f756e636560408201527f20726f6c657320666f722073656c660000000000000000000000000000000000606082015260800190565b600082198211156116eb576116eb61176d565b500190565b600081600019048311821515161561170a5761170a61176d565b500290565b6000828210156117215761172161176d565b500390565b60005b83811015611741578181015183820152602001611729565b83811115611750576000848401525b50505050565b6000816117655761176561176d565b506000190190565b60e060020a634e487b7102600052601160045260246000fd5b801515811461071857600080fdfea26469706673582212205fd9e42e96d64e77887196d941d0393b02685e8f0485f5aa74d75911067c235e64736f6c63430008000033",
  "immutableReferences": {},
  "source": "// SPDX-License-Identifier: MIT\npragma solidity >=0.4.22 <0.9.0;\n\nimport \"@openzeppelin/contracts/token/ERC20/IERC20.sol\";\nimport \"@openzeppelin/contracts/access/AccessControlEnumerable.sol\";\n\ncontract Faucet is AccessControlEnumerable{\n  \n  mapping(address=>mapping(address=>uint)) expiryOf;\n  mapping(address=>address) owner;\n  mapping(address=>uint) secs;\n  mapping(address=>uint) amounts;\n  bool public setActiveOn = false; //for activate or desactivate.\n  //hola\n\n  constructor(address admin, address tokenFaucet) {\n    _setupRole(DEFAULT_ADMIN_ROLE, admin);\n    owner[tokenFaucet] = admin;\n    secs[tokenFaucet] = 86399;\n    amounts[tokenFaucet] = 1 ether; \n  }\n\n  modifier onlyAdmin(){\n    require(hasRole(DEFAULT_ADMIN_ROLE, _msgSender()), \"onlyAdmin function\");\n    _;\n  }\n  modifier onlyOwner(address token){\n    require(owner[token] == _msgSender(), \"onlyOwner function\");\n    _;\n  }\n  modifier noOwner(address token){\n    require(owner[token] == address(0), \"no Owner function\");\n    _;\n  }\n  \n  function setAdmin(address newAdmin) external onlyAdmin{\n    _setupRole(DEFAULT_ADMIN_ROLE, newAdmin);    //me da out of gas\n  }\n  function unsetAdmin(address newAdmin) external onlyAdmin{\n    revokeRole(DEFAULT_ADMIN_ROLE, newAdmin);\n  }\n  function unsetOwner(address token) external {\n    require(hasRole(DEFAULT_ADMIN_ROLE, _msgSender()) || _msgSender() == owner[token], \"Not admin nor owner\");\n    owner[token] = address(0);\n  }\n\n\n  function makeMeOwner(address token, uint amountForClaimers, uint _secs) external payable noOwner(token){\n    owner[token] = _msgSender();\n    amounts[token] = amountForClaimers;\n    secs[token] = _secs;\n  }\n\n  function claim(address token) external{\n    require(expiryOf[token][_msgSender()] < block.timestamp);\n    require(setActiveOn == true);\n\n    IERC20(token).transfer(_msgSender(), amounts[token]);\n\n    expiryOf[token][_msgSender()] = block.timestamp + secs[token];\n  }\n\n  function setUpToken(address token, uint _amount, uint _secs) external onlyOwner(token){\n    secs[token] = _secs;\n    amounts[token] = _amount;\n  }\n\n  function vaciarFaucet(address token) external onlyOwner(token){\n    //Require time block retiro\n    IERC20(token).transfer(_msgSender(), IERC20(token).balanceOf(address(this)));\n  }\n\n  receive() external payable{}\n  fallback() external payable{}\n  function getEther() external onlyAdmin{\n    require(payable(_msgSender()).send(address(this).balance),  \"Failed to send ether\");\n  }\n  \n\n  function getExpiryOf(address user, address token) external view returns(uint){\n    uint nowTime = block.timestamp;\n    return  expiryOf[token][user] > nowTime ? expiryOf[token][user] - nowTime : 0 ;\n  }\n\n  function getOwnerOf(address token) external view returns(address){\n    return owner[token];\n  }\n  function getAmountOf(address token) external view returns(uint){\n    return amounts[token];\n  }\n  function getSecsOf(address token) external view returns(uint){\n    return secs[token];\n  }\n  function getEthBalance() external view returns(uint){\n    return address(this).balance;\n  }\n  function ActivateFaucet(bool _activeBool) public onlyAdmin{\n    setActiveOn = _activeBool;    \n  }\n\n}\n",
  "sourcePath": "C:\\Escritorio\\Proyects\\MainNet\\PatoVerdeProjects-contract\\contracts\\Faucet.sol",
  "compiler": {
    "name": "solc",
    "version": "0.8.0+commit.c7dfd78e.Emscripten.clang"
  },
  "schemaVersion": "3.4.3",
  "updatedAt": "2021-11-25T01:08:01.633Z",
  "devdoc": {
    "kind": "dev",
    "methods": {
      "getRoleAdmin(bytes32)": {
        "details": "Returns the admin role that controls `role`. See {grantRole} and {revokeRole}. To change a role's admin, use {_setRoleAdmin}."
      },
      "getRoleMember(bytes32,uint256)": {
        "details": "Returns one of the accounts that have `role`. `index` must be a value between 0 and {getRoleMemberCount}, non-inclusive. Role bearers are not sorted in any particular way, and their ordering may change at any point. WARNING: When using {getRoleMember} and {getRoleMemberCount}, make sure you perform all queries on the same block. See the following https://forum.openzeppelin.com/t/iterating-over-elements-on-enumerableset-in-openzeppelin-contracts/2296[forum post] for more information."
      },
      "getRoleMemberCount(bytes32)": {
        "details": "Returns the number of accounts that have `role`. Can be used together with {getRoleMember} to enumerate all bearers of a role."
      },
      "grantRole(bytes32,address)": {
        "details": "Overload {grantRole} to track enumerable memberships"
      },
      "hasRole(bytes32,address)": {
        "details": "Returns `true` if `account` has been granted `role`."
      },
      "renounceRole(bytes32,address)": {
        "details": "Overload {renounceRole} to track enumerable memberships"
      },
      "revokeRole(bytes32,address)": {
        "details": "Overload {revokeRole} to track enumerable memberships"
      },
      "supportsInterface(bytes4)": {
        "details": "See {IERC165-supportsInterface}."
      }
    },
    "version": 1
  },
  "userdoc": {
    "kind": "user",
    "methods": {},
    "version": 1
  }
}