{
  "contractName": "Faucet",
  "abi": [
    {
      "inputs": [
        {
          "internalType": "address",
          "name": "admin",
          "type": "address"
        },
        {
          "internalType": "address",
          "name": "tokenFaucet",
          "type": "address"
        }
      ],
      "stateMutability": "nonpayable",
      "type": "constructor"
    },
    {
      "anonymous": false,
      "inputs": [
        {
          "indexed": true,
          "internalType": "bytes32",
          "name": "role",
          "type": "bytes32"
        },
        {
          "indexed": true,
          "internalType": "bytes32",
          "name": "previousAdminRole",
          "type": "bytes32"
        },
        {
          "indexed": true,
          "internalType": "bytes32",
          "name": "newAdminRole",
          "type": "bytes32"
        }
      ],
      "name": "RoleAdminChanged",
      "type": "event"
    },
    {
      "anonymous": false,
      "inputs": [
        {
          "indexed": true,
          "internalType": "bytes32",
          "name": "role",
          "type": "bytes32"
        },
        {
          "indexed": true,
          "internalType": "address",
          "name": "account",
          "type": "address"
        },
        {
          "indexed": true,
          "internalType": "address",
          "name": "sender",
          "type": "address"
        }
      ],
      "name": "RoleGranted",
      "type": "event"
    },
    {
      "anonymous": false,
      "inputs": [
        {
          "indexed": true,
          "internalType": "bytes32",
          "name": "role",
          "type": "bytes32"
        },
        {
          "indexed": true,
          "internalType": "address",
          "name": "account",
          "type": "address"
        },
        {
          "indexed": true,
          "internalType": "address",
          "name": "sender",
          "type": "address"
        }
      ],
      "name": "RoleRevoked",
      "type": "event"
    },
    {
      "stateMutability": "payable",
      "type": "fallback"
    },
    {
      "inputs": [],
      "name": "DEFAULT_ADMIN_ROLE",
      "outputs": [
        {
          "internalType": "bytes32",
          "name": "",
          "type": "bytes32"
        }
      ],
      "stateMutability": "view",
      "type": "function"
    },
    {
      "inputs": [
        {
          "internalType": "bytes32",
          "name": "role",
          "type": "bytes32"
        }
      ],
      "name": "getRoleAdmin",
      "outputs": [
        {
          "internalType": "bytes32",
          "name": "",
          "type": "bytes32"
        }
      ],
      "stateMutability": "view",
      "type": "function"
    },
    {
      "inputs": [
        {
          "internalType": "bytes32",
          "name": "role",
          "type": "bytes32"
        },
        {
          "internalType": "uint256",
          "name": "index",
          "type": "uint256"
        }
      ],
      "name": "getRoleMember",
      "outputs": [
        {
          "internalType": "address",
          "name": "",
          "type": "address"
        }
      ],
      "stateMutability": "view",
      "type": "function"
    },
    {
      "inputs": [
        {
          "internalType": "bytes32",
          "name": "role",
          "type": "bytes32"
        }
      ],
      "name": "getRoleMemberCount",
      "outputs": [
        {
          "internalType": "uint256",
          "name": "",
          "type": "uint256"
        }
      ],
      "stateMutability": "view",
      "type": "function"
    },
    {
      "inputs": [
        {
          "internalType": "bytes32",
          "name": "role",
          "type": "bytes32"
        },
        {
          "internalType": "address",
          "name": "account",
          "type": "address"
        }
      ],
      "name": "grantRole",
      "outputs": [],
      "stateMutability": "nonpayable",
      "type": "function"
    },
    {
      "inputs": [
        {
          "internalType": "bytes32",
          "name": "role",
          "type": "bytes32"
        },
        {
          "internalType": "address",
          "name": "account",
          "type": "address"
        }
      ],
      "name": "hasRole",
      "outputs": [
        {
          "internalType": "bool",
          "name": "",
          "type": "bool"
        }
      ],
      "stateMutability": "view",
      "type": "function"
    },
    {
      "inputs": [
        {
          "internalType": "bytes32",
          "name": "role",
          "type": "bytes32"
        },
        {
          "internalType": "address",
          "name": "account",
          "type": "address"
        }
      ],
      "name": "renounceRole",
      "outputs": [],
      "stateMutability": "nonpayable",
      "type": "function"
    },
    {
      "inputs": [
        {
          "internalType": "bytes32",
          "name": "role",
          "type": "bytes32"
        },
        {
          "internalType": "address",
          "name": "account",
          "type": "address"
        }
      ],
      "name": "revokeRole",
      "outputs": [],
      "stateMutability": "nonpayable",
      "type": "function"
    },
    {
      "inputs": [],
      "name": "setActiveOn",
      "outputs": [
        {
          "internalType": "bool",
          "name": "",
          "type": "bool"
        }
      ],
      "stateMutability": "view",
      "type": "function"
    },
    {
      "inputs": [
        {
          "internalType": "bytes4",
          "name": "interfaceId",
          "type": "bytes4"
        }
      ],
      "name": "supportsInterface",
      "outputs": [
        {
          "internalType": "bool",
          "name": "",
          "type": "bool"
        }
      ],
      "stateMutability": "view",
      "type": "function"
    },
    {
      "stateMutability": "payable",
      "type": "receive"
    },
    {
      "inputs": [
        {
          "internalType": "address",
          "name": "newAdmin",
          "type": "address"
        }
      ],
      "name": "setAdmin",
      "outputs": [],
      "stateMutability": "nonpayable",
      "type": "function"
    },
    {
      "inputs": [
        {
          "internalType": "address",
          "name": "newAdmin",
          "type": "address"
        }
      ],
      "name": "unsetAdmin",
      "outputs": [],
      "stateMutability": "nonpayable",
      "type": "function"
    },
    {
      "inputs": [
        {
          "internalType": "address",
          "name": "token",
          "type": "address"
        }
      ],
      "name": "unsetOwner",
      "outputs": [],
      "stateMutability": "nonpayable",
      "type": "function"
    },
    {
      "inputs": [
        {
          "internalType": "address",
          "name": "token",
          "type": "address"
        },
        {
          "internalType": "uint256",
          "name": "amountForClaimers",
          "type": "uint256"
        },
        {
          "internalType": "uint256",
          "name": "_secs",
          "type": "uint256"
        }
      ],
      "name": "makeMeOwner",
      "outputs": [],
      "stateMutability": "payable",
      "type": "function"
    },
    {
      "inputs": [
        {
          "internalType": "address",
          "name": "token",
          "type": "address"
        }
      ],
      "name": "claim",
      "outputs": [],
      "stateMutability": "nonpayable",
      "type": "function"
    },
    {
      "inputs": [
        {
          "internalType": "address",
          "name": "token",
          "type": "address"
        },
        {
          "internalType": "uint256",
          "name": "_amount",
          "type": "uint256"
        },
        {
          "internalType": "uint256",
          "name": "_secs",
          "type": "uint256"
        }
      ],
      "name": "setUpToken",
      "outputs": [],
      "stateMutability": "nonpayable",
      "type": "function"
    },
    {
      "inputs": [
        {
          "internalType": "address",
          "name": "token",
          "type": "address"
        }
      ],
      "name": "vaciarFaucet",
      "outputs": [],
      "stateMutability": "nonpayable",
      "type": "function"
    },
    {
      "inputs": [],
      "name": "getEther",
      "outputs": [],
      "stateMutability": "nonpayable",
      "type": "function"
    },
    {
      "inputs": [
        {
          "internalType": "address",
          "name": "user",
          "type": "address"
        },
        {
          "internalType": "address",
          "name": "token",
          "type": "address"
        }
      ],
      "name": "getExpiryOf",
      "outputs": [
        {
          "internalType": "uint256",
          "name": "",
          "type": "uint256"
        }
      ],
      "stateMutability": "view",
      "type": "function"
    },
    {
      "inputs": [
        {
          "internalType": "address",
          "name": "token",
          "type": "address"
        }
      ],
      "name": "getOwnerOf",
      "outputs": [
        {
          "internalType": "address",
          "name": "",
          "type": "address"
        }
      ],
      "stateMutability": "view",
      "type": "function"
    },
    {
      "inputs": [
        {
          "internalType": "address",
          "name": "token",
          "type": "address"
        }
      ],
      "name": "getAmountOf",
      "outputs": [
        {
          "internalType": "uint256",
          "name": "",
          "type": "uint256"
        }
      ],
      "stateMutability": "view",
      "type": "function"
    },
    {
      "inputs": [
        {
          "internalType": "address",
          "name": "token",
          "type": "address"
        }
      ],
      "name": "getSecsOf",
      "outputs": [
        {
          "internalType": "uint256",
          "name": "",
          "type": "uint256"
        }
      ],
      "stateMutability": "view",
      "type": "function"
    },
    {
      "inputs": [],
      "name": "getEthBalance",
      "outputs": [
        {
          "internalType": "uint256",
          "name": "",
          "type": "uint256"
        }
      ],
      "stateMutability": "view",
      "type": "function"
    },
    {
      "inputs": [],
      "name": "ActivateFaucet",
      "outputs": [],
      "stateMutability": "nonpayable",
      "type": "function"
    }
  ],
  "bytecode": "0x60806040526006805460ff191690553480156200001b57600080fd5b5060405162001a6638038062001a668339810160408190526200003e916200028a565b62000054600083640100000000620000ab810204565b600160a060020a0390811660009081526003602090815260408083208054600160a060020a031916959094169490941790925560048252828120620151809055600590915220670de0b6b3a76400009055620002c1565b620000c5828264010000000062000bcd620000f282021704565b6000828152600160205260409020620000ed908264010000000062000bdb6200010b82021704565b505050565b62000107828264010000000062000134810204565b5050565b60006200012b83600160a060020a038416640100000000620001d0810204565b90505b92915050565b62000149828264010000000062000228810204565b6200010757600082815260208181526040808320600160a060020a03851684529091529020805460ff191660011790556200018c64010000000062000251810204565b600160a060020a031681600160a060020a0316837f2f8788117e7eff1d82e926ec794901d17c78024a50270940304540a733656f0d60405160405180910390a45050565b6000620001e7838364010000000062000255810204565b6200021f575081546001818101845560008481526020808220909301849055845484825282860190935260409020919091556200012e565b5060006200012e565b600091825260208281526040808420600160a060020a0393909316845291905290205460ff1690565b3390565b60009081526001919091016020526040902054151590565b8051600160a060020a03811681146200028557600080fd5b919050565b600080604083850312156200029d578182fd5b620002a8836200026d565b9150620002b8602084016200026d565b90509250929050565b61179580620002d16000396000f3fe6080604052600436106101535760003560e060020a900480639010d07c116100ba578063ca15c87311610073578063ca15c87314610393578063d547741f146103b3578063de0ff7c5146103d3578063e8b2400c146103e8578063ee3c364014610408578063f7662f8e146104285761015a565b80639010d07c146102d157806391d14854146102fe57806398710fac1461031e578063a217fddf1461033e578063a6312ab914610353578063bd4972c3146103735761015a565b806349ce15f21161010c57806349ce15f21461023f5780634d253b50146102545780636a57e51114610274578063704b6c021461028957806370ed0ada146102a957806379c1e119146102be5761015a565b806301ffc9a71461015c5780631e83409a14610192578063248a9ca3146101b25780632f2ff15d146101df57806336568abe146101ff578063396c5e501461021f5761015a565b3661015a57005b005b34801561016857600080fd5b5061017c6101773660046113d7565b610448565b60405161018991906114c5565b60405180910390f35b34801561019e57600080fd5b5061015a6101ad3660046112de565b61048e565b3480156101be57600080fd5b506101d26101cd36600461137c565b6105f4565b60405161018991906114d0565b3480156101eb57600080fd5b5061015a6101fa366004611394565b610609565b34801561020b57600080fd5b5061015a61021a366004611394565b610630565b34801561022b57600080fd5b506101d261023a3660046112f8565b610652565b34801561024b57600080fd5b5061017c6106c4565b34801561026057600080fd5b5061015a61026f3660046112de565b6106cd565b34801561028057600080fd5b5061015a610710565b34801561029557600080fd5b5061015a6102a43660046112de565b61074b565b3480156102b557600080fd5b506101d2610782565b61015a6102cc36600461132a565b610787565b3480156102dd57600080fd5b506102f16102ec3660046113b6565b610823565b6040516101899190611498565b34801561030a57600080fd5b5061017c610319366004611394565b610842565b34801561032a57600080fd5b506101d26103393660046112de565b61086b565b34801561034a57600080fd5b506101d2610886565b34801561035f57600080fd5b5061015a61036e3660046112de565b61088b565b34801561037f57600080fd5b506102f161038e3660046112de565b61091f565b34801561039f57600080fd5b506101d26103ae36600461137c565b61093d565b3480156103bf57600080fd5b5061015a6103ce366004611394565b610954565b3480156103df57600080fd5b5061015a61095e565b3480156103f457600080fd5b506101d26104033660046112de565b6109da565b34801561041457600080fd5b5061015a6104233660046112de565b6109f5565b34801561043457600080fd5b5061015a61044336600461132a565b610b5a565b6000600160e060020a031982167f5a05180f000000000000000000000000000000000000000000000000000000001480610486575061048682610bf0565b90505b919050565b600160a060020a038116600090815260026020526040812042916104b0610c2e565b600160a060020a0316600160a060020a0316815260200190815260200160002054106104db57600080fd5b60065460ff1615156001146104ef57600080fd5b80600160a060020a031663a9059cbb610506610c2e565b600160a060020a0384166000908152600560205260409081902054905160e060020a63ffffffff85160281526105409291906004016114ac565b602060405180830381600087803b15801561055a57600080fd5b505af115801561056e573d6000803e3d6000fd5b505050506040513d601f19601f82011682018060405250810190610592919061135c565b50600160a060020a0381166000908152600460205260409020546105b690426116b1565b600160a060020a0382166000908152600260205260408120906105d7610c2e565b600160a060020a0316815260208101919091526040016000205550565b60009081526020819052604090206001015490565b6106138282610c32565b600082815260016020526040902061062b9082610bdb565b505050565b61063a8282610c56565b600082815260016020526040902061062b9082610c9b565b600160a060020a038082166000908152600260209081526040808320938616835292905290812054429081106106895760006106ba565b600160a060020a038084166000908152600260209081526040808320938816835292905220546106ba9082906116e8565b9150505b92915050565b60065460ff1681565b6106da6000610319610c2e565b6107025760405160e560020a62461bcd0281526004016106f9906115e6565b60405180910390fd5b61070d600082610954565b50565b61071d6000610319610c2e565b61073c5760405160e560020a62461bcd0281526004016106f9906115e6565b6006805460ff19166001179055565b6107586000610319610c2e565b6107775760405160e560020a62461bcd0281526004016106f9906115e6565b61070d600082610cb0565b303190565b600160a060020a03808416600090815260036020526040902054849116156107c45760405160e560020a62461bcd0281526004016106f9906115af565b6107cc610c2e565b600160a060020a039485166000908152600360209081526040808320805473ffffffffffffffffffffffffffffffffffffffff19169490981693909317909655600586528181209490945560049094525091902055565b600082815260016020526040812061083b9083610cba565b9392505050565b600091825260208281526040808420600160a060020a0393909316845291905290205460ff1690565b600160a060020a031660009081526004602052604090205490565b600081565b6108986000610319610c2e565b806108cc5750600160a060020a03808216600090815260036020526040902054166108c1610c2e565b600160a060020a0316145b6108eb5760405160e560020a62461bcd0281526004016106f990611578565b600160a060020a03166000908152600360205260409020805473ffffffffffffffffffffffffffffffffffffffff19169055565b600160a060020a039081166000908152600360205260409020541690565b600081815260016020526040812061048690610cc6565b61063a8282610cd1565b61096b6000610319610c2e565b61098a5760405160e560020a62461bcd0281526004016106f9906115e6565b610992610c2e565b604051600160a060020a039190911690303180156108fc02916000818181858888f193505050506109d85760405160e560020a62461bcd0281526004016106f99061161d565b565b600160a060020a031660009081526005602052604090205490565b806109fe610c2e565b600160a060020a038281166000908152600360205260409020548116911614610a3c5760405160e560020a62461bcd0281526004016106f990611541565b81600160a060020a031663a9059cbb610a53610c2e565b6040517f70a08231000000000000000000000000000000000000000000000000000000008152600160a060020a038616906370a0823190610a98903090600401611498565b60206040518083038186803b158015610ab057600080fd5b505afa158015610ac4573d6000803e3d6000fd5b505050506040513d601f19601f82011682018060405250810190610ae891906113ff565b6040518363ffffffff1660e060020a028152600401610b089291906114ac565b602060405180830381600087803b158015610b2257600080fd5b505af1158015610b36573d6000803e3d6000fd5b505050506040513d601f19601f8201168201806040525081019061062b919061135c565b82610b63610c2e565b600160a060020a038281166000908152600360205260409020548116911614610ba15760405160e560020a62461bcd0281526004016106f990611541565b50600160a060020a03909216600090815260046020908152604080832094909455600590529190912055565b610bd78282610cf0565b5050565b600061083b83600160a060020a038416610d75565b6000600160e060020a031982167f7965db0b000000000000000000000000000000000000000000000000000000001480610486575061048682610dbf565b3390565b610c3b826105f4565b610c4c81610c47610c2e565b610df1565b61062b8383610cf0565b610c5e610c2e565b600160a060020a031681600160a060020a031614610c915760405160e560020a62461bcd0281526004016106f990611654565b610bd78282610e58565b600061083b83600160a060020a038416610edb565b6106138282610bcd565b600061083b8383611001565b60006104868261103c565b610cda826105f4565b610ce681610c47610c2e565b61062b8383610e58565b610cfa8282610842565b610bd757600082815260208181526040808320600160a060020a03851684529091529020805460ff19166001179055610d31610c2e565b600160a060020a031681600160a060020a0316837f2f8788117e7eff1d82e926ec794901d17c78024a50270940304540a733656f0d60405160405180910390a45050565b6000610d818383611040565b610db7575081546001818101845560008481526020808220909301849055845484825282860190935260409020919091556106be565b5060006106be565b600160e060020a031981167f01ffc9a70000000000000000000000000000000000000000000000000000000014919050565b610dfb8282610842565b610bd757610e1381600160a060020a03166014611058565b610e1e836020611058565b604051602001610e2f929190611417565b60408051601f198184030181529082905260e560020a62461bcd0282526106f9916004016114d9565b610e628282610842565b15610bd757600082815260208181526040808320600160a060020a03851684529091529020805460ff19169055610e97610c2e565b600160a060020a031681600160a060020a0316837ff6391f5c32d9c69d2a47ea670b442974b53935d1edc7fd64eb21e047a839171b60405160405180910390a45050565b60008181526001830160205260408120548015610ff7576000610eff6001836116e8565b8554909150600090610f13906001906116e8565b9050818114610f9a576000866000018281548110610f445760e060020a634e487b7102600052603260045260246000fd5b9060005260206000200154905080876000018481548110610f785760e060020a634e487b7102600052603260045260246000fd5b6000918252602080832090910192909255918252600188019052604090208390555b8554869080610fbc5760e060020a634e487b7102600052603160045260246000fd5b6001900381819060005260206000200160009055905585600101600086815260200190815260200160002060009055600193505050506106be565b60009150506106be565b60008260000182815481106110295760e060020a634e487b7102600052603260045260246000fd5b9060005260206000200154905092915050565b5490565b60009081526001919091016020526040902054151590565b606060006110678360026116c9565b6110729060026116b1565b67ffffffffffffffff81111561109b5760e060020a634e487b7102600052604160045260246000fd5b6040519080825280601f01601f1916602001820160405280156110c5576020820181803683370190505b5090507f30000000000000000000000000000000000000000000000000000000000000008160008151811061110d5760e060020a634e487b7102600052603260045260246000fd5b60200101907effffffffffffffffffffffffffffffffffffffffffffffffffffffffffffff1916908160001a9053507f7800000000000000000000000000000000000000000000000000000000000000816001815181106111815760e060020a634e487b7102600052603260045260246000fd5b60200101907effffffffffffffffffffffffffffffffffffffffffffffffffffffffffffff1916908160001a90535060006111bd8460026116c9565b6111c89060016116b1565b90505b60018111156112a5577f303132333435363738396162636465660000000000000000000000000000000085600f166010811061121a5760e060020a634e487b7102600052603260045260246000fd5b1a7f0100000000000000000000000000000000000000000000000000000000000000028282815181106112605760e060020a634e487b7102600052603260045260246000fd5b60200101907effffffffffffffffffffffffffffffffffffffffffffffffffffffffffffff1916908160001a90535060109094049361129e8161172f565b90506111cb565b50831561083b5760405160e560020a62461bcd0281526004016106f99061150c565b8035600160a060020a038116811461048957600080fd5b6000602082840312156112ef578081fd5b61083b826112c7565b6000806040838503121561130a578081fd5b611313836112c7565b9150611321602084016112c7565b90509250929050565b60008060006060848603121561133e578081fd5b611347846112c7565b95602085013595506040909401359392505050565b60006020828403121561136d578081fd5b8151801515811461083b578182fd5b60006020828403121561138d578081fd5b5035919050565b600080604083850312156113a6578182fd5b82359150611321602084016112c7565b600080604083850312156113c8578182fd5b50508035926020909101359150565b6000602082840312156113e8578081fd5b8135600160e060020a03198116811461083b578182fd5b600060208284031215611410578081fd5b5051919050565b60007f416363657373436f6e74726f6c3a206163636f756e74200000000000000000008252835161144f8160178501602088016116ff565b7f206973206d697373696e6720726f6c6520000000000000000000000000000000601791840191820152835161148c8160288401602088016116ff565b01602801949350505050565b600160a060020a0391909116815260200190565b600160a060020a03929092168252602082015260400190565b901515815260200190565b90815260200190565b60006020825282518060208401526114f88160408501602087016116ff565b601f01601f19169190910160400192915050565b6020808252818101527f537472696e67733a20686578206c656e67746820696e73756666696369656e74604082015260600190565b60208082526012908201527f6f6e6c794f776e65722066756e6374696f6e0000000000000000000000000000604082015260600190565b60208082526013908201527f4e6f742061646d696e206e6f72206f776e657200000000000000000000000000604082015260600190565b60208082526011908201527f6e6f204f776e65722066756e6374696f6e000000000000000000000000000000604082015260600190565b60208082526012908201527f6f6e6c7941646d696e2066756e6374696f6e0000000000000000000000000000604082015260600190565b60208082526014908201527f4661696c656420746f2073656e64206574686572000000000000000000000000604082015260600190565b6020808252602f908201527f416363657373436f6e74726f6c3a2063616e206f6e6c792072656e6f756e636560408201527f20726f6c657320666f722073656c660000000000000000000000000000000000606082015260800190565b600082198211156116c4576116c4611746565b500190565b60008160001904831182151516156116e3576116e3611746565b500290565b6000828210156116fa576116fa611746565b500390565b60005b8381101561171a578181015183820152602001611702565b83811115611729576000848401525b50505050565b60008161173e5761173e611746565b506000190190565b60e060020a634e487b7102600052601160045260246000fdfea2646970667358221220ab74aab3e5e0bfcfa679aefba55a23f2cc73e79e3256e8e904c8219a57a8e8f664736f6c63430008000033",
  "immutableReferences": {},
  "source": "// SPDX-License-Identifier: MIT\npragma solidity >=0.4.22 <0.9.0;\n\nimport \"@openzeppelin/contracts/token/ERC20/IERC20.sol\";\nimport \"@openzeppelin/contracts/access/AccessControlEnumerable.sol\";\n\ncontract Faucet is AccessControlEnumerable{\n  \n  mapping(address=>mapping(address=>uint)) expiryOf;\n  mapping(address=>address) owner;\n  mapping(address=>uint) secs;\n  mapping(address=>uint) amounts;\n  bool public setActiveOn = false; //for activate in launch.\n\n  constructor(address admin, address tokenFaucet) {\n    _setupRole(DEFAULT_ADMIN_ROLE, admin);\n    owner[tokenFaucet] = admin;\n    secs[tokenFaucet] = 86400;\n    amounts[tokenFaucet] = 1 ether; \n  }\n\n  modifier onlyAdmin(){\n    require(hasRole(DEFAULT_ADMIN_ROLE, _msgSender()), \"onlyAdmin function\");\n    _;\n  }\n  modifier onlyOwner(address token){\n    require(owner[token] == _msgSender(), \"onlyOwner function\");\n    _;\n  }\n  modifier noOwner(address token){\n    require(owner[token] == address(0), \"no Owner function\");\n    _;\n  }\n  \n  function setAdmin(address newAdmin) external onlyAdmin{\n    _setupRole(DEFAULT_ADMIN_ROLE, newAdmin);    //me da out of gas\n  }\n  function unsetAdmin(address newAdmin) external onlyAdmin{\n    revokeRole(DEFAULT_ADMIN_ROLE, newAdmin);\n  }\n  function unsetOwner(address token) external {\n    require(hasRole(DEFAULT_ADMIN_ROLE, _msgSender()) || _msgSender() == owner[token], \"Not admin nor owner\");\n    owner[token] = address(0);\n  }\n\n\n  function makeMeOwner(address token, uint amountForClaimers, uint _secs) external payable noOwner(token){\n    owner[token] = _msgSender();\n    amounts[token] = amountForClaimers;\n    secs[token] = _secs;\n  }\n\n  function claim(address token) external{\n    require(expiryOf[token][_msgSender()] < block.timestamp);\n    require(setActiveOn == true);\n\n    IERC20(token).transfer(_msgSender(), amounts[token]);\n\n    expiryOf[token][_msgSender()] = block.timestamp + secs[token];\n  }\n\n  function setUpToken(address token, uint _amount, uint _secs) external onlyOwner(token){\n    secs[token] = _secs;\n    amounts[token] = _amount;\n  }\n\n  function vaciarFaucet(address token) external onlyOwner(token){\n    //Require time block retiro\n    IERC20(token).transfer(_msgSender(), IERC20(token).balanceOf(address(this)));\n  }\n\n  receive() external payable{}\n  fallback() external payable{}\n  function getEther() external onlyAdmin{\n    require(payable(_msgSender()).send(address(this).balance),  \"Failed to send ether\");\n  }\n  \n\n  function getExpiryOf(address user, address token) external view returns(uint){\n    uint nowTime = block.timestamp;\n    return  expiryOf[token][user] > nowTime ? expiryOf[token][user] - nowTime : 0 ;\n  }\n\n  function getOwnerOf(address token) external view returns(address){\n    return owner[token];\n  }\n  function getAmountOf(address token) external view returns(uint){\n    return amounts[token];\n  }\n  function getSecsOf(address token) external view returns(uint){\n    return secs[token];\n  }\n  function getEthBalance() external view returns(uint){\n    return address(this).balance;\n  }\n  function ActivateFaucet() public onlyAdmin{\n    setActiveOn = true;    \n  }\n\n}\n",
  "sourcePath": "/home/guillermo/dapps/patoProyect/blockEnd/contracts/Faucet.sol",
  "compiler": {
    "name": "solc",
    "version": "0.8.0+commit.c7dfd78e.Emscripten.clang"
  },
  "schemaVersion": "3.4.3",
  "updatedAt": "2021-11-23T14:08:38.471Z",
  "devdoc": {
    "kind": "dev",
    "methods": {
      "getRoleAdmin(bytes32)": {
        "details": "Returns the admin role that controls `role`. See {grantRole} and {revokeRole}. To change a role's admin, use {_setRoleAdmin}."
      },
      "getRoleMember(bytes32,uint256)": {
        "details": "Returns one of the accounts that have `role`. `index` must be a value between 0 and {getRoleMemberCount}, non-inclusive. Role bearers are not sorted in any particular way, and their ordering may change at any point. WARNING: When using {getRoleMember} and {getRoleMemberCount}, make sure you perform all queries on the same block. See the following https://forum.openzeppelin.com/t/iterating-over-elements-on-enumerableset-in-openzeppelin-contracts/2296[forum post] for more information."
      },
      "getRoleMemberCount(bytes32)": {
        "details": "Returns the number of accounts that have `role`. Can be used together with {getRoleMember} to enumerate all bearers of a role."
      },
      "grantRole(bytes32,address)": {
        "details": "Overload {grantRole} to track enumerable memberships"
      },
      "hasRole(bytes32,address)": {
        "details": "Returns `true` if `account` has been granted `role`."
      },
      "renounceRole(bytes32,address)": {
        "details": "Overload {renounceRole} to track enumerable memberships"
      },
      "revokeRole(bytes32,address)": {
        "details": "Overload {revokeRole} to track enumerable memberships"
      },
      "supportsInterface(bytes4)": {
        "details": "See {IERC165-supportsInterface}."
      }
    },
    "version": 1
  },
  "userdoc": {
    "kind": "user",
    "methods": {},
    "version": 1
  }
}