{
  "contractName": "PatoVerde",
  "abi": [
    {
      "inputs": [
        {
          "internalType": "address",
          "name": "masterChef",
          "type": "address"
        }
      ],
      "stateMutability": "nonpayable",
      "type": "constructor"
    },
    {
      "anonymous": false,
      "inputs": [
        {
          "indexed": true,
          "internalType": "address",
          "name": "owner",
          "type": "address"
        },
        {
          "indexed": true,
          "internalType": "address",
          "name": "spender",
          "type": "address"
        },
        {
          "indexed": false,
          "internalType": "uint256",
          "name": "value",
          "type": "uint256"
        }
      ],
      "name": "Approval",
      "type": "event"
    },
    {
      "anonymous": false,
      "inputs": [
        {
          "indexed": true,
          "internalType": "address",
          "name": "from",
          "type": "address"
        },
        {
          "indexed": true,
          "internalType": "address",
          "name": "to",
          "type": "address"
        },
        {
          "indexed": false,
          "internalType": "uint256",
          "name": "value",
          "type": "uint256"
        }
      ],
      "name": "Transfer",
      "type": "event"
    },
    {
      "inputs": [
        {
          "internalType": "address",
          "name": "owner",
          "type": "address"
        },
        {
          "internalType": "address",
          "name": "spender",
          "type": "address"
        }
      ],
      "name": "allowance",
      "outputs": [
        {
          "internalType": "uint256",
          "name": "",
          "type": "uint256"
        }
      ],
      "stateMutability": "view",
      "type": "function"
    },
    {
      "inputs": [
        {
          "internalType": "address",
          "name": "spender",
          "type": "address"
        },
        {
          "internalType": "uint256",
          "name": "amount",
          "type": "uint256"
        }
      ],
      "name": "approve",
      "outputs": [
        {
          "internalType": "bool",
          "name": "",
          "type": "bool"
        }
      ],
      "stateMutability": "nonpayable",
      "type": "function"
    },
    {
      "inputs": [
        {
          "internalType": "address",
          "name": "account",
          "type": "address"
        }
      ],
      "name": "balanceOf",
      "outputs": [
        {
          "internalType": "uint256",
          "name": "",
          "type": "uint256"
        }
      ],
      "stateMutability": "view",
      "type": "function"
    },
    {
      "inputs": [],
      "name": "decimals",
      "outputs": [
        {
          "internalType": "uint8",
          "name": "",
          "type": "uint8"
        }
      ],
      "stateMutability": "view",
      "type": "function"
    },
    {
      "inputs": [
        {
          "internalType": "address",
          "name": "spender",
          "type": "address"
        },
        {
          "internalType": "uint256",
          "name": "subtractedValue",
          "type": "uint256"
        }
      ],
      "name": "decreaseAllowance",
      "outputs": [
        {
          "internalType": "bool",
          "name": "",
          "type": "bool"
        }
      ],
      "stateMutability": "nonpayable",
      "type": "function"
    },
    {
      "inputs": [
        {
          "internalType": "address",
          "name": "spender",
          "type": "address"
        },
        {
          "internalType": "uint256",
          "name": "addedValue",
          "type": "uint256"
        }
      ],
      "name": "increaseAllowance",
      "outputs": [
        {
          "internalType": "bool",
          "name": "",
          "type": "bool"
        }
      ],
      "stateMutability": "nonpayable",
      "type": "function"
    },
    {
      "inputs": [],
      "name": "maxSupply",
      "outputs": [
        {
          "internalType": "uint256",
          "name": "",
          "type": "uint256"
        }
      ],
      "stateMutability": "view",
      "type": "function"
    },
    {
      "inputs": [],
      "name": "name",
      "outputs": [
        {
          "internalType": "string",
          "name": "",
          "type": "string"
        }
      ],
      "stateMutability": "view",
      "type": "function"
    },
    {
      "inputs": [],
      "name": "owner",
      "outputs": [
        {
          "internalType": "address",
          "name": "",
          "type": "address"
        }
      ],
      "stateMutability": "view",
      "type": "function"
    },
    {
      "inputs": [],
      "name": "supply",
      "outputs": [
        {
          "internalType": "uint256",
          "name": "",
          "type": "uint256"
        }
      ],
      "stateMutability": "view",
      "type": "function"
    },
    {
      "inputs": [],
      "name": "symbol",
      "outputs": [
        {
          "internalType": "string",
          "name": "",
          "type": "string"
        }
      ],
      "stateMutability": "view",
      "type": "function"
    },
    {
      "inputs": [],
      "name": "totalSupply",
      "outputs": [
        {
          "internalType": "uint256",
          "name": "",
          "type": "uint256"
        }
      ],
      "stateMutability": "view",
      "type": "function"
    },
    {
      "inputs": [
        {
          "internalType": "address",
          "name": "recipient",
          "type": "address"
        },
        {
          "internalType": "uint256",
          "name": "amount",
          "type": "uint256"
        }
      ],
      "name": "transfer",
      "outputs": [
        {
          "internalType": "bool",
          "name": "",
          "type": "bool"
        }
      ],
      "stateMutability": "nonpayable",
      "type": "function"
    },
    {
      "inputs": [
        {
          "internalType": "address",
          "name": "sender",
          "type": "address"
        },
        {
          "internalType": "address",
          "name": "recipient",
          "type": "address"
        },
        {
          "internalType": "uint256",
          "name": "amount",
          "type": "uint256"
        }
      ],
      "name": "transferFrom",
      "outputs": [
        {
          "internalType": "bool",
          "name": "",
          "type": "bool"
        }
      ],
      "stateMutability": "nonpayable",
      "type": "function"
    },
    {
      "inputs": [
        {
          "internalType": "address",
          "name": "to",
          "type": "address"
        },
        {
          "internalType": "uint256",
          "name": "amount",
          "type": "uint256"
        }
      ],
      "name": "mint",
      "outputs": [],
      "stateMutability": "nonpayable",
      "type": "function"
    }
  ],
  "bytecode": "0x60806040526a115eec47f6cf7e3500000060065560006007553480156200002557600080fd5b5060405162001159380380620011598339810160408190526200004891620002db565b6040518060400160405280601381526020017f5061746f2056657264652050726f6a65637473000000000000000000000000008152506040518060400160405280600381526020017f50565000000000000000000000000000000000000000000000000000000000008152508160039080519060200190620000cc92919062000235565b508051620000e290600490602084019062000235565b506a084595161401484a0000009150620001089050828264010000000062000122810204565b505060058054600160a060020a03191633179055620003df565b600160a060020a0382166200016e576040517f08c379a000000000000000000000000000000000000000000000000000000000815260040162000165906200030b565b60405180910390fd5b620001856000838364010000000062000230810204565b80600260008282546200019991906200034b565b9091555050600160a060020a03821660009081526020819052604081208054839290620001c89084906200034b565b9091555050604051600160a060020a038316906000907fddf252ad1be2c89b69c2b068fc378daa952ba7f163c4a11628f55a4df523b3ef906200020d90859062000342565b60405180910390a36200022c6000838364010000000062000230810204565b5050565b505050565b828054620002439062000389565b90600052602060002090601f016020900481019282620002675760008555620002b2565b82601f106200028257805160ff1916838001178555620002b2565b82800160010185558215620002b2579182015b82811115620002b257825182559160200191906001019062000295565b50620002c0929150620002c4565b5090565b5b80821115620002c05760008155600101620002c5565b600060208284031215620002ed578081fd5b8151600160a060020a038116811462000304578182fd5b9392505050565b6020808252601f908201527f45524332303a206d696e7420746f20746865207a65726f206164647265737300604082015260600190565b90815260200190565b6000821982111562000384577f4e487b710000000000000000000000000000000000000000000000000000000081526011600452602481fd5b500190565b6002810460018216806200039e57607f821691505b60208210811415620003d9577f4e487b7100000000000000000000000000000000000000000000000000000000600052602260045260246000fd5b50919050565b610d6a80620003ef6000396000f3fe608060405234801561001057600080fd5b5060043610610112576000357c01000000000000000000000000000000000000000000000000000000009004806340c10f19116100b4578063a457c2d711610083578063a457c2d7146101f2578063a9059cbb14610205578063d5abeb0114610218578063dd62ed3e1461022057610112565b806340c10f19146101ad57806370a08231146101c25780638da5cb5b146101d557806395d89b41146101ea57610112565b806318160ddd116100f057806318160ddd1461016a57806323b872dd14610172578063313ce56714610185578063395093511461019a57610112565b8063047fc9aa1461011757806306fdde0314610135578063095ea7b31461014a575b600080fd5b61011f610233565b60405161012c9190610c8c565b60405180910390f35b61013d610239565b60405161012c9190610909565b61015d6101583660046108c1565b6102cb565b60405161012c91906108fe565b61011f6102e8565b61015d610180366004610886565b6102ee565b61018d61038a565b60405161012c9190610c95565b61015d6101a83660046108c1565b61038f565b6101c06101bb3660046108c1565b6103e3565b005b61011f6101d0366004610833565b610461565b6101dd610480565b60405161012c91906108ea565b61013d61048f565b61015d6102003660046108c1565b61049e565b61015d6102133660046108c1565b61051a565b61011f61052e565b61011f61022e366004610854565b610534565b60075481565b60606003805461024890610ce0565b80601f016020809104026020016040519081016040528092919081815260200182805461027490610ce0565b80156102c15780601f10610296576101008083540402835291602001916102c1565b820191906000526020600020905b8154815290600101906020018083116102a457829003601f168201915b5050505050905090565b60006102df6102d861055f565b8484610563565b50600192915050565b60025490565b60006102fb84848461061d565b600160a060020a03841660009081526001602052604081208161031c61055f565b600160a060020a0316600160a060020a031681526020019081526020016000205490508281101561036b5760405160e560020a62461bcd02815260040161036290610aaa565b60405180910390fd5b61037f8561037761055f565b858403610563565b506001949350505050565b601290565b60006102df61039c61055f565b8484600160006103aa61055f565b600160a060020a03908116825260208083019390935260409182016000908120918b16815292529020546103de9190610ca3565b610563565b600554600160a060020a031633146104105760405160e560020a62461bcd02815260040161036290610a73565b600654816007546104219190610ca3565b11156104425760405160e560020a62461bcd02815260040161036290610b07565b806007546104509190610ca3565b60075561045d8282610750565b5050565b600160a060020a0381166000908152602081905260409020545b919050565b600554600160a060020a031681565b60606004805461024890610ce0565b600080600160006104ad61055f565b600160a060020a03908116825260208083019390935260409182016000908120918816815292529020549050828110156104fc5760405160e560020a62461bcd02815260040161036290610bf8565b61051061050761055f565b85858403610563565b5060019392505050565b60006102df61052761055f565b848461061d565b60065481565b600160a060020a03918216600090815260016020908152604080832093909416825291909152205490565b3390565b600160a060020a03831661058c5760405160e560020a62461bcd02815260040161036290610b9b565b600160a060020a0382166105b55760405160e560020a62461bcd028152600401610362906109b9565b600160a060020a0380841660008181526001602090815260408083209487168084529490915290819020849055517f8c5be1e5ebec7d5bd14f71427d1e84f3dd0314c0f7b2291e5b200ac8c7c3b92590610610908590610c8c565b60405180910390a3505050565b600160a060020a0383166106465760405160e560020a62461bcd02815260040161036290610b3e565b600160a060020a03821661066f5760405160e560020a62461bcd0281526004016103629061095c565b61067a838383610817565b600160a060020a038316600090815260208190526040902054818110156106b65760405160e560020a62461bcd02815260040161036290610a16565b600160a060020a038085166000908152602081905260408082208585039055918516815290812080548492906106ed908490610ca3565b9250508190555082600160a060020a031684600160a060020a03167fddf252ad1be2c89b69c2b068fc378daa952ba7f163c4a11628f55a4df523b3ef846040516107379190610c8c565b60405180910390a361074a848484610817565b50505050565b600160a060020a0382166107795760405160e560020a62461bcd02815260040161036290610c55565b61078560008383610817565b80600260008282546107979190610ca3565b9091555050600160a060020a038216600090815260208190526040812080548392906107c4908490610ca3565b9091555050604051600160a060020a038316906000907fddf252ad1be2c89b69c2b068fc378daa952ba7f163c4a11628f55a4df523b3ef90610807908590610c8c565b60405180910390a361045d600083835b505050565b8035600160a060020a038116811461047b57600080fd5b600060208284031215610844578081fd5b61084d8261081c565b9392505050565b60008060408385031215610866578081fd5b61086f8361081c565b915061087d6020840161081c565b90509250929050565b60008060006060848603121561089a578081fd5b6108a38461081c565b92506108b16020850161081c565b9150604084013590509250925092565b600080604083850312156108d3578182fd5b6108dc8361081c565b946020939093013593505050565b600160a060020a0391909116815260200190565b901515815260200190565b6000602080835283518082850152825b8181101561093557858101830151858201604001528201610919565b818111156109465783604083870101525b50601f01601f1916929092016040019392505050565b60208082526023908201527f45524332303a207472616e7366657220746f20746865207a65726f206164647260408201527f6573730000000000000000000000000000000000000000000000000000000000606082015260800190565b60208082526022908201527f45524332303a20617070726f766520746f20746865207a65726f20616464726560408201527f7373000000000000000000000000000000000000000000000000000000000000606082015260800190565b60208082526026908201527f45524332303a207472616e7366657220616d6f756e742065786365656473206260408201527f616c616e63650000000000000000000000000000000000000000000000000000606082015260800190565b6020808252600f908201527f4d696e743a206f6e6c794f576e65720000000000000000000000000000000000604082015260600190565b60208082526028908201527f45524332303a207472616e7366657220616d6f756e742065786365656473206160408201527f6c6c6f77616e6365000000000000000000000000000000000000000000000000606082015260800190565b60208082526014908201527f4d617820737570706c7920616c63616e7a61646f000000000000000000000000604082015260600190565b60208082526025908201527f45524332303a207472616e736665722066726f6d20746865207a65726f20616460408201527f6472657373000000000000000000000000000000000000000000000000000000606082015260800190565b60208082526024908201527f45524332303a20617070726f76652066726f6d20746865207a65726f2061646460408201527f7265737300000000000000000000000000000000000000000000000000000000606082015260800190565b60208082526025908201527f45524332303a2064656372656173656420616c6c6f77616e63652062656c6f7760408201527f207a65726f000000000000000000000000000000000000000000000000000000606082015260800190565b6020808252601f908201527f45524332303a206d696e7420746f20746865207a65726f206164647265737300604082015260600190565b90815260200190565b60ff91909116815260200190565b60008219821115610cdb577f4e487b710000000000000000000000000000000000000000000000000000000081526011600452602481fd5b500190565b600281046001821680610cf457607f821691505b60208210811415610d2e577f4e487b7100000000000000000000000000000000000000000000000000000000600052602260045260246000fd5b5091905056fea26469706673582212202994001ec0e6368ee3c7ca44539c1199b26070dfcf0426dc2ebcf3f884cc945b64736f6c63430008000033",
  "immutableReferences": {},
  "source": "// SPDX-License-Identifier: MIT\npragma solidity >=0.4.22 <0.9.0;\n\nimport \"@openzeppelin/contracts/token/ERC20/ERC20.sol\";\n\n//import \"../contracts/TransactionFee.sol\";\n\ncontract PatoVerde is ERC20 {\n\n  \n  address public owner;\n  uint public maxSupply = 21000000 ether;\n  uint public supply = 0;\n  \n\n  /**\n   * @dev Grants `DEFAULT_ADMIN_ROLE`, `MINTER_ROLE` and `PAUSER_ROLE` to the\n   * account that deploys the contract and mint 1million tokens to master chef address\n   *\n   * See {ERC20-constructor}.\n   */\n  constructor(address masterChef) ERC20('Pato Verde Projects', 'PVP') {\n    uint initial = 10000000 ether;\n    _mint(masterChef, initial);    \n    owner = msg.sender;    \n  }\n\n  /**\n   * @dev Creates `amount` new tokens for `to`.\n   *\n   * See {ERC20-_mint}.\n   *\n   * Requirements:\n   *\n   * - the caller must have the `MINTER_ROLE`.\n   */\n  function mint(address to, uint256 amount) public virtual {    \n    require(msg.sender == owner, \"Mint: onlyOWner\");\n    require((supply + amount) <= maxSupply, \"Max supply alcanzado\");\n    supply = supply + amount;\n    _mint(to, amount);\n  }\n  \n\n}",
  "sourcePath": "/home/guillermo/dapps/patoProyect/blockEnd/contracts/token/PatoVerde.sol",
  "compiler": {
    "name": "solc",
    "version": "0.8.0+commit.c7dfd78e.Emscripten.clang"
  },
  "schemaVersion": "3.4.3",
  "updatedAt": "2021-11-23T14:08:40.085Z",
  "devdoc": {
    "kind": "dev",
    "methods": {
      "allowance(address,address)": {
        "details": "See {IERC20-allowance}."
      },
      "approve(address,uint256)": {
        "details": "See {IERC20-approve}. Requirements: - `spender` cannot be the zero address."
      },
      "balanceOf(address)": {
        "details": "See {IERC20-balanceOf}."
      },
      "constructor": {
        "details": "Grants `DEFAULT_ADMIN_ROLE`, `MINTER_ROLE` and `PAUSER_ROLE` to the account that deploys the contract and mint 1million tokens to master chef address See {ERC20-constructor}."
      },
      "decimals()": {
        "details": "Returns the number of decimals used to get its user representation. For example, if `decimals` equals `2`, a balance of `505` tokens should be displayed to a user as `5.05` (`505 / 10 ** 2`). Tokens usually opt for a value of 18, imitating the relationship between Ether and Wei. This is the value {ERC20} uses, unless this function is overridden; NOTE: This information is only used for _display_ purposes: it in no way affects any of the arithmetic of the contract, including {IERC20-balanceOf} and {IERC20-transfer}."
      },
      "decreaseAllowance(address,uint256)": {
        "details": "Atomically decreases the allowance granted to `spender` by the caller. This is an alternative to {approve} that can be used as a mitigation for problems described in {IERC20-approve}. Emits an {Approval} event indicating the updated allowance. Requirements: - `spender` cannot be the zero address. - `spender` must have allowance for the caller of at least `subtractedValue`."
      },
      "increaseAllowance(address,uint256)": {
        "details": "Atomically increases the allowance granted to `spender` by the caller. This is an alternative to {approve} that can be used as a mitigation for problems described in {IERC20-approve}. Emits an {Approval} event indicating the updated allowance. Requirements: - `spender` cannot be the zero address."
      },
      "mint(address,uint256)": {
        "details": "Creates `amount` new tokens for `to`. See {ERC20-_mint}. Requirements: - the caller must have the `MINTER_ROLE`."
      },
      "name()": {
        "details": "Returns the name of the token."
      },
      "symbol()": {
        "details": "Returns the symbol of the token, usually a shorter version of the name."
      },
      "totalSupply()": {
        "details": "See {IERC20-totalSupply}."
      },
      "transfer(address,uint256)": {
        "details": "See {IERC20-transfer}. Requirements: - `recipient` cannot be the zero address. - the caller must have a balance of at least `amount`."
      },
      "transferFrom(address,address,uint256)": {
        "details": "See {IERC20-transferFrom}. Emits an {Approval} event indicating the updated allowance. This is not required by the EIP. See the note at the beginning of {ERC20}. Requirements: - `sender` and `recipient` cannot be the zero address. - `sender` must have a balance of at least `amount`. - the caller must have allowance for ``sender``'s tokens of at least `amount`."
      }
    },
    "version": 1
  },
  "userdoc": {
    "kind": "user",
    "methods": {},
    "version": 1
  }
}