{
  "contractName": "PCMToken",
  "abi": [
    {
      "inputs": [
        {
          "internalType": "address",
          "name": "masterChef",
          "type": "address"
        }
      ],
      "stateMutability": "nonpayable",
      "type": "constructor"
    },
    {
      "anonymous": false,
      "inputs": [
        {
          "indexed": true,
          "internalType": "address",
          "name": "owner",
          "type": "address"
        },
        {
          "indexed": true,
          "internalType": "address",
          "name": "spender",
          "type": "address"
        },
        {
          "indexed": false,
          "internalType": "uint256",
          "name": "value",
          "type": "uint256"
        }
      ],
      "name": "Approval",
      "type": "event"
    },
    {
      "anonymous": false,
      "inputs": [
        {
          "indexed": false,
          "internalType": "address",
          "name": "account",
          "type": "address"
        }
      ],
      "name": "Paused",
      "type": "event"
    },
    {
      "anonymous": false,
      "inputs": [
        {
          "indexed": true,
          "internalType": "bytes32",
          "name": "role",
          "type": "bytes32"
        },
        {
          "indexed": true,
          "internalType": "bytes32",
          "name": "previousAdminRole",
          "type": "bytes32"
        },
        {
          "indexed": true,
          "internalType": "bytes32",
          "name": "newAdminRole",
          "type": "bytes32"
        }
      ],
      "name": "RoleAdminChanged",
      "type": "event"
    },
    {
      "anonymous": false,
      "inputs": [
        {
          "indexed": true,
          "internalType": "bytes32",
          "name": "role",
          "type": "bytes32"
        },
        {
          "indexed": true,
          "internalType": "address",
          "name": "account",
          "type": "address"
        },
        {
          "indexed": true,
          "internalType": "address",
          "name": "sender",
          "type": "address"
        }
      ],
      "name": "RoleGranted",
      "type": "event"
    },
    {
      "anonymous": false,
      "inputs": [
        {
          "indexed": true,
          "internalType": "bytes32",
          "name": "role",
          "type": "bytes32"
        },
        {
          "indexed": true,
          "internalType": "address",
          "name": "account",
          "type": "address"
        },
        {
          "indexed": true,
          "internalType": "address",
          "name": "sender",
          "type": "address"
        }
      ],
      "name": "RoleRevoked",
      "type": "event"
    },
    {
      "anonymous": false,
      "inputs": [
        {
          "indexed": true,
          "internalType": "address",
          "name": "from",
          "type": "address"
        },
        {
          "indexed": true,
          "internalType": "address",
          "name": "to",
          "type": "address"
        },
        {
          "indexed": false,
          "internalType": "uint256",
          "name": "value",
          "type": "uint256"
        }
      ],
      "name": "Transfer",
      "type": "event"
    },
    {
      "anonymous": false,
      "inputs": [
        {
          "indexed": false,
          "internalType": "address",
          "name": "account",
          "type": "address"
        }
      ],
      "name": "Unpaused",
      "type": "event"
    },
    {
      "inputs": [],
      "name": "DEFAULT_ADMIN_ROLE",
      "outputs": [
        {
          "internalType": "bytes32",
          "name": "",
          "type": "bytes32"
        }
      ],
      "stateMutability": "view",
      "type": "function"
    },
    {
      "inputs": [],
      "name": "DEVELOPER_ROLE",
      "outputs": [
        {
          "internalType": "bytes32",
          "name": "",
          "type": "bytes32"
        }
      ],
      "stateMutability": "view",
      "type": "function"
    },
    {
      "inputs": [],
      "name": "MINTER_ROLE",
      "outputs": [
        {
          "internalType": "bytes32",
          "name": "",
          "type": "bytes32"
        }
      ],
      "stateMutability": "view",
      "type": "function"
    },
    {
      "inputs": [],
      "name": "PAUSER_ROLE",
      "outputs": [
        {
          "internalType": "bytes32",
          "name": "",
          "type": "bytes32"
        }
      ],
      "stateMutability": "view",
      "type": "function"
    },
    {
      "inputs": [
        {
          "internalType": "address",
          "name": "_wallet",
          "type": "address"
        }
      ],
      "name": "addDev",
      "outputs": [],
      "stateMutability": "nonpayable",
      "type": "function"
    },
    {
      "inputs": [
        {
          "internalType": "address",
          "name": "owner",
          "type": "address"
        },
        {
          "internalType": "address",
          "name": "spender",
          "type": "address"
        }
      ],
      "name": "allowance",
      "outputs": [
        {
          "internalType": "uint256",
          "name": "",
          "type": "uint256"
        }
      ],
      "stateMutability": "view",
      "type": "function"
    },
    {
      "inputs": [
        {
          "internalType": "address",
          "name": "spender",
          "type": "address"
        },
        {
          "internalType": "uint256",
          "name": "amount",
          "type": "uint256"
        }
      ],
      "name": "approve",
      "outputs": [
        {
          "internalType": "bool",
          "name": "",
          "type": "bool"
        }
      ],
      "stateMutability": "nonpayable",
      "type": "function"
    },
    {
      "inputs": [
        {
          "internalType": "address",
          "name": "account",
          "type": "address"
        }
      ],
      "name": "balanceOf",
      "outputs": [
        {
          "internalType": "uint256",
          "name": "",
          "type": "uint256"
        }
      ],
      "stateMutability": "view",
      "type": "function"
    },
    {
      "inputs": [
        {
          "internalType": "uint256",
          "name": "amount",
          "type": "uint256"
        }
      ],
      "name": "burn",
      "outputs": [],
      "stateMutability": "nonpayable",
      "type": "function"
    },
    {
      "inputs": [
        {
          "internalType": "address",
          "name": "account",
          "type": "address"
        },
        {
          "internalType": "uint256",
          "name": "amount",
          "type": "uint256"
        }
      ],
      "name": "burnFrom",
      "outputs": [],
      "stateMutability": "nonpayable",
      "type": "function"
    },
    {
      "inputs": [],
      "name": "decimals",
      "outputs": [
        {
          "internalType": "uint8",
          "name": "",
          "type": "uint8"
        }
      ],
      "stateMutability": "view",
      "type": "function"
    },
    {
      "inputs": [
        {
          "internalType": "address",
          "name": "spender",
          "type": "address"
        },
        {
          "internalType": "uint256",
          "name": "subtractedValue",
          "type": "uint256"
        }
      ],
      "name": "decreaseAllowance",
      "outputs": [
        {
          "internalType": "bool",
          "name": "",
          "type": "bool"
        }
      ],
      "stateMutability": "nonpayable",
      "type": "function"
    },
    {
      "inputs": [],
      "name": "getBurnFee",
      "outputs": [
        {
          "internalType": "uint16",
          "name": "",
          "type": "uint16"
        }
      ],
      "stateMutability": "view",
      "type": "function"
    },
    {
      "inputs": [],
      "name": "getDevsFee",
      "outputs": [
        {
          "internalType": "uint16",
          "name": "",
          "type": "uint16"
        }
      ],
      "stateMutability": "view",
      "type": "function"
    },
    {
      "inputs": [],
      "name": "getHolderFee",
      "outputs": [
        {
          "internalType": "uint16",
          "name": "",
          "type": "uint16"
        }
      ],
      "stateMutability": "view",
      "type": "function"
    },
    {
      "inputs": [
        {
          "internalType": "bytes32",
          "name": "role",
          "type": "bytes32"
        }
      ],
      "name": "getRoleAdmin",
      "outputs": [
        {
          "internalType": "bytes32",
          "name": "",
          "type": "bytes32"
        }
      ],
      "stateMutability": "view",
      "type": "function"
    },
    {
      "inputs": [
        {
          "internalType": "bytes32",
          "name": "role",
          "type": "bytes32"
        },
        {
          "internalType": "uint256",
          "name": "index",
          "type": "uint256"
        }
      ],
      "name": "getRoleMember",
      "outputs": [
        {
          "internalType": "address",
          "name": "",
          "type": "address"
        }
      ],
      "stateMutability": "view",
      "type": "function"
    },
    {
      "inputs": [
        {
          "internalType": "bytes32",
          "name": "role",
          "type": "bytes32"
        }
      ],
      "name": "getRoleMemberCount",
      "outputs": [
        {
          "internalType": "uint256",
          "name": "",
          "type": "uint256"
        }
      ],
      "stateMutability": "view",
      "type": "function"
    },
    {
      "inputs": [],
      "name": "getTransactionFee",
      "outputs": [
        {
          "internalType": "uint16",
          "name": "",
          "type": "uint16"
        }
      ],
      "stateMutability": "view",
      "type": "function"
    },
    {
      "inputs": [
        {
          "internalType": "bytes32",
          "name": "role",
          "type": "bytes32"
        },
        {
          "internalType": "address",
          "name": "account",
          "type": "address"
        }
      ],
      "name": "grantRole",
      "outputs": [],
      "stateMutability": "nonpayable",
      "type": "function"
    },
    {
      "inputs": [
        {
          "internalType": "bytes32",
          "name": "role",
          "type": "bytes32"
        },
        {
          "internalType": "address",
          "name": "account",
          "type": "address"
        }
      ],
      "name": "hasRole",
      "outputs": [
        {
          "internalType": "bool",
          "name": "",
          "type": "bool"
        }
      ],
      "stateMutability": "view",
      "type": "function"
    },
    {
      "inputs": [
        {
          "internalType": "address",
          "name": "spender",
          "type": "address"
        },
        {
          "internalType": "uint256",
          "name": "addedValue",
          "type": "uint256"
        }
      ],
      "name": "increaseAllowance",
      "outputs": [
        {
          "internalType": "bool",
          "name": "",
          "type": "bool"
        }
      ],
      "stateMutability": "nonpayable",
      "type": "function"
    },
    {
      "inputs": [],
      "name": "lastTransfer",
      "outputs": [
        {
          "internalType": "address",
          "name": "",
          "type": "address"
        }
      ],
      "stateMutability": "view",
      "type": "function"
    },
    {
      "inputs": [],
      "name": "name",
      "outputs": [
        {
          "internalType": "string",
          "name": "",
          "type": "string"
        }
      ],
      "stateMutability": "view",
      "type": "function"
    },
    {
      "inputs": [],
      "name": "paused",
      "outputs": [
        {
          "internalType": "bool",
          "name": "",
          "type": "bool"
        }
      ],
      "stateMutability": "view",
      "type": "function"
    },
    {
      "inputs": [
        {
          "internalType": "address",
          "name": "_wallet",
          "type": "address"
        }
      ],
      "name": "removeDev",
      "outputs": [],
      "stateMutability": "nonpayable",
      "type": "function"
    },
    {
      "inputs": [
        {
          "internalType": "bytes32",
          "name": "role",
          "type": "bytes32"
        },
        {
          "internalType": "address",
          "name": "account",
          "type": "address"
        }
      ],
      "name": "renounceRole",
      "outputs": [],
      "stateMutability": "nonpayable",
      "type": "function"
    },
    {
      "inputs": [
        {
          "internalType": "bytes32",
          "name": "role",
          "type": "bytes32"
        },
        {
          "internalType": "address",
          "name": "account",
          "type": "address"
        }
      ],
      "name": "revokeRole",
      "outputs": [],
      "stateMutability": "nonpayable",
      "type": "function"
    },
    {
      "inputs": [
        {
          "internalType": "uint16",
          "name": "_fee",
          "type": "uint16"
        }
      ],
      "name": "setBurnFee",
      "outputs": [],
      "stateMutability": "nonpayable",
      "type": "function"
    },
    {
      "inputs": [
        {
          "internalType": "uint16",
          "name": "_fee",
          "type": "uint16"
        }
      ],
      "name": "setDevsFee",
      "outputs": [],
      "stateMutability": "nonpayable",
      "type": "function"
    },
    {
      "inputs": [
        {
          "internalType": "uint16",
          "name": "_fee",
          "type": "uint16"
        }
      ],
      "name": "setHolderFee",
      "outputs": [],
      "stateMutability": "nonpayable",
      "type": "function"
    },
    {
      "inputs": [
        {
          "internalType": "uint16",
          "name": "_fee",
          "type": "uint16"
        }
      ],
      "name": "setTransactionFee",
      "outputs": [],
      "stateMutability": "nonpayable",
      "type": "function"
    },
    {
      "inputs": [
        {
          "internalType": "bytes4",
          "name": "interfaceId",
          "type": "bytes4"
        }
      ],
      "name": "supportsInterface",
      "outputs": [
        {
          "internalType": "bool",
          "name": "",
          "type": "bool"
        }
      ],
      "stateMutability": "view",
      "type": "function"
    },
    {
      "inputs": [],
      "name": "symbol",
      "outputs": [
        {
          "internalType": "string",
          "name": "",
          "type": "string"
        }
      ],
      "stateMutability": "view",
      "type": "function"
    },
    {
      "inputs": [],
      "name": "totalSupply",
      "outputs": [
        {
          "internalType": "uint256",
          "name": "",
          "type": "uint256"
        }
      ],
      "stateMutability": "view",
      "type": "function"
    },
    {
      "inputs": [
        {
          "internalType": "address",
          "name": "recipient",
          "type": "address"
        },
        {
          "internalType": "uint256",
          "name": "amount",
          "type": "uint256"
        }
      ],
      "name": "transfer",
      "outputs": [
        {
          "internalType": "bool",
          "name": "",
          "type": "bool"
        }
      ],
      "stateMutability": "nonpayable",
      "type": "function"
    },
    {
      "inputs": [
        {
          "internalType": "address",
          "name": "sender",
          "type": "address"
        },
        {
          "internalType": "address",
          "name": "recipient",
          "type": "address"
        },
        {
          "internalType": "uint256",
          "name": "amount",
          "type": "uint256"
        }
      ],
      "name": "transferFrom",
      "outputs": [
        {
          "internalType": "bool",
          "name": "",
          "type": "bool"
        }
      ],
      "stateMutability": "nonpayable",
      "type": "function"
    },
    {
      "inputs": [
        {
          "internalType": "address",
          "name": "staking",
          "type": "address"
        }
      ],
      "name": "setStakingMinter",
      "outputs": [],
      "stateMutability": "nonpayable",
      "type": "function"
    },
    {
      "inputs": [
        {
          "internalType": "address",
          "name": "to",
          "type": "address"
        },
        {
          "internalType": "uint256",
          "name": "amount",
          "type": "uint256"
        }
      ],
      "name": "mint",
      "outputs": [],
      "stateMutability": "nonpayable",
      "type": "function"
    },
    {
      "inputs": [],
      "name": "pause",
      "outputs": [],
      "stateMutability": "nonpayable",
      "type": "function"
    },
    {
      "inputs": [],
      "name": "unpause",
      "outputs": [],
      "stateMutability": "nonpayable",
      "type": "function"
    },
    {
      "inputs": [],
      "name": "devsGetPaid",
      "outputs": [],
      "stateMutability": "nonpayable",
      "type": "function"
    }
  ],
  "bytecode": "0x608060405260088054604661ffff199091161763ffff0000191663138800001765ffff0000000019166509c4000000001767ffff00000000000019166709c40000000000001790553480156200005457600080fd5b5060405162002b3838038062002b388339810160408190526200007791620005d4565b6040518060400160405280601481526020017f50726f7965637420436f696e204d616e616765720000000000000000000000008152506040518060400160405280600381526020017f50434d00000000000000000000000000000000000000000000000000000000008152508160039080519060200190620000fb9291906200052e565b508051620001119060049060208401906200052e565b50506005805460ff1916905550620001657f4504b9dfd7400a1522f49a8b4a100552da9236849581fd59b7363eb48c6a474c620001566401000000006200025e810204565b64010000000062000262810204565b6954b40b1f852bda000000620001858282640100000000620002a9810204565b6200019e6000620001566401000000006200025e810204565b620001d67f9f2df0fed2c77648de5860a4cc508cd0818c85b8b8a1ab4ceeef8d981c8956a6620001566401000000006200025e810204565b6200020e7f65d7a28e3265b37a6474929f336521b332c1681b933f6cb9f3376673440d862a620001566401000000006200025e810204565b6008805460e060020a60ff0219169055620002316401000000006200025e810204565b6008806101000a815481600160a060020a030219169083600160a060020a031602179055505050620006d8565b3390565b6200027c828264010000000062000d3c620003b782021704565b6000828152600760205260409020620002a4908264010000000062000d46620003cc82021704565b505050565b600160a060020a038216620002f5576040517f08c379a0000000000000000000000000000000000000000000000000000000008152600401620002ec9062000604565b60405180910390fd5b6200030c60008383640100000000620002a4810204565b806002600082825462000320919062000644565b9091555050600160a060020a038216600090815260208190526040812080548392906200034f90849062000644565b9091555050604051600160a060020a038316906000907fddf252ad1be2c89b69c2b068fc378daa952ba7f163c4a11628f55a4df523b3ef90620003949085906200063b565b60405180910390a3620003b360008383640100000000620002a4810204565b5050565b620003b38282640100000000620003f5810204565b6000620003ec83600160a060020a03841664010000000062000493810204565b90505b92915050565b6200040a8282640100000000620004eb810204565b620003b3576000828152600660209081526040808320600160a060020a03851684529091529020805460ff191660011790556200044f6401000000006200025e810204565b600160a060020a031681600160a060020a0316837f2f8788117e7eff1d82e926ec794901d17c78024a50270940304540a733656f0d60405160405180910390a45050565b6000620004aa838364010000000062000516810204565b620004e257508154600181810184556000848152602080822090930184905584548482528286019093526040902091909155620003ef565b506000620003ef565b6000918252600660209081526040808420600160a060020a0393909316845291905290205460ff1690565b60009081526001919091016020526040902054151590565b8280546200053c9062000682565b90600052602060002090601f016020900481019282620005605760008555620005ab565b82601f106200057b57805160ff1916838001178555620005ab565b82800160010185558215620005ab579182015b82811115620005ab5782518255916020019190600101906200058e565b50620005b9929150620005bd565b5090565b5b80821115620005b95760008155600101620005be565b600060208284031215620005e6578081fd5b8151600160a060020a0381168114620005fd578182fd5b9392505050565b6020808252601f908201527f45524332303a206d696e7420746f20746865207a65726f206164647265737300604082015260600190565b90815260200190565b600082198211156200067d577f4e487b710000000000000000000000000000000000000000000000000000000081526011600452602481fd5b500190565b6002810460018216806200069757607f821691505b60208210811415620006d2577f4e487b7100000000000000000000000000000000000000000000000000000000600052602260045260246000fd5b50919050565b61245080620006e86000396000f3fe608060405234801561001057600080fd5b50600436106102625760003560e060020a9004806385d791021161014a578063b91d3ace116100c7578063dd62ed3e1161008b578063dd62ed3e146104dd578063e63ab1e9146104f0578063e84d2696146104f8578063ee4b430714610500578063ef46a6fc14610513578063faa271ff1461051b57610262565b8063b91d3ace14610489578063c4026d7b1461049c578063ca15c873146104af578063d5391393146104c2578063d547741f146104ca57610262565b8063a217fddf1161010e578063a217fddf14610440578063a457c2d714610448578063a9059cbb1461045b578063aa4b10d11461046e578063b45940f21461047657610262565b806385d79102146103f55780639010d07c146103fd5780639103a0e01461041d57806391d148541461042557806395d89b411461043857610262565b80633f4ba83a116101e35780634f480bab116101a75780634f480bab146103995780635c975abb146103ac57806370a08231146103b457806371867b23146103c757806379cc6790146103da5780638456cb59146103ed57610262565b80633f4ba83a1461034357806340c10f191461034b57806342966c681461035e57806346e509941461037157806349de5f871461038657610262565b8063248a9ca31161022a578063248a9ca3146102e05780632f2ff15d146102f3578063313ce5671461030857806336568abe1461031d578063395093511461033057610262565b806301ffc9a71461026757806306fdde0314610290578063095ea7b3146102a557806318160ddd146102b857806323b872dd146102cd575b600080fd5b61027a610275366004611afc565b610523565b6040516102879190611bdb565b60405180910390f35b610298610569565b6040516102879190611bef565b61027a6102b3366004611a78565b6105fb565b6102c0610619565b6040516102879190611be6565b61027a6102db366004611a3d565b61061f565b6102c06102ee366004611aa1565b6106bb565b610306610301366004611ab9565b6106d0565b005b6103106106f7565b60405161028791906122c6565b61030661032b366004611ab9565b6106fc565b61027a61033e366004611a78565b61071e565b610306610772565b610306610359366004611a78565b6107c7565b61030661036c366004611aa1565b610820565b610379610834565b60405161028791906122b7565b610306610394366004611b24565b610846565b6103066103a73660046119f1565b610866565b61027a61091a565b6102c06103c23660046119f1565b610923565b6103066103d5366004611b24565b61093e565b6103066103e8366004611a78565b610962565b6103066109b3565b610379610a06565b61041061040b366004611adb565b610a10565b6040516102879190611bc7565b6102c0610a2f565b61027a610433366004611ab9565b610a41565b610298610a6c565b6102c0610a7b565b61027a610456366004611a78565b610a80565b61027a610469366004611a78565b610afc565b610379610b10565b610306610484366004611b24565b610b20565b6103066104973660046119f1565b610b38565b6103066104aa3660046119f1565b610b50565b6102c06104bd366004611aa1565b610b68565b6102c0610b7f565b6103066104d8366004611ab9565b610ba3565b6102c06104eb366004611a0b565b610bad565b6102c0610bd8565b610410610bfc565b61030661050e366004611b24565b610c17565b610306610c3f565b610379610d28565b6000600160e060020a031982167f5a05180f000000000000000000000000000000000000000000000000000000001480610561575061056182610d5b565b90505b919050565b60606003805461057890612388565b80601f01602080910402602001604051908101604052809291908181526020018280546105a490612388565b80156105f15780601f106105c6576101008083540402835291602001916105f1565b820191906000526020600020905b8154815290600101906020018083116105d457829003601f168201915b5050505050905090565b600061060f610608610d99565b8484610d9d565b5060015b92915050565b60025490565b600061062c848484610e57565b600160a060020a03841660009081526001602052604081208161064d610d99565b600160a060020a0316600160a060020a031681526020019081526020016000205490508281101561069c5760405160e560020a62461bcd02815260040161069390611ede565b60405180910390fd5b6106b0856106a8610d99565b858403610d9d565b506001949350505050565b60009081526006602052604090206001015490565b6106da8282610f83565b60008281526007602052604090206106f29082610d46565b505050565b601290565b6107068282610fa7565b60008281526007602052604090206106f29082610fec565b600061060f61072b610d99565b848460016000610739610d99565b600160a060020a03908116825260208083019390935260409182016000908120918b168152925290205461076d91906122d4565b610d9d565b61079e7f65d7a28e3265b37a6474929f336521b332c1681b933f6cb9f3376673440d862a610433610d99565b6107bd5760405160e560020a62461bcd02815260040161069390611f98565b6107c5611001565b565b6107f37f9f2df0fed2c77648de5860a4cc508cd0818c85b8b8a1ab4ceeef8d981c8956a6610433610d99565b6108125760405160e560020a62461bcd0281526004016106939061210c565b61081c8282611072565b5050565b61083161082b610d99565b8261113d565b50565b600854640100000000900461ffff1690565b6008805461ffff909216620100000263ffff000019909216919091179055565b6108736000610433610d99565b6108925760405160e560020a62461bcd02815260040161069390611e70565b60085460e060020a900460ff16156108bf5760405160e560020a62461bcd02815260040161069390611ceb565b6108e97f9f2df0fed2c77648de5860a4cc508cd0818c85b8b8a1ab4ceeef8d981c8956a682611234565b50600880547fffffff00ffffffffffffffffffffffffffffffffffffffffffffffffffffffff1660e060020a179055565b60055460ff1690565b600160a060020a031660009081526020819052604090205490565b6008805461ffff9092166401000000000265ffff0000000019909216919091179055565b6000610970836104eb610d99565b9050818110156109955760405160e560020a62461bcd02815260040161069390611f3b565b6109a9836109a1610d99565b848403610d9d565b6106f2838361113d565b6109df7f65d7a28e3265b37a6474929f336521b332c1681b933f6cb9f3376673440d862a610433610d99565b6109fe5760405160e560020a62461bcd02815260040161069390612169565b6107c561123e565b60085461ffff1690565b6000828152600760205260408120610a28908361129c565b9392505050565b6000805160206123fb83398151915281565b6000918252600660209081526040808420600160a060020a0393909316845291905290205460ff1690565b60606004805461057890612388565b600081565b60008060016000610a8f610d99565b600160a060020a0390811682526020808301939093526040918201600090812091881681529252902054905082811015610ade5760405160e560020a62461bcd028152600401610693906121c6565b610af2610ae9610d99565b85858403610d9d565b5060019392505050565b600061060f610b09610d99565b8484610e57565b60085462010000900461ffff1690565b6008805461ffff191661ffff92909216919091179055565b6108316000805160206123fb833981519152826106d0565b6108316000805160206123fb83398151915282610ba3565b6000818152600760205260408120610561906112a8565b7f9f2df0fed2c77648de5860a4cc508cd0818c85b8b8a1ab4ceeef8d981c8956a681565b61070682826112b3565b600160a060020a03918216600090815260016020908152604080832093909416825291909152205490565b7f65d7a28e3265b37a6474929f336521b332c1681b933f6cb9f3376673440d862a81565b600854680100000000000000009004600160a060020a031681565b6008805461ffff90921666010000000000000267ffff00000000000019909216919091179055565b6000610c586000805160206123fb833981519152610b68565b90506000610c64610834565b61ffff1690506000610c74610b10565b61ffff1690506000610c8682846122d4565b83610c9030610923565b610c9a919061230f565b610ca491906122ec565b9050670de0b6b3a76400008111610cd05760405160e560020a62461bcd02815260040161069390611e39565b60005b84811015610d0f57610cfd30610cf76000805160206123fb83398151915284610a10565b846112d2565b80610d07816123c6565b915050610cd3565b50610d2230610d1d30610923565b61113d565b50505050565b6008546601000000000000900461ffff1690565b61081c82826113ff565b6000610a2883600160a060020a038416611486565b6000600160e060020a031982167f7965db0b0000000000000000000000000000000000000000000000000000000014806105615750610561826114d0565b3390565b600160a060020a038316610dc65760405160e560020a62461bcd028152600401610693906120af565b600160a060020a038216610def5760405160e560020a62461bcd02815260040161069390611d7f565b600160a060020a0380841660008181526001602090815260408083209487168084529490915290819020849055517f8c5be1e5ebec7d5bd14f71427d1e84f3dd0314c0f7b2291e5b200ac8c7c3b92590610e4a908590611be6565b60405180910390a3505050565b6000612710610e64610a06565b610e729061ffff168461230f565b610e7c91906122ec565b90506000612710610e8b610b10565b610e999061ffff168461230f565b610ea391906122ec565b90506000612710610eb2610834565b610ec09061ffff168561230f565b610eca91906122ec565b90506000612710610ed9610d28565b610ee79061ffff168661230f565b610ef191906122ec565b9050610f078730610f0285876122d4565b6112d2565b610f258760088054906101000a9004600160a060020a0316836112d2565b600880547fffffffff0000000000000000000000000000000000000000ffffffffffffffff1668010000000000000000600160a060020a038a1602179055610f6d848661232e565b9450610f7a8787876112d2565b50505050505050565b610f8c826106bb565b610f9d81610f98610d99565b611502565b6106f283836113ff565b610faf610d99565b600160a060020a031681600160a060020a031614610fe25760405160e560020a62461bcd02815260040161069390612223565b61081c8282611569565b6000610a2883600160a060020a0384166115ee565b61100961091a565b6110285760405160e560020a62461bcd02815260040161069390611cb4565b6005805460ff191690557f5db9ee0a495bf2e6ff9c91a7834c1ba4fdd244a5e8aa4e537bd38aeae4b073aa61105b610d99565b6040516110689190611bc7565b60405180910390a1565b600160a060020a03821661109b5760405160e560020a62461bcd02815260040161069390612280565b6110a7600083836106f2565b80600260008282546110b991906122d4565b9091555050600160a060020a038216600090815260208190526040812080548392906110e69084906122d4565b9091555050604051600160a060020a038316906000907fddf252ad1be2c89b69c2b068fc378daa952ba7f163c4a11628f55a4df523b3ef90611129908590611be6565b60405180910390a361081c600083836106f2565b600160a060020a0382166111665760405160e560020a62461bcd02815260040161069390611ff5565b611172826000836106f2565b600160a060020a038216600090815260208190526040902054818110156111ae5760405160e560020a62461bcd02815260040161069390611d22565b600160a060020a03831660009081526020819052604081208383039055600280548492906111dd90849061232e565b9091555050604051600090600160a060020a038516907fddf252ad1be2c89b69c2b068fc378daa952ba7f163c4a11628f55a4df523b3ef90611220908690611be6565b60405180910390a36106f2836000846106f2565b6106da8282610d3c565b61124661091a565b156112665760405160e560020a62461bcd02815260040161069390611ea7565b6005805460ff191660011790557f62e78cea01bee320cd4e420270b5ea74000d11b0c9f74754ebdbfc544b05a25861105b610d99565b6000610a288383611714565b60006105618261174f565b6112bc826106bb565b6112c881610f98610d99565b6106f28383611569565b600160a060020a0383166112fb5760405160e560020a62461bcd02815260040161069390612052565b600160a060020a0382166113245760405160e560020a62461bcd02815260040161069390611c57565b61132f8383836106f2565b600160a060020a0383166000908152602081905260409020548181101561136b5760405160e560020a62461bcd02815260040161069390611ddc565b600160a060020a038085166000908152602081905260408082208585039055918516815290812080548492906113a29084906122d4565b9250508190555082600160a060020a031684600160a060020a03167fddf252ad1be2c89b69c2b068fc378daa952ba7f163c4a11628f55a4df523b3ef846040516113ec9190611be6565b60405180910390a3610d228484846106f2565b6114098282610a41565b61081c576000828152600660209081526040808320600160a060020a03851684529091529020805460ff19166001179055611442610d99565b600160a060020a031681600160a060020a0316837f2f8788117e7eff1d82e926ec794901d17c78024a50270940304540a733656f0d60405160405180910390a45050565b60006114928383611753565b6114c857508154600181810184556000848152602080822090930184905584548482528286019093526040902091909155610613565b506000610613565b600160e060020a031981167f01ffc9a70000000000000000000000000000000000000000000000000000000014919050565b61150c8282610a41565b61081c5761152481600160a060020a0316601461176b565b61152f83602061176b565b604051602001611540929190611b46565b60408051601f198184030181529082905260e560020a62461bcd02825261069391600401611bef565b6115738282610a41565b1561081c576000828152600660209081526040808320600160a060020a03851684529091529020805460ff191690556115aa610d99565b600160a060020a031681600160a060020a0316837ff6391f5c32d9c69d2a47ea670b442974b53935d1edc7fd64eb21e047a839171b60405160405180910390a45050565b6000818152600183016020526040812054801561170a57600061161260018361232e565b85549091506000906116269060019061232e565b90508181146116ad5760008660000182815481106116575760e060020a634e487b7102600052603260045260246000fd5b906000526020600020015490508087600001848154811061168b5760e060020a634e487b7102600052603260045260246000fd5b6000918252602080832090910192909255918252600188019052604090208390555b85548690806116cf5760e060020a634e487b7102600052603160045260246000fd5b600190038181906000526020600020016000905590558560010160008681526020019081526020016000206000905560019350505050610613565b6000915050610613565b600082600001828154811061173c5760e060020a634e487b7102600052603260045260246000fd5b9060005260206000200154905092915050565b5490565b60009081526001919091016020526040902054151590565b6060600061177a83600261230f565b6117859060026122d4565b67ffffffffffffffff8111156117ae5760e060020a634e487b7102600052604160045260246000fd5b6040519080825280601f01601f1916602001820160405280156117d8576020820181803683370190505b5090507f3000000000000000000000000000000000000000000000000000000000000000816000815181106118205760e060020a634e487b7102600052603260045260246000fd5b60200101907effffffffffffffffffffffffffffffffffffffffffffffffffffffffffffff1916908160001a9053507f7800000000000000000000000000000000000000000000000000000000000000816001815181106118945760e060020a634e487b7102600052603260045260246000fd5b60200101907effffffffffffffffffffffffffffffffffffffffffffffffffffffffffffff1916908160001a90535060006118d084600261230f565b6118db9060016122d4565b90505b60018111156119b8577f303132333435363738396162636465660000000000000000000000000000000085600f166010811061192d5760e060020a634e487b7102600052603260045260246000fd5b1a7f0100000000000000000000000000000000000000000000000000000000000000028282815181106119735760e060020a634e487b7102600052603260045260246000fd5b60200101907effffffffffffffffffffffffffffffffffffffffffffffffffffffffffffff1916908160001a9053506010909404936119b181612371565b90506118de565b508315610a285760405160e560020a62461bcd02815260040161069390611c22565b8035600160a060020a038116811461056457600080fd5b600060208284031215611a02578081fd5b610a28826119da565b60008060408385031215611a1d578081fd5b611a26836119da565b9150611a34602084016119da565b90509250929050565b600080600060608486031215611a51578081fd5b611a5a846119da565b9250611a68602085016119da565b9150604084013590509250925092565b60008060408385031215611a8a578182fd5b611a93836119da565b946020939093013593505050565b600060208284031215611ab2578081fd5b5035919050565b60008060408385031215611acb578182fd5b82359150611a34602084016119da565b60008060408385031215611aed578182fd5b50508035926020909101359150565b600060208284031215611b0d578081fd5b8135600160e060020a031981168114610a28578182fd5b600060208284031215611b35578081fd5b813561ffff81168114610a28578182fd5b60007f416363657373436f6e74726f6c3a206163636f756e742000000000000000000082528351611b7e816017850160208801612345565b7f206973206d697373696e6720726f6c65200000000000000000000000000000006017918401918201528351611bbb816028840160208801612345565b01602801949350505050565b600160a060020a0391909116815260200190565b901515815260200190565b90815260200190565b6000602082528251806020840152611c0e816040850160208701612345565b601f01601f19169190910160400192915050565b6020808252818101527f537472696e67733a20686578206c656e67746820696e73756666696369656e74604082015260600190565b60208082526023908201527f45524332303a207472616e7366657220746f20746865207a65726f206164647260408201527f6573730000000000000000000000000000000000000000000000000000000000606082015260800190565b60208082526014908201527f5061757361626c653a206e6f7420706175736564000000000000000000000000604082015260600190565b6020808252601e908201527f546869732066756e6374696f6e20776f6e27742062652063616c6c65642e0000604082015260600190565b60208082526022908201527f45524332303a206275726e20616d6f756e7420657863656564732062616c616e60408201527f6365000000000000000000000000000000000000000000000000000000000000606082015260800190565b60208082526022908201527f45524332303a20617070726f766520746f20746865207a65726f20616464726560408201527f7373000000000000000000000000000000000000000000000000000000000000606082015260800190565b60208082526026908201527f45524332303a207472616e7366657220616d6f756e742065786365656473206260408201527f616c616e63650000000000000000000000000000000000000000000000000000606082015260800190565b60208082526017908201527f4e6f7420656e6f75676820666f722065766572796f6e65000000000000000000604082015260600190565b6020808252600a908201527f6e6f742061646d696e2100000000000000000000000000000000000000000000604082015260600190565b60208082526010908201527f5061757361626c653a2070617573656400000000000000000000000000000000604082015260600190565b60208082526028908201527f45524332303a207472616e7366657220616d6f756e742065786365656473206160408201527f6c6c6f77616e6365000000000000000000000000000000000000000000000000606082015260800190565b60208082526024908201527f45524332303a206275726e20616d6f756e74206578636565647320616c6c6f7760408201527f616e636500000000000000000000000000000000000000000000000000000000606082015260800190565b60208082526029908201527f556e50617573653a206d75737420686176652070617573657220726f6c65207460408201527f6f20756e70617573650000000000000000000000000000000000000000000000606082015260800190565b60208082526021908201527f45524332303a206275726e2066726f6d20746865207a65726f2061646472657360408201527f7300000000000000000000000000000000000000000000000000000000000000606082015260800190565b60208082526025908201527f45524332303a207472616e736665722066726f6d20746865207a65726f20616460408201527f6472657373000000000000000000000000000000000000000000000000000000606082015260800190565b60208082526024908201527f45524332303a20617070726f76652066726f6d20746865207a65726f2061646460408201527f7265737300000000000000000000000000000000000000000000000000000000606082015260800190565b60208082526023908201527f4d696e743a206d7573742068617665206d696e74657220726f6c6520746f206d60408201527f696e740000000000000000000000000000000000000000000000000000000000606082015260800190565b60208082526025908201527f50617573653a206d75737420686176652070617573657220726f6c6520746f2060408201527f7061757365000000000000000000000000000000000000000000000000000000606082015260800190565b60208082526025908201527f45524332303a2064656372656173656420616c6c6f77616e63652062656c6f7760408201527f207a65726f000000000000000000000000000000000000000000000000000000606082015260800190565b6020808252602f908201527f416363657373436f6e74726f6c3a2063616e206f6e6c792072656e6f756e636560408201527f20726f6c657320666f722073656c660000000000000000000000000000000000606082015260800190565b6020808252601f908201527f45524332303a206d696e7420746f20746865207a65726f206164647265737300604082015260600190565b61ffff91909116815260200190565b60ff91909116815260200190565b600082198211156122e7576122e76123e1565b500190565b60008261230a5760e060020a634e487b710281526012600452602481fd5b500490565b6000816000190483118215151615612329576123296123e1565b500290565b600082821015612340576123406123e1565b500390565b60005b83811015612360578181015183820152602001612348565b83811115610d225750506000910152565b600081612380576123806123e1565b506000190190565b60028104600182168061239c57607f821691505b602082108114156123c05760e060020a634e487b7102600052602260045260246000fd5b50919050565b60006000198214156123da576123da6123e1565b5060010190565b60e060020a634e487b7102600052601160045260246000fdfe4504b9dfd7400a1522f49a8b4a100552da9236849581fd59b7363eb48c6a474ca2646970667358221220a8187f72ea79f40056aa7c61c68caecd42de008b8ccf85effef4fc04b6489c6864736f6c63430008000033",
  "immutableReferences": {},
  "source": "// SPDX-License-Identifier: MIT\npragma solidity >=0.4.22 <0.9.0;\n\nimport \"@openzeppelin/contracts/token/ERC20/ERC20.sol\";\nimport \"@openzeppelin/contracts/token/ERC20/extensions/ERC20Burnable.sol\";\nimport \"@openzeppelin/contracts/token/ERC20/extensions/ERC20Pausable.sol\";\nimport \"@openzeppelin/contracts/access/AccessControlEnumerable.sol\";\nimport \"../library/TransactionFee.sol\";\n\ncontract PCMToken is ERC20, ERC20Burnable, ERC20Pausable, AccessControlEnumerable, TransactionFee {\n  bytes32 public constant MINTER_ROLE = keccak256(\"MINTER_ROLE\");\n  bytes32 public constant PAUSER_ROLE = keccak256(\"PAUSER_ROLE\");\n\n  address public lastTransfer;\n\n  bool stakintMinterSetted;\n\n  /**\n   * @dev Grants `DEFAULT_ADMIN_ROLE`, `MINTER_ROLE` and `PAUSER_ROLE` to the\n   * account that deploys the contract and mint 1million tokens to master chef address\n   *\n   * See {ERC20-constructor}.\n   */\n  constructor(address masterChef) ERC20('Proyect Coin Manager', 'PCM') TransactionFee() {\n    uint initial = 400000 ether;\n    _mint(masterChef, initial);\n    _setupRole(DEFAULT_ADMIN_ROLE, _msgSender());\n\n    _setupRole(MINTER_ROLE, _msgSender());\n    _setupRole(PAUSER_ROLE, _msgSender());\n\n    stakintMinterSetted = false;\n\n    lastTransfer = _msgSender();\n  }\n\n  function setStakingMinter(address staking) external{\n    require(hasRole(DEFAULT_ADMIN_ROLE, _msgSender()), \"not admin!\");\n    require(!stakintMinterSetted, \"This function won't be called.\");\n\n    _setupRole(MINTER_ROLE, staking);\n\n    stakintMinterSetted = true;\n  }\n\n  /**\n   * @dev Creates `amount` new tokens for `to`.\n   *\n   * See {ERC20-_mint}.\n   *\n   * Requirements:\n   *\n   * - the caller must have the `MINTER_ROLE`.\n   */\n  function mint(address to, uint256 amount) public virtual {\n    require(hasRole(MINTER_ROLE, _msgSender()), \"Mint: must have minter role to mint\");\n    _mint(to, amount);\n  }\n\n  /**\n   * @dev Pauses all token transfers.\n   *\n   * See {ERC20Pausable} and {Pausable-_pause}.\n   *\n   * Requirements:\n   *\n   * - the caller must have the `PAUSER_ROLE`.\n   */\n  function pause() public virtual {\n    require(hasRole(PAUSER_ROLE, _msgSender()), \"Pause: must have pauser role to pause\");\n    _pause();\n  }\n\n  /**\n   * @dev Unpauses all token transfers.\n   *\n   * See {ERC20Pausable} and {Pausable-_unpause}.\n   *\n   * Requirements:\n   *\n   * - the caller must have the `PAUSER_ROLE`.\n   */\n  function unpause() public virtual {\n    require(hasRole(PAUSER_ROLE, _msgSender()), \"UnPause: must have pauser role to unpause\");\n    _unpause();\n  }\n\n  function _beforeTokenTransfer(address from, address to, uint256 amount) internal virtual override(ERC20, ERC20Pausable){ }\n\n  function _transfer(address sender, address recipient, uint256 amount) internal virtual override(ERC20){\n    uint txFee = amount * getTransactionFee() / 10000;\n    uint amountBurn = txFee * getBurnFee() / 10000;\n    uint amountDevs = txFee * getDevsFee() / 10000;\n    uint amountHolder = txFee * getHolderFee() / 10000;\n    \n    super._transfer(sender, address(this), amountBurn + amountDevs);\n    super._transfer(sender, lastTransfer, amountHolder);\n    lastTransfer = sender;\n  \n    amount -= txFee;\n    super._transfer(sender, recipient, amount);\n  }\n\n  function devsGetPaid() external{\n    uint devCount = getRoleMemberCount(DEVELOPER_ROLE);\n\n    uint dFee = getDevsFee();\n    uint bFee = getBurnFee();\n\n    uint toDevs = balanceOf(address(this)) * dFee / (dFee + bFee);\n\n    require(toDevs > 1 ether, \"Not enough for everyone\");\n\n    for(uint i = 0; i < devCount; i++){\n      super._transfer(address(this), getRoleMember(DEVELOPER_ROLE, i), toDevs);\n    }\n\n    _burn(address(this), balanceOf(address(this)));\n  }\n\n}",
  "sourcePath": "/home/guillermo/dapps/tuviella-contract/contracts/token/PCMToken.sol",
  "compiler": {
    "name": "solc",
    "version": "0.8.0+commit.c7dfd78e.Emscripten.clang"
  },
  "schemaVersion": "3.4.3",
  "updatedAt": "2021-10-31T13:03:40.373Z",
  "devdoc": {
    "kind": "dev",
    "methods": {
      "allowance(address,address)": {
        "details": "See {IERC20-allowance}."
      },
      "approve(address,uint256)": {
        "details": "See {IERC20-approve}. Requirements: - `spender` cannot be the zero address."
      },
      "balanceOf(address)": {
        "details": "See {IERC20-balanceOf}."
      },
      "burn(uint256)": {
        "details": "Destroys `amount` tokens from the caller. See {ERC20-_burn}."
      },
      "burnFrom(address,uint256)": {
        "details": "Destroys `amount` tokens from `account`, deducting from the caller's allowance. See {ERC20-_burn} and {ERC20-allowance}. Requirements: - the caller must have allowance for ``accounts``'s tokens of at least `amount`."
      },
      "constructor": {
        "details": "Grants `DEFAULT_ADMIN_ROLE`, `MINTER_ROLE` and `PAUSER_ROLE` to the account that deploys the contract and mint 1million tokens to master chef address See {ERC20-constructor}."
      },
      "decimals()": {
        "details": "Returns the number of decimals used to get its user representation. For example, if `decimals` equals `2`, a balance of `505` tokens should be displayed to a user as `5.05` (`505 / 10 ** 2`). Tokens usually opt for a value of 18, imitating the relationship between Ether and Wei. This is the value {ERC20} uses, unless this function is overridden; NOTE: This information is only used for _display_ purposes: it in no way affects any of the arithmetic of the contract, including {IERC20-balanceOf} and {IERC20-transfer}."
      },
      "decreaseAllowance(address,uint256)": {
        "details": "Atomically decreases the allowance granted to `spender` by the caller. This is an alternative to {approve} that can be used as a mitigation for problems described in {IERC20-approve}. Emits an {Approval} event indicating the updated allowance. Requirements: - `spender` cannot be the zero address. - `spender` must have allowance for the caller of at least `subtractedValue`."
      },
      "getBurnFee()": {
        "details": "Get burn fee for every transaction"
      },
      "getDevsFee()": {
        "details": "Get devs fee for every transaction"
      },
      "getHolderFee()": {
        "details": "Get holder fee for every transaction"
      },
      "getRoleAdmin(bytes32)": {
        "details": "Returns the admin role that controls `role`. See {grantRole} and {revokeRole}. To change a role's admin, use {_setRoleAdmin}."
      },
      "getRoleMember(bytes32,uint256)": {
        "details": "Returns one of the accounts that have `role`. `index` must be a value between 0 and {getRoleMemberCount}, non-inclusive. Role bearers are not sorted in any particular way, and their ordering may change at any point. WARNING: When using {getRoleMember} and {getRoleMemberCount}, make sure you perform all queries on the same block. See the following https://forum.openzeppelin.com/t/iterating-over-elements-on-enumerableset-in-openzeppelin-contracts/2296[forum post] for more information."
      },
      "getRoleMemberCount(bytes32)": {
        "details": "Returns the number of accounts that have `role`. Can be used together with {getRoleMember} to enumerate all bearers of a role."
      },
      "getTransactionFee()": {
        "details": "Get transaction fee to pay for every transaction"
      },
      "grantRole(bytes32,address)": {
        "details": "Overload {grantRole} to track enumerable memberships"
      },
      "hasRole(bytes32,address)": {
        "details": "Returns `true` if `account` has been granted `role`."
      },
      "increaseAllowance(address,uint256)": {
        "details": "Atomically increases the allowance granted to `spender` by the caller. This is an alternative to {approve} that can be used as a mitigation for problems described in {IERC20-approve}. Emits an {Approval} event indicating the updated allowance. Requirements: - `spender` cannot be the zero address."
      },
      "mint(address,uint256)": {
        "details": "Creates `amount` new tokens for `to`. See {ERC20-_mint}. Requirements: - the caller must have the `MINTER_ROLE`."
      },
      "name()": {
        "details": "Returns the name of the token."
      },
      "pause()": {
        "details": "Pauses all token transfers. See {ERC20Pausable} and {Pausable-_pause}. Requirements: - the caller must have the `PAUSER_ROLE`."
      },
      "paused()": {
        "details": "Returns true if the contract is paused, and false otherwise."
      },
      "renounceRole(bytes32,address)": {
        "details": "Overload {renounceRole} to track enumerable memberships"
      },
      "revokeRole(bytes32,address)": {
        "details": "Overload {revokeRole} to track enumerable memberships"
      },
      "setBurnFee(uint16)": {
        "details": "Set burn fee for every transaction"
      },
      "setDevsFee(uint16)": {
        "details": "Set devs fee for every transaction"
      },
      "setHolderFee(uint16)": {
        "details": "Set holder fee for every transaction"
      },
      "setTransactionFee(uint16)": {
        "details": "Set transaction fee to pay for every transaction"
      },
      "supportsInterface(bytes4)": {
        "details": "See {IERC165-supportsInterface}."
      },
      "symbol()": {
        "details": "Returns the symbol of the token, usually a shorter version of the name."
      },
      "totalSupply()": {
        "details": "See {IERC20-totalSupply}."
      },
      "transfer(address,uint256)": {
        "details": "See {IERC20-transfer}. Requirements: - `recipient` cannot be the zero address. - the caller must have a balance of at least `amount`."
      },
      "transferFrom(address,address,uint256)": {
        "details": "See {IERC20-transferFrom}. Emits an {Approval} event indicating the updated allowance. This is not required by the EIP. See the note at the beginning of {ERC20}. Requirements: - `sender` and `recipient` cannot be the zero address. - `sender` must have a balance of at least `amount`. - the caller must have allowance for ``sender``'s tokens of at least `amount`."
      },
      "unpause()": {
        "details": "Unpauses all token transfers. See {ERC20Pausable} and {Pausable-_unpause}. Requirements: - the caller must have the `PAUSER_ROLE`."
      }
    },
    "version": 1
  },
  "userdoc": {
    "kind": "user",
    "methods": {},
    "version": 1
  }
}