{
  "contractName": "Reward",
  "abi": [
    {
      "inputs": [
        {
          "internalType": "contract IERC20",
          "name": "_viellas",
          "type": "address"
        }
      ],
      "stateMutability": "nonpayable",
      "type": "constructor"
    },
    {
      "inputs": [
        {
          "internalType": "address",
          "name": "_staking",
          "type": "address"
        }
      ],
      "name": "setStakingAddress",
      "outputs": [],
      "stateMutability": "nonpayable",
      "type": "function"
    },
    {
      "inputs": [
        {
          "internalType": "address",
          "name": "to",
          "type": "address"
        },
        {
          "internalType": "uint256",
          "name": "amount",
          "type": "uint256"
        }
      ],
      "name": "payTo",
      "outputs": [],
      "stateMutability": "nonpayable",
      "type": "function"
    },
    {
      "inputs": [],
      "name": "totalVuiellasInContract",
      "outputs": [
        {
          "internalType": "uint256",
          "name": "",
          "type": "uint256"
        }
      ],
      "stateMutability": "view",
      "type": "function"
    }
  ],
  "bytecode": "0x608060405234801561001057600080fd5b5060405161061038038061061083398101604081905261002f91610062565b6000805433600160a060020a03199182161790915560028054909116600160a060020a0392909216919091179055610090565b600060208284031215610073578081fd5b8151600160a060020a0381168114610089578182fd5b9392505050565b6105718061009f6000396000f3fe608060405234801561001057600080fd5b506004361061005d577c010000000000000000000000000000000000000000000000000000000060003504637bf08621811461006257806382ae59f114610077578063f4e0d9ac14610095575b600080fd5b610075610070366004610436565b6100a8565b005b61007f6102e0565b60405161008c9190610532565b60405180910390f35b6100756100a3366004610415565b61037f565b600154600160a060020a031633146100f5576040517f08c379a00000000000000000000000000000000000000000000000000000000081526004016100ec906104fb565b60405180910390fd5b6002546040517f70a08231000000000000000000000000000000000000000000000000000000008152600091600160a060020a0316906370a082319061013f903090600401610497565b60206040518083038186803b15801561015757600080fd5b505afa15801561016b573d6000803e3d6000fd5b505050506040513d601f19601f8201168201806040525081019061018f919061047f565b90508082111561023c576002546040517fa9059cbb000000000000000000000000000000000000000000000000000000008152600160a060020a039091169063a9059cbb906101e490869085906004016104ab565b602060405180830381600087803b1580156101fe57600080fd5b505af1158015610212573d6000803e3d6000fd5b505050506040513d601f19601f82011682018060405250810190610236919061045f565b506102db565b6002546040517fa9059cbb000000000000000000000000000000000000000000000000000000008152600160a060020a039091169063a9059cbb9061028790869086906004016104ab565b602060405180830381600087803b1580156102a157600080fd5b505af11580156102b5573d6000803e3d6000fd5b505050506040513d601f19601f820116820180604052508101906102d9919061045f565b505b505050565b6002546040517f70a08231000000000000000000000000000000000000000000000000000000008152600091600160a060020a0316906370a082319061032a903090600401610497565b60206040518083038186803b15801561034257600080fd5b505afa158015610356573d6000803e3d6000fd5b505050506040513d601f19601f8201168201806040525081019061037a919061047f565b905090565b600054600160a060020a031633146103c3576040517f08c379a00000000000000000000000000000000000000000000000000000000081526004016100ec906104c4565b60018054600160a060020a0390921673ffffffffffffffffffffffffffffffffffffffff19928316179055600080549091169055565b8035600160a060020a038116811461041057600080fd5b919050565b600060208284031215610426578081fd5b61042f826103f9565b9392505050565b60008060408385031215610448578081fd5b610451836103f9565b946020939093013593505050565b600060208284031215610470578081fd5b8151801515811461042f578182fd5b600060208284031215610490578081fd5b5051919050565b600160a060020a0391909116815260200190565b600160a060020a03929092168252602082015260400190565b60208082526016908201527f596f752063616e742073657420616e797468696e672100000000000000000000604082015260600190565b60208082526014908201527f596f752063616e742070617920616e796f6e6521000000000000000000000000604082015260600190565b9081526020019056fea2646970667358221220d0132df5a7f01bcb5fa107d1c0c146ca3ca231bee57719e1b0ecfd84fb986e1f64736f6c63430008000033",
  "immutableReferences": {},
  "source": "// SPDX-License-Identifier: MIT\npragma solidity >=0.4.22 <0.9.0;\n\nimport \"@openzeppelin/contracts/token/ERC20/IERC20.sol\";\n\ncontract Reward {\n\n  address admin;\n  address staking;\n  IERC20 viellas;\n\n  constructor(IERC20 _viellas) {\n    admin = msg.sender;\n    viellas = _viellas;\n  }\n\n  function setStakingAddress(address _staking) external{\n    require(msg.sender == admin, \"You cant set anything!\");\n    staking = _staking;\n    admin = address(0);\n  }\n\n  function payTo(address to, uint256 amount) external{\n    require(msg.sender == staking, \"You cant pay anyone!\");\n    \n    uint256 viellasBalance = viellas.balanceOf(address(this));\n    if (amount > viellasBalance) {\n        viellas.transfer(to, viellasBalance);\n    } else {\n        viellas.transfer(to, amount);\n    }\n  }\n\n  function totalVuiellasInContract() public view returns(uint256){\n    return viellas.balanceOf(address(this));\n  }\n}",
  "sourcePath": "/home/guillermo/dapps/tuviella-contract/contracts/Reward.sol",
  "compiler": {
    "name": "solc",
    "version": "0.8.0+commit.c7dfd78e.Emscripten.clang"
  },
  "schemaVersion": "3.4.3",
  "updatedAt": "2021-10-31T13:03:39.343Z",
  "devdoc": {
    "kind": "dev",
    "methods": {},
    "version": 1
  },
  "userdoc": {
    "kind": "user",
    "methods": {},
    "version": 1
  }
}