{
  "contractName": "Staking",
  "abi": [
    {
      "inputs": [
        {
          "internalType": "contract PatoVerde",
          "name": "_PATO",
          "type": "address"
        },
        {
          "internalType": "address",
          "name": "_devaddr",
          "type": "address"
        },
        {
          "internalType": "address",
          "name": "_devSetter",
          "type": "address"
        },
        {
          "internalType": "uint256",
          "name": "_PATOPerBlock",
          "type": "uint256"
        },
        {
          "internalType": "uint256",
          "name": "_startBlock",
          "type": "uint256"
        },
        {
          "internalType": "contract IReward",
          "name": "_rewardContract",
          "type": "address"
        }
      ],
      "stateMutability": "nonpayable",
      "type": "constructor"
    },
    {
      "anonymous": false,
      "inputs": [
        {
          "indexed": true,
          "internalType": "address",
          "name": "user",
          "type": "address"
        },
        {
          "indexed": true,
          "internalType": "uint256",
          "name": "pid",
          "type": "uint256"
        },
        {
          "indexed": false,
          "internalType": "uint256",
          "name": "amount",
          "type": "uint256"
        }
      ],
      "name": "Deposit",
      "type": "event"
    },
    {
      "anonymous": false,
      "inputs": [
        {
          "indexed": true,
          "internalType": "address",
          "name": "user",
          "type": "address"
        },
        {
          "indexed": true,
          "internalType": "uint256",
          "name": "pid",
          "type": "uint256"
        },
        {
          "indexed": false,
          "internalType": "uint256",
          "name": "amount",
          "type": "uint256"
        }
      ],
      "name": "EmergencyWithdraw",
      "type": "event"
    },
    {
      "anonymous": false,
      "inputs": [
        {
          "indexed": true,
          "internalType": "address",
          "name": "previousOwner",
          "type": "address"
        },
        {
          "indexed": true,
          "internalType": "address",
          "name": "newOwner",
          "type": "address"
        }
      ],
      "name": "OwnershipTransferred",
      "type": "event"
    },
    {
      "anonymous": false,
      "inputs": [
        {
          "indexed": true,
          "internalType": "address",
          "name": "user",
          "type": "address"
        },
        {
          "indexed": true,
          "internalType": "uint256",
          "name": "pid",
          "type": "uint256"
        },
        {
          "indexed": false,
          "internalType": "uint256",
          "name": "amount",
          "type": "uint256"
        }
      ],
      "name": "Withdraw",
      "type": "event"
    },
    {
      "inputs": [],
      "name": "BONUS_MULTIPLIER",
      "outputs": [
        {
          "internalType": "uint256",
          "name": "",
          "type": "uint256"
        }
      ],
      "stateMutability": "view",
      "type": "function"
    },
    {
      "inputs": [],
      "name": "PATO",
      "outputs": [
        {
          "internalType": "contract PatoVerde",
          "name": "",
          "type": "address"
        }
      ],
      "stateMutability": "view",
      "type": "function"
    },
    {
      "inputs": [],
      "name": "PATOPerBlock",
      "outputs": [
        {
          "internalType": "uint256",
          "name": "",
          "type": "uint256"
        }
      ],
      "stateMutability": "view",
      "type": "function"
    },
    {
      "inputs": [],
      "name": "cantUsers",
      "outputs": [
        {
          "internalType": "uint256",
          "name": "",
          "type": "uint256"
        }
      ],
      "stateMutability": "view",
      "type": "function"
    },
    {
      "inputs": [],
      "name": "devSetter",
      "outputs": [
        {
          "internalType": "address",
          "name": "",
          "type": "address"
        }
      ],
      "stateMutability": "view",
      "type": "function"
    },
    {
      "inputs": [],
      "name": "devaddr",
      "outputs": [
        {
          "internalType": "address",
          "name": "",
          "type": "address"
        }
      ],
      "stateMutability": "view",
      "type": "function"
    },
    {
      "inputs": [],
      "name": "fee",
      "outputs": [
        {
          "internalType": "uint256",
          "name": "",
          "type": "uint256"
        }
      ],
      "stateMutability": "view",
      "type": "function"
    },
    {
      "inputs": [],
      "name": "initialPATOPerBlock",
      "outputs": [
        {
          "internalType": "uint256",
          "name": "",
          "type": "uint256"
        }
      ],
      "stateMutability": "view",
      "type": "function"
    },
    {
      "inputs": [],
      "name": "owner",
      "outputs": [
        {
          "internalType": "address",
          "name": "",
          "type": "address"
        }
      ],
      "stateMutability": "view",
      "type": "function"
    },
    {
      "inputs": [
        {
          "internalType": "uint256",
          "name": "",
          "type": "uint256"
        }
      ],
      "name": "poolInfo",
      "outputs": [
        {
          "internalType": "contract IERC20",
          "name": "stakedToken",
          "type": "address"
        },
        {
          "internalType": "uint256",
          "name": "allocPoint",
          "type": "uint256"
        },
        {
          "internalType": "uint256",
          "name": "lastRewardBlock",
          "type": "uint256"
        },
        {
          "internalType": "uint256",
          "name": "accPATOPerShare",
          "type": "uint256"
        },
        {
          "internalType": "uint256",
          "name": "totalTokensInPool",
          "type": "uint256"
        }
      ],
      "stateMutability": "view",
      "type": "function"
    },
    {
      "inputs": [],
      "name": "renounceOwnership",
      "outputs": [],
      "stateMutability": "nonpayable",
      "type": "function"
    },
    {
      "inputs": [],
      "name": "rewardContract",
      "outputs": [
        {
          "internalType": "contract IReward",
          "name": "",
          "type": "address"
        }
      ],
      "stateMutability": "view",
      "type": "function"
    },
    {
      "inputs": [],
      "name": "rewardsActive",
      "outputs": [
        {
          "internalType": "bool",
          "name": "",
          "type": "bool"
        }
      ],
      "stateMutability": "view",
      "type": "function"
    },
    {
      "inputs": [],
      "name": "startBlock",
      "outputs": [
        {
          "internalType": "uint256",
          "name": "",
          "type": "uint256"
        }
      ],
      "stateMutability": "view",
      "type": "function"
    },
    {
      "inputs": [],
      "name": "totalAllocPoint",
      "outputs": [
        {
          "internalType": "uint256",
          "name": "",
          "type": "uint256"
        }
      ],
      "stateMutability": "view",
      "type": "function"
    },
    {
      "inputs": [
        {
          "internalType": "address",
          "name": "newOwner",
          "type": "address"
        }
      ],
      "name": "transferOwnership",
      "outputs": [],
      "stateMutability": "nonpayable",
      "type": "function"
    },
    {
      "inputs": [
        {
          "internalType": "uint256",
          "name": "",
          "type": "uint256"
        },
        {
          "internalType": "address",
          "name": "",
          "type": "address"
        }
      ],
      "name": "userInfo",
      "outputs": [
        {
          "internalType": "uint256",
          "name": "amount",
          "type": "uint256"
        },
        {
          "internalType": "uint256",
          "name": "rewardDebt",
          "type": "uint256"
        }
      ],
      "stateMutability": "view",
      "type": "function"
    },
    {
      "inputs": [
        {
          "internalType": "uint256",
          "name": "_from",
          "type": "uint256"
        },
        {
          "internalType": "uint256",
          "name": "_to",
          "type": "uint256"
        }
      ],
      "name": "getMultiplier",
      "outputs": [
        {
          "internalType": "uint256",
          "name": "",
          "type": "uint256"
        }
      ],
      "stateMutability": "view",
      "type": "function"
    },
    {
      "inputs": [
        {
          "internalType": "uint256",
          "name": "_pid",
          "type": "uint256"
        },
        {
          "internalType": "address",
          "name": "_user",
          "type": "address"
        }
      ],
      "name": "pendingPATO",
      "outputs": [
        {
          "internalType": "uint256",
          "name": "",
          "type": "uint256"
        }
      ],
      "stateMutability": "view",
      "type": "function"
    },
    {
      "inputs": [],
      "name": "poolLength",
      "outputs": [
        {
          "internalType": "uint256",
          "name": "",
          "type": "uint256"
        }
      ],
      "stateMutability": "view",
      "type": "function"
    },
    {
      "inputs": [],
      "name": "cantOfusers",
      "outputs": [
        {
          "internalType": "uint256",
          "name": "",
          "type": "uint256"
        }
      ],
      "stateMutability": "view",
      "type": "function"
    },
    {
      "inputs": [
        {
          "internalType": "uint256",
          "name": "_pid",
          "type": "uint256"
        }
      ],
      "name": "tokenInPool",
      "outputs": [
        {
          "internalType": "uint256",
          "name": "",
          "type": "uint256"
        }
      ],
      "stateMutability": "view",
      "type": "function"
    },
    {
      "inputs": [
        {
          "internalType": "uint256",
          "name": "_pid",
          "type": "uint256"
        },
        {
          "internalType": "address",
          "name": "_address",
          "type": "address"
        }
      ],
      "name": "userAmountInPool",
      "outputs": [
        {
          "internalType": "uint256",
          "name": "",
          "type": "uint256"
        }
      ],
      "stateMutability": "view",
      "type": "function"
    },
    {
      "inputs": [
        {
          "internalType": "uint256",
          "name": "_pid",
          "type": "uint256"
        },
        {
          "internalType": "address",
          "name": "_address",
          "type": "address"
        }
      ],
      "name": "rewardsPerDay",
      "outputs": [
        {
          "internalType": "uint256",
          "name": "",
          "type": "uint256"
        }
      ],
      "stateMutability": "view",
      "type": "function"
    },
    {
      "inputs": [
        {
          "internalType": "uint256",
          "name": "multiplierNumber",
          "type": "uint256"
        }
      ],
      "name": "updateMultiplier",
      "outputs": [],
      "stateMutability": "nonpayable",
      "type": "function"
    },
    {
      "inputs": [
        {
          "internalType": "uint256",
          "name": "_allocPoint",
          "type": "uint256"
        },
        {
          "internalType": "contract IERC20",
          "name": "_stakedToken",
          "type": "address"
        },
        {
          "internalType": "bool",
          "name": "_withUpdate",
          "type": "bool"
        }
      ],
      "name": "addPool",
      "outputs": [],
      "stateMutability": "nonpayable",
      "type": "function"
    },
    {
      "inputs": [
        {
          "internalType": "uint256",
          "name": "_pid",
          "type": "uint256"
        },
        {
          "internalType": "uint256",
          "name": "_allocPoint",
          "type": "uint256"
        },
        {
          "internalType": "bool",
          "name": "_withUpdate",
          "type": "bool"
        }
      ],
      "name": "set",
      "outputs": [],
      "stateMutability": "nonpayable",
      "type": "function"
    },
    {
      "inputs": [],
      "name": "massUpdatePools",
      "outputs": [],
      "stateMutability": "nonpayable",
      "type": "function"
    },
    {
      "inputs": [
        {
          "internalType": "uint256",
          "name": "_pid",
          "type": "uint256"
        }
      ],
      "name": "updatePool",
      "outputs": [],
      "stateMutability": "nonpayable",
      "type": "function"
    },
    {
      "inputs": [
        {
          "internalType": "uint256",
          "name": "_pid",
          "type": "uint256"
        },
        {
          "internalType": "uint256",
          "name": "_amount",
          "type": "uint256"
        }
      ],
      "name": "deposit",
      "outputs": [],
      "stateMutability": "nonpayable",
      "type": "function"
    },
    {
      "inputs": [
        {
          "internalType": "uint256",
          "name": "_pid",
          "type": "uint256"
        },
        {
          "internalType": "uint256",
          "name": "_amount",
          "type": "uint256"
        }
      ],
      "name": "withdraw",
      "outputs": [],
      "stateMutability": "nonpayable",
      "type": "function"
    },
    {
      "inputs": [
        {
          "internalType": "uint256",
          "name": "_pid",
          "type": "uint256"
        }
      ],
      "name": "emergencyWithdraw",
      "outputs": [],
      "stateMutability": "nonpayable",
      "type": "function"
    },
    {
      "inputs": [
        {
          "internalType": "address",
          "name": "_devaddr",
          "type": "address"
        }
      ],
      "name": "dev",
      "outputs": [],
      "stateMutability": "nonpayable",
      "type": "function"
    },
    {
      "inputs": [
        {
          "internalType": "uint256",
          "name": "_pid",
          "type": "uint256"
        }
      ],
      "name": "brrr",
      "outputs": [],
      "stateMutability": "nonpayable",
      "type": "function"
    },
    {
      "inputs": [],
      "name": "reinvest",
      "outputs": [],
      "stateMutability": "nonpayable",
      "type": "function"
    },
    {
      "inputs": [
        {
          "internalType": "contract IERC20",
          "name": "token",
          "type": "address"
        }
      ],
      "name": "findPidOf",
      "outputs": [
        {
          "internalType": "uint256",
          "name": "_pid",
          "type": "uint256"
        }
      ],
      "stateMutability": "view",
      "type": "function"
    },
    {
      "inputs": [
        {
          "internalType": "uint256",
          "name": "_fee",
          "type": "uint256"
        }
      ],
      "name": "setFee",
      "outputs": [],
      "stateMutability": "nonpayable",
      "type": "function"
    },
    {
      "inputs": [
        {
          "internalType": "bool",
          "name": "_rewardsActive",
          "type": "bool"
        }
      ],
      "name": "setActive",
      "outputs": [],
      "stateMutability": "nonpayable",
      "type": "function"
    }
  ],
  "bytecode": "0x608060405260016007556000600a81905560c8600b55600c55600e805460ff191690553480156200002f57600080fd5b506040516200287c3803806200287c83398101604081905262000052916200023e565b6200007862000069640100000000620001ea810204565b640100000000620001ee810204565b60018054600160a060020a0319908116600160a060020a039889169081178355600380548316988a1698909817909755600480548216968916969096179095556005938455600d839055600280548616928816929092179091556040805160a0810182529586526103e8602087018181529187019384526000606088018181526080890182815260088054968701815590925297517ff3f7a9fe364faab93b216da50a3214154f22a0a2b415b23a84c8169e8b636ee39487029485018054909816991698909817909555517ff3f7a9fe364faab93b216da50a3214154f22a0a2b415b23a84c8169e8b636ee482015590517ff3f7a9fe364faab93b216da50a3214154f22a0a2b415b23a84c8169e8b636ee582015592517ff3f7a9fe364faab93b216da50a3214154f22a0a2b415b23a84c8169e8b636ee684015592517ff3f7a9fe364faab93b216da50a3214154f22a0a2b415b23a84c8169e8b636ee790920191909155600c5554600655620002d3565b3390565b60008054600160a060020a03838116600160a060020a0319831681178455604051919092169283917f8be0079c531659141344cd1fd0a4f28419497f9722a3daafe3b4186f6b6457e09190a35050565b60008060008060008060c0878903121562000257578182fd5b86516200026481620002ba565b60208801519096506200027781620002ba565b60408801519095506200028a81620002ba565b80945050606087015192506080870151915060a0870151620002ac81620002ba565b809150509295509295509295565b600160a060020a0381168114620002d057600080fd5b50565b61259980620002e36000396000f3fe608060405234801561001057600080fd5b50600436106102365760003560e060020a900480637abceffd11610134578063acec338a116100bc578063e1a91c2711610080578063e1a91c2714610444578063e2bbb15814610457578063f2fde38b1461046a578063f49ca2b51461047d578063fdb5a03e1461049057610236565b8063acec338a14610406578063b33cc9b214610419578063cd4868ed14610421578063d49e77cd14610434578063ddca3f431461043c57610236565b80638dbb1e3a116101035780638dbb1e3a146103a2578063921a7bd6146103b557806393f1a40b146103c8578063a519121a146103e9578063a55cc45f146103fe57610236565b80637abceffd1461036c5780638aa285501461037f5780638d88a90e146103875780638da5cb5b1461039a57610236565b806348cd4cb1116101c257806364482f791161018657806364482f791461032e57806369fe0e2d146103415780636ea69d6214610354578063715018a61461035c578063724235fc1461036457610236565b806348cd4cb1146102e557806351eb05a6146102ed5780635312ea8e146103005780635ffe614614610313578063630b5ba11461032657610236565b80631526fe27116102095780631526fe271461027c578063161d6467146102a057806317caf6f1146102b35780631f82f114146102bb578063441a3e70146102d057610236565b8063081e3eda1461023b5780630c4bde1b146102595780630f7258921461026c578063104c825214610274575b600080fd5b610243610498565b6040516102509190612458565b60405180910390f35b610243610267366004611f03565b61049e565b6102436104c8565b6102436104ce565b61028f61028a366004611ed3565b6104d4565b604051610250959493929190612039565b6102436102ae366004611e7f565b61051f565b61024361059a565b6102c36105a0565b6040516102509190611fdd565b6102e36102de366004611f73565b6105af565b005b610243610801565b6102e36102fb366004611ed3565b610807565b6102e361030e366004611ed3565b610b1d565b6102e3610321366004611ed3565b610be5565b6102e3610c2c565b6102e361033c366004611f94565b610c57565b6102e361034f366004611ed3565b610d52565b6102c3610d99565b6102e3610da8565b610243610df6565b6102e361037a366004611f32565b610dfc565b610243610f9e565b6102e3610395366004611e7f565b610fa4565b6102c3611000565b6102436103b0366004611f73565b61100f565b6102436103c3366004611f03565b61102a565b6103db6103d6366004611f03565b6111c4565b604051610250929190612461565b6103f16111e8565b604051610250919061202e565b6102c36111f1565b6102e3610414366004611e9b565b611200565b610243611255565b61024361042f366004611ed3565b61125b565b6102c361129a565b6102436112a9565b610243610452366004611f03565b6112af565b6102e3610465366004611f73565b61131f565b6102e3610478366004611e7f565b6114f4565b6102e361048b366004611ed3565b611568565b6102e36117d1565b60085490565b6000828152600960209081526040808320600160a060020a03851684529091529020545b92915050565b60055481565b600a5481565b600881815481106104e457600080fd5b600091825260209091206005909102018054600182015460028301546003840154600490940154600160a060020a0390931694509092909185565b600854600090815b8181101561059257600881815481106105535760e060020a634e487b7102600052603260045260246000fd5b6000918252602090912060059091020154600160a060020a03858116911614156105805791506105959050565b8061058a8161250c565b915050610527565b50505b919050565b600c5481565b600154600160a060020a031681565b6000600883815481106105d55760e060020a634e487b7102600052603260045260246000fd5b60009182526020808320868452600982526040808520338652909252922080546005909202909201925083111561062a5760405160e560020a62461bcd02815260040161062190612421565b60405180910390fd5b61063384610807565b600061066d826001015461066764e8d4a51000610661876003015487600001546119e490919063ffffffff16565b90611a2c565b90611a5a565b600e5490915060ff16156106e95780156106e95760025460405160e060020a637bf08621028152600160a060020a0390911690637bf08621906106b69033908590600401612015565b600060405180830381600087803b1580156106d057600080fd5b505af11580156106e4573d6000803e3d6000fd5b505050505b831561077457600061070c612710610661600b54886119e490919063ffffffff16565b9050600061071a8683611a5a565b600354865491925061073991600160a060020a03908116911684611a89565b83546107459087611a5a565b8455845461075d90600160a060020a03163383611a89565b600485015461076c9087611a5a565b600486015550505b600e5460ff16156107a0576003830154825461079a9164e8d4a5100091610661916119e4565b60018301555b81546107b857600a546107b4906001611a5a565b600a555b8433600160a060020a03167ff279e6a1f5e320cca91135676d9cb6e44ca8a08c0b88342bcdb1144f6511b568866040516107f29190612458565b60405180910390a35050505050565b600d5481565b60006008828154811061082d5760e060020a634e487b7102600052603260045260246000fd5b906000526020600020906005020190508060020154431161084e5750610b1a565b80546040517f70a08231000000000000000000000000000000000000000000000000000000008152600091600160a060020a0316906370a0823190610897903090600401611fdd565b60206040518083038186803b1580156108af57600080fd5b505afa1580156108c3573d6000803e3d6000fd5b505050506040513d601f19601f820116820180604052508101906108e79190611eeb565b9050806108fb575043600290910155610b1a565b600061090b83600201544361100f565b90506000610938600c546106618660010154610932600554876119e490919063ffffffff16565b906119e4565b905061094a600a61066183600b6119e4565b61095e9069d3c21bcecceda10000006124c9565b600160009054906101000a9004600160a060020a0316600160a060020a03166318160ddd6040518163ffffffff1660e060020a02815260040160206040518083038186803b1580156109af57600080fd5b505afa1580156109c3573d6000803e3d6000fd5b505050506040513d601f19601f820116820180604052508101906109e79190611eeb565b1015610ae657600154600354600160a060020a03918216916340c10f199116610a1184600a611a2c565b6040518363ffffffff1660e060020a028152600401610a31929190612015565b600060405180830381600087803b158015610a4b57600080fd5b505af1158015610a5f573d6000803e3d6000fd5b50506001546002546040517f40c10f19000000000000000000000000000000000000000000000000000000008152600160a060020a0392831694506340c10f199350610ab392909116908590600401612015565b600060405180830381600087803b158015610acd57600080fd5b505af1158015610ae1573d6000803e3d6000fd5b505050505b610b07610afc846106618464e8d4a510006119e4565b600386015490611b0f565b6003850155505043600290920191909155505b50565b600060088281548110610b435760e060020a634e487b7102600052603260045260246000fd5b60009182526020808320858452600982526040808520338087529352909320805460059093029093018054909450610b8892600160a060020a03919091169190611a89565b8054604051849133917fbb757047c2b5f3974fe26b7c10f732e7bce710b0952a71082702781e62ae059591610bbc91612458565b60405180910390a360008082556001820155600a54610bdc906001611a5a565b600a555b505050565b610bed611b41565b600160a060020a0316610bfe611000565b600160a060020a031614610c275760405160e560020a62461bcd028152600401610621906122ea565b600755565b60085460005b81811015610c5357610c4381610807565b610c4c8161250c565b9050610c32565b5050565b610c5f611b41565b600160a060020a0316610c70611000565b600160a060020a031614610c995760405160e560020a62461bcd028152600401610621906122ea565b8015610ca757610ca7610c2c565b600060088481548110610ccd5760e060020a634e487b7102600052603260045260246000fd5b90600052602060002090600502016001015490508260088581548110610d065760e060020a634e487b7102600052603260045260246000fd5b906000526020600020906005020160010181905550828114610d4c57610d4183610d3b83600c54611a5a90919063ffffffff16565b90611b0f565b600c55610d4c611b45565b50505050565b610d5a611b41565b600160a060020a0316610d6b611000565b600160a060020a031614610d945760405160e560020a62461bcd028152600401610621906122ea565b600b55565b600254600160a060020a031681565b610db0611b41565b600160a060020a0316610dc1611000565b600160a060020a031614610dea5760405160e560020a62461bcd028152600401610621906122ea565b610df46000611c57565b565b60065481565b610e04611b41565b600160a060020a0316610e15611000565b600160a060020a031614610e3e5760405160e560020a62461bcd028152600401610621906122ea565b8015610e4c57610e4c610c2c565b6000600d544311610e5f57600d54610e61565b435b600c54909150610e719085611b0f565b600c556040805160a081018252600160a060020a038581168252602082018781529282018481526000606084018181526080850182815260088054600181018255935294517ff3f7a9fe364faab93b216da50a3214154f22a0a2b415b23a84c8169e8b636ee36005909302928301805473ffffffffffffffffffffffffffffffffffffffff1916919095161790935593517ff3f7a9fe364faab93b216da50a3214154f22a0a2b415b23a84c8169e8b636ee4850155517ff3f7a9fe364faab93b216da50a3214154f22a0a2b415b23a84c8169e8b636ee5840155517ff3f7a9fe364faab93b216da50a3214154f22a0a2b415b23a84c8169e8b636ee6830155517ff3f7a9fe364faab93b216da50a3214154f22a0a2b415b23a84c8169e8b636ee790910155610d4c611b45565b60075481565b600454600160a060020a03163314610fd15760405160e560020a62461bcd0281526004016106219061231f565b6003805473ffffffffffffffffffffffffffffffffffffffff1916600160a060020a0392909216919091179055565b600054600160a060020a031690565b600754600090611023906109328486611a5a565b9392505050565b600080600884815481106110515760e060020a634e487b7102600052603260045260246000fd5b60009182526020808320878452600982526040808520600160a060020a03808a16875293528085206003600590950290920193840154845491517f70a0823100000000000000000000000000000000000000000000000000000000815294965091949193919216906370a08231906110cd903090600401611fdd565b60206040518083038186803b1580156110e557600080fd5b505afa1580156110f9573d6000803e3d6000fd5b505050506040513d601f19601f8201168201806040525081019061111d9190611eeb565b905083600201544311801561113157508015155b1561119157600061114685600201544361100f565b9050600061116d600c546106618860010154610932600554876119e490919063ffffffff16565b905061118c611185846106618464e8d4a510006119e4565b8590611b0f565b935050505b6111b9836001015461066764e8d4a510006106618688600001546119e490919063ffffffff16565b979650505050505050565b60096020908152600092835260408084209091529082529020805460019091015482565b600e5460ff1681565b600454600160a060020a031681565b611208611b41565b600160a060020a0316611219611000565b600160a060020a0316146112425760405160e560020a62461bcd028152600401610621906122ea565b600e805460ff1916911515919091179055565b600a5490565b6000600882815481106112815760e060020a634e487b7102600052603260045260246000fd5b9060005260206000209060050201600401549050919050565b600354600160a060020a031681565b600b5481565b6000611023600554610932600886815481106112de5760e060020a634e487b7102600052603260045260246000fd5b6000918252602080832060046005909302019190910154888352600982526040808420600160a060020a038a168552909252912054610661906170806119e4565b6000600883815481106113455760e060020a634e487b7102600052603260045260246000fd5b6000918252602080832086845260098252604080852033865290925292206005909102909101915061137684610807565b600e5460ff1615611428578054156114285760006113b6826001015461066764e8d4a51000610661876003015487600001546119e490919063ffffffff16565b905080156114265760025460405160e060020a637bf08621028152600160a060020a0390911690637bf08621906113f39033908590600401612015565b600060405180830381600087803b15801561140d57600080fd5b505af1158015611421573d6000803e3d6000fd5b505050505b505b805461144057600a5461143c906001611b0f565b600a555b821561148057815461145d90600160a060020a0316333086611cb4565b600482015461146c9084611b0f565b6004830155805461147d9084611b0f565b81555b600e5460ff16156114ac57600382015481546114a69164e8d4a5100091610661916119e4565b60018201555b8333600160a060020a03167f90890809c654f11d6e72a28fa60149770a0d11ec6c92319d6ceb2bb0a4ea1a15856040516114e69190612458565b60405180910390a350505050565b6114fc611b41565b600160a060020a031661150d611000565b600160a060020a0316146115365760405160e560020a62461bcd028152600401610621906122ea565b600160a060020a03811661155f5760405160e560020a62461bcd0281526004016106219061209a565b610b1a81611c57565b600e5460ff1615156001146115925760405160e560020a62461bcd02815260040161062190612230565b61159b81610807565b6000600882815481106115c15760e060020a634e487b7102600052603260045260246000fd5b60009182526020808320858452600982526040808520338652909252818420600593909302016003810154815492517f70a08231000000000000000000000000000000000000000000000000000000008152919550929391600160a060020a0316906370a0823190611637903090600401611fdd565b60206040518083038186803b15801561164f57600080fd5b505afa158015611663573d6000803e3d6000fd5b505050506040513d601f19601f820116820180604052508101906116879190611eeb565b905083600201544311801561169b57508015155b156116f45760006116b085600201544361100f565b905060006116d7600c546106618860010154610932600554876119e490919063ffffffff16565b90506116ef611185846106618464e8d4a510006119e4565b935050505b600061171e846001015461066764e8d4a510006106618789600001546119e490919063ffffffff16565b9050600081116117435760405160e560020a62461bcd02815260040161062190612165565b60025460405160e060020a637bf08621028152600160a060020a0390911690637bf08621906117789033908590600401612015565b600060405180830381600087803b15801561179257600080fd5b505af11580156117a6573d6000803e3d6000fd5b505085546117c1925064e8d4a51000915061066190866119e4565b8460010181905550505050505050565b600e5460ff1615156001146117fb5760405160e560020a62461bcd02815260040161062190612230565b600060086000815481106118225760e060020a634e487b7102600052603260045260246000fd5b600091825260208083203384527fec8156718a8372b1db44bb411437d0870f3e3790d4a08526d024ce1b0b668f6b9091526040832060059092020192509061186990610807565b6000611897826001015461066764e8d4a51000610661876003015487600001546119e490919063ffffffff16565b9050600081116118bc5760405160e560020a62461bcd0281526004016106219061238d565b60025460405160e060020a637bf08621028152600160a060020a0390911690637bf08621906118f19030908590600401612015565b600060405180830381600087803b15801561190b57600080fd5b505af115801561191f573d6000803e3d6000fd5b505050506119526119406103e86106616007856119e490919063ffffffff16565b61194a90836124c9565b835490611b0f565b825561197d6119686103e86106618460076119e4565b61197290836124c9565b600485015490611b0f565b60048401556003830154825461199d9164e8d4a5100091610661916119e4565b600183015560405160009033907f90890809c654f11d6e72a28fa60149770a0d11ec6c92319d6ceb2bb0a4ea1a15906119d7908590612458565b60405180910390a3505050565b6000826119f3575060006104c2565b60006119ff83856124aa565b905082611a0c8583612487565b146110235760405160e560020a62461bcd0281526004016106219061228d565b6000808211611a505760405160e560020a62461bcd028152600401610621906121f9565b6110238284612487565b600082821115611a7f5760405160e560020a62461bcd0281526004016106219061212e565b61102382846124c9565b610be08363a9059cbb60e060020a028484604051602401611aab929190612015565b60408051601f198184030181529190526020810180517bffffffffffffffffffffffffffffffffffffffffffffffffffffffff167fffffffff0000000000000000000000000000000000000000000000000000000090931692909217909152611cd8565b600080611b1c838561246f565b9050838110156110235760405160e560020a62461bcd028152600401610621906120f7565b3390565b600854600060015b82811015611baf57611b9d60088281548110611b7c5760e060020a634e487b7102600052603260045260246000fd5b90600052602060002090600502016001015483611b0f90919063ffffffff16565b9150611ba88161250c565b9050611b4d565b508015610c5357611bc1816003611a2c565b9050611c1281610d3b6008600081548110611bef5760e060020a634e487b7102600052603260045260246000fd5b906000526020600020906005020160010154600c54611a5a90919063ffffffff16565b600c81905550806008600081548110611c3e5760e060020a634e487b7102600052603260045260246000fd5b9060005260206000209060050201600101819055505050565b60008054600160a060020a0383811673ffffffffffffffffffffffffffffffffffffffff19831681178455604051919092169283917f8be0079c531659141344cd1fd0a4f28419497f9722a3daafe3b4186f6b6457e09190a35050565b610d4c846323b872dd60e060020a02858585604051602401611aab93929190611ff1565b6000611d2d826040518060400160405280602081526020017f5361666545524332303a206c6f772d6c6576656c2063616c6c206661696c656481525085600160a060020a0316611d6a9092919063ffffffff16565b805190915015610be05780806020019051810190611d4b9190611eb7565b610be05760405160e560020a62461bcd028152600401610621906123c4565b6060611d798484600085611d81565b949350505050565b60603031831115611da75760405160e560020a62461bcd0281526004016106219061219c565b611db085611e3d565b611dcf5760405160e560020a62461bcd02815260040161062190612356565b60008086600160a060020a03168587604051611deb9190611fc1565b60006040518083038185875af1925050503d8060008114611e28576040519150601f19603f3d011682016040523d82523d6000602084013e611e2d565b606091505b50915091506111b9828286611e43565b3b151590565b60608315611e52575081611023565b825115611e625782518084602001fd5b8160405160e560020a62461bcd0281526004016106219190612067565b600060208284031215611e90578081fd5b813561102381612540565b600060208284031215611eac578081fd5b813561102381612555565b600060208284031215611ec8578081fd5b815161102381612555565b600060208284031215611ee4578081fd5b5035919050565b600060208284031215611efc578081fd5b5051919050565b60008060408385031215611f15578081fd5b823591506020830135611f2781612540565b809150509250929050565b600080600060608486031215611f46578081fd5b833592506020840135611f5881612540565b91506040840135611f6881612555565b809150509250925092565b60008060408385031215611f85578182fd5b50508035926020909101359150565b600080600060608486031215611fa8578283fd5b83359250602084013591506040840135611f6881612555565b60008251611fd38184602087016124e0565b9190910192915050565b600160a060020a0391909116815260200190565b600160a060020a039384168152919092166020820152604081019190915260600190565b600160a060020a03929092168252602082015260400190565b901515815260200190565b600160a060020a03959095168552602085019390935260408401919091526060830152608082015260a00190565b60006020825282518060208401526120868160408501602087016124e0565b601f01601f19169190910160400192915050565b60208082526026908201527f4f776e61626c653a206e6577206f776e657220697320746865207a65726f206160408201527f6464726573730000000000000000000000000000000000000000000000000000606082015260800190565b6020808252601b908201527f536166654d6174683a206164646974696f6e206f766572666c6f770000000000604082015260600190565b6020808252601e908201527f536166654d6174683a207375627472616374696f6e206f766572666c6f770000604082015260600190565b60208082526012908201527f4e6f2070656e64696e6720746f20627272720000000000000000000000000000604082015260600190565b60208082526026908201527f416464726573733a20696e73756666696369656e742062616c616e636520666f60408201527f722063616c6c0000000000000000000000000000000000000000000000000000606082015260800190565b6020808252601a908201527f536166654d6174683a206469766973696f6e206279207a65726f000000000000604082015260600190565b60208082526026908201527f4c6173207265636f6d70656e7a612061756e206e6f20657374616e207072657060408201527f6172616461730000000000000000000000000000000000000000000000000000606082015260800190565b60208082526021908201527f536166654d6174683a206d756c7469706c69636174696f6e206f766572666c6f60408201527f7700000000000000000000000000000000000000000000000000000000000000606082015260800190565b6020808252818101527f4f776e61626c653a2063616c6c6572206973206e6f7420746865206f776e6572604082015260600190565b6020808252600f908201527f6465765365747465723a207775743f0000000000000000000000000000000000604082015260600190565b6020808252601d908201527f416464726573733a2063616c6c20746f206e6f6e2d636f6e7472616374000000604082015260600190565b60208082526016908201527f4e6f2070656e64696e6720746f207265696e7665737400000000000000000000604082015260600190565b6020808252602a908201527f5361666545524332303a204552433230206f7065726174696f6e20646964206e60408201527f6f74207375636365656400000000000000000000000000000000000000000000606082015260800190565b6020808252601d908201527f7769746864726177206578636565647320757365722062616c616e6365000000604082015260600190565b90815260200190565b918252602082015260400190565b6000821982111561248257612482612527565b500190565b6000826124a55760e060020a634e487b710281526012600452602481fd5b500490565b60008160001904831182151516156124c4576124c4612527565b500290565b6000828210156124db576124db612527565b500390565b60005b838110156124fb5781810151838201526020016124e3565b83811115610d4c5750506000910152565b600060001982141561252057612520612527565b5060010190565b60e060020a634e487b7102600052601160045260246000fd5b600160a060020a0381168114610b1a57600080fd5b8015158114610b1a57600080fdfea264697066735822122067fe681ebc8e49e393a805580b7244e40049cf80dcfbf0d8e2c5ddb2bd88214e64736f6c63430008000033",
  "immutableReferences": {},
  "source": "// SPDX-License-Identifier: MIT\r\n\r\npragma solidity >=0.4.22 <0.9.0;\r\n\r\nimport './library/SafeMath.sol';\r\nimport \"@openzeppelin/contracts/token/ERC20/IERC20.sol\";\r\nimport \"@openzeppelin/contracts/token/ERC20/utils/SafeERC20.sol\";\r\nimport \"@openzeppelin/contracts/access/Ownable.sol\";\r\n\r\nimport \"./token/PatoVerde.sol\";\r\n\r\ninterface IReward {\r\n    function payTo(address _to, uint256 _amount) external;\r\n    function totalPATOInContract() view external returns(uint256);\r\n}\r\n\r\n\r\ncontract Staking is Ownable {\r\n    using SafeMath for uint256;\r\n    using SafeERC20 for IERC20;\r\n\r\n    // Info of each user.\r\n    struct UserInfo {\r\n        uint256 amount;     // How many tokens the user has provided.\r\n        uint256 rewardDebt; // Reward debt. See explanation below.Lo que ya se le entrego.\r\n        //uint256 userPerBLock; //Tokens que recibe el user por bloque.\r\n\r\n        //\r\n        // We do some fancy math here. Basically, any point in time, the amount of CAKEs\r\n        // entitled to a user but is pending to be distributed is:\r\n        //\r\n        //   pending reward = (user.amount * pool.accPATOPerShare) - user.rewardDebt\r\n        //\r\n        // Whenever a user deposits or withdraws LP tokens to a pool. Here's what happens:\r\n        //   1. The pool's `accPATOPerShare` (and `lastRewardBlock`) gets updated.\r\n        //   2. User receives the pending reward sent to his/her address.\r\n        //   3. User's `amount` gets updated.\r\n        //   4. User's `rewardDebt` gets updated.\r\n    }\r\n\r\n    // Info of each pool.\r\n    struct PoolInfo {\r\n        IERC20 stakedToken;       // Address of staked token contract.\r\n        uint256 allocPoint;       // How many allocation points assigned to this pool. TUPATO to distribute per block.\r\n        uint256 lastRewardBlock;  // Last block number that TUPATO distribution occurs.\r\n        uint256 accPATOPerShare;   // Accumulated TUPATO per share, times 1e12. See below.\r\n        uint256 totalTokensInPool;\r\n    }\r\n\r\n    // The TUpato TOKEN!\r\n    PatoVerde public PATO;\r\n\r\n    IReward public rewardContract;\r\n    // Dev address.\r\n    address public devaddr;\r\n    \r\n    address public devSetter;\r\n    // TUPATO tokens created per block.\r\n    uint256 public PATOPerBlock;\r\n\r\n    uint256 public initialPATOPerBlock;\r\n    // Bonus muliplier for early tvt makers.\r\n    uint256 public BONUS_MULTIPLIER = 1;\r\n\r\n    // Info of each pool.\r\n    PoolInfo[] public poolInfo;\r\n    // Info of each user that stakes tokens.\r\n    mapping (uint256 => mapping (address => UserInfo)) public userInfo;\r\n    //Contador de usuarios.\r\n    uint public cantUsers = 0;\r\n    //Fee in witdraaaws!\r\n    uint public fee = 200; \r\n    // Total allocation points. Must be the sum of all allocation points in all pools.\r\n    uint256 public totalAllocPoint = 0;\r\n    // The block number when TUpato mining starts.\r\n    uint256 public startBlock;\r\n\r\n    //Variable para el timelock. Permite activar desactivar harvest and reinvet brrr.\r\n    bool public rewardsActive = false;\r\n    //hola\r\n    \r\n\r\n    event Deposit(address indexed user, uint256 indexed pid, uint256 amount);\r\n    event Withdraw(address indexed user, uint256 indexed pid, uint256 amount);\r\n    event EmergencyWithdraw(address indexed user, uint256 indexed pid, uint256 amount);\r\n\r\n    constructor(\r\n        PatoVerde _PATO,\r\n        address _devaddr,\r\n        address _devSetter,\r\n        uint256 _PATOPerBlock,\r\n        uint256 _startBlock,\r\n        IReward _rewardContract\r\n    ) {\r\n        PATO = _PATO;\r\n        devaddr = _devaddr;\r\n        devSetter = _devSetter;\r\n        PATOPerBlock = _PATOPerBlock;\r\n        startBlock = _startBlock;\r\n        rewardContract = _rewardContract;\r\n\r\n        // staking pool\r\n        poolInfo.push(PoolInfo({\r\n            stakedToken: _PATO,\r\n            allocPoint: 1000, // TOkens en stake dentro de la pool\r\n            lastRewardBlock: startBlock,\r\n            accPATOPerShare: 0,\r\n            totalTokensInPool: 0\r\n        }));\r\n        totalAllocPoint = 1000;\r\n        initialPATOPerBlock = PATOPerBlock;\r\n\r\n    }\r\n\r\n    //Pato Fuctions\r\n    //------------------- GETTERS/ VIEWS----------------------------\r\n    // Return reward multiplier over the given _from to _to block.\r\n    function getMultiplier(uint256 _from, uint256 _to) public view returns (uint256) {\r\n        return _to.sub(_from).mul(BONUS_MULTIPLIER);\r\n    }\r\n\r\n    // View function to see pending TUPATO on frontend.\r\n    function pendingPATO(uint256 _pid, address _user) external view returns (uint256) {\r\n        PoolInfo storage pool = poolInfo[_pid];\r\n        UserInfo storage user = userInfo[_pid][_user];\r\n        uint256 accPATOPerShare = pool.accPATOPerShare;\r\n        uint256 stakedSupply = pool.stakedToken.balanceOf(address(this));\r\n        if (block.number > pool.lastRewardBlock && stakedSupply != 0) {\r\n            uint256 multiplier = getMultiplier(pool.lastRewardBlock, block.number);\r\n            uint256 PATOReward = multiplier.mul(PATOPerBlock).mul(pool.allocPoint).div(totalAllocPoint);\r\n            accPATOPerShare = accPATOPerShare.add(PATOReward.mul(1e12).div(stakedSupply));\r\n        }\r\n        return user.amount.mul(accPATOPerShare).div(1e12).sub(user.rewardDebt);\r\n    }   \r\n\r\n    function poolLength() external view returns (uint256) {\r\n        return poolInfo.length;\r\n    }\r\n\r\n    //Cant of user in all stakes.\r\n    function cantOfusers() public view returns(uint){\r\n        return cantUsers;\r\n    }\r\n    //Tokens en la pool.\r\n    function tokenInPool(uint _pid) public view returns (uint){\r\n        return poolInfo[_pid].totalTokensInPool;\r\n    }\r\n    //Amount of tokens in pool for each user\r\n    function userAmountInPool(uint256 _pid, address _address) public view returns (uint){      \r\n        \r\n        return  userInfo[_pid][_address].amount;\r\n    }\r\n    //Reward per day of msg.sender\r\n    function rewardsPerDay(uint256 _pid, address _address) public view returns (uint){      \r\n        \r\n        return  userInfo[_pid][_address].amount.mul(28800).div(poolInfo[_pid].totalTokensInPool).mul(PATOPerBlock); \r\n    }\r\n    //-------------------------------------------------------------------------------\r\n\r\n    function updateMultiplier(uint256 multiplierNumber) public onlyOwner {\r\n        BONUS_MULTIPLIER = multiplierNumber;\r\n    }    \r\n\r\n    // Add a new staking token to the pool. Can only be called by the owner.\r\n    // XXX DO NOT add the same staking token more than once. Rewards will be messed up if you do.\r\n    function addPool(uint256 _allocPoint, IERC20 _stakedToken, bool _withUpdate) public onlyOwner {\r\n        if (_withUpdate) {\r\n            massUpdatePools();\r\n        }\r\n        uint256 lastRewardBlock = block.number > startBlock ? block.number : startBlock;\r\n        totalAllocPoint = totalAllocPoint.add(_allocPoint);\r\n        poolInfo.push(PoolInfo({\r\n            stakedToken: _stakedToken,\r\n            allocPoint: _allocPoint,\r\n            lastRewardBlock: lastRewardBlock,\r\n            accPATOPerShare: 0,\r\n            totalTokensInPool: 0\r\n        }));\r\n        updateStakingPool();\r\n    }\r\n\r\n    // Update the given pool's TUpato allocation point. Can only be called by the owner.\r\n    function set(uint256 _pid, uint256 _allocPoint, bool _withUpdate) public onlyOwner {\r\n        if (_withUpdate) {\r\n            massUpdatePools();\r\n        }\r\n        uint256 prevAllocPoint = poolInfo[_pid].allocPoint;\r\n        poolInfo[_pid].allocPoint = _allocPoint;\r\n        if (prevAllocPoint != _allocPoint) {\r\n            totalAllocPoint = totalAllocPoint.sub(prevAllocPoint).add(_allocPoint);\r\n            updateStakingPool();\r\n        }\r\n    }\r\n\r\n    function updateStakingPool() internal {\r\n        uint256 length = poolInfo.length;\r\n        uint256 points = 0;\r\n        for (uint256 pid = 1; pid < length; ++pid) {\r\n            points = points.add(poolInfo[pid].allocPoint);\r\n        }\r\n        if (points != 0) {\r\n            points = points.div(3);\r\n            totalAllocPoint = totalAllocPoint.sub(poolInfo[0].allocPoint).add(points);\r\n            poolInfo[0].allocPoint = points;\r\n        }\r\n    }\r\n\r\n    \r\n\r\n    // Update reward variables for all pools. Be careful of gas spending!\r\n    function massUpdatePools() public {\r\n        uint256 length = poolInfo.length;\r\n        for (uint256 pid = 0; pid < length; ++pid) {\r\n            updatePool(pid);\r\n        }\r\n    }\r\n\r\n\r\n    // Update reward variables of the given pool to be up-to-date.\r\n    function updatePool(uint256 _pid) public {\r\n        PoolInfo storage pool = poolInfo[_pid];\r\n        if (block.number <= pool.lastRewardBlock) {\r\n            return;\r\n        }\r\n        uint256 stakedSupply = pool.stakedToken.balanceOf(address(this));\r\n        if (stakedSupply == 0) {\r\n            pool.lastRewardBlock = block.number;\r\n            return;\r\n        }\r\n        uint256 multiplier = getMultiplier(pool.lastRewardBlock, block.number);\r\n        uint256 PATOReward = multiplier.mul(PATOPerBlock).mul(pool.allocPoint).div(totalAllocPoint);\r\n\r\n        if(PATO.totalSupply() < 1000000 ether - PATOReward.mul(11).div(10)){\r\n            PATO.mint(devaddr, PATOReward.div(10));\r\n            PATO.mint(address(rewardContract), PATOReward);\r\n        }\r\n\r\n        pool.accPATOPerShare = pool.accPATOPerShare.add(PATOReward.mul(1e12).div(stakedSupply));\r\n        pool.lastRewardBlock = block.number;\r\n    }\r\n\r\n    // Deposit LP tokens to MasterChef for pato allocation.    \r\n    function deposit(uint256 _pid, uint256 _amount) public {\r\n        PoolInfo storage pool = poolInfo[_pid];\r\n        UserInfo storage user = userInfo[_pid][msg.sender];\r\n        updatePool(_pid);\r\n        if(rewardsActive){\r\n            if (user.amount > 0) {\r\n                uint256 pending = user.amount.mul(pool.accPATOPerShare).div(1e12).sub(user.rewardDebt);\r\n                if(pending > 0) {\r\n                    rewardContract.payTo(msg.sender, pending);\r\n                }\r\n            }\r\n        }\r\n        if (user.amount == 0){\r\n            cantUsers = cantUsers.add(1);\r\n        }\r\n        \r\n        if (_amount > 0) {\r\n            pool.stakedToken.safeTransferFrom(address(msg.sender), address(this), _amount);            \r\n            pool.totalTokensInPool = pool.totalTokensInPool.add(_amount);\r\n            \r\n            user.amount = user.amount.add(_amount);\r\n        } \r\n        if(rewardsActive){      \r\n            user.rewardDebt = user.amount.mul(pool.accPATOPerShare).div(1e12);\r\n        }\r\n\r\n        \r\n        //multiplierAutomatic();\r\n        emit Deposit(msg.sender, _pid, _amount);\r\n    }\r\n\r\n    // Withdraw LP tokens from MasterChef.\r\n    function withdraw(uint256 _pid, uint256 _amount) public {\r\n        //require(rewardsActive == true, \"Las recompenza aun no estan preparadas\");\r\n        PoolInfo storage pool = poolInfo[_pid];\r\n        UserInfo storage user = userInfo[_pid][msg.sender];        \r\n        require(user.amount >= _amount, \"withdraw exceeds user balance\");\r\n        \r\n\r\n        updatePool(_pid);\r\n        uint256 pending = user.amount.mul(pool.accPATOPerShare).div(1e12).sub(user.rewardDebt);\r\n        if(rewardsActive){\r\n            if(pending > 0) {\r\n                rewardContract.payTo(msg.sender, pending);\r\n            }\r\n        }\r\n        if(_amount > 0) {\r\n\r\n            uint256 depositFee = _amount.mul(fee).div(10000);\r\n            uint256 amountFee =  _amount.sub(depositFee);\r\n\r\n            pool.stakedToken.safeTransfer(devaddr, depositFee);\r\n            user.amount = user.amount.sub(_amount);          \r\n            pool.stakedToken.safeTransfer(address(msg.sender), amountFee);\r\n            \r\n            pool.totalTokensInPool = pool.totalTokensInPool.sub(_amount);\r\n        }\r\n\r\n        if(rewardsActive ){\r\n            user.rewardDebt = user.amount.mul(pool.accPATOPerShare).div(1e12);\r\n        }\r\n\r\n        if(user.amount == 0){\r\n            cantUsers =cantUsers.sub(1);\r\n        }        \r\n        emit Withdraw(msg.sender, _pid, _amount);\r\n    }\r\n\r\n    // Withdraw without caring about rewards. EMERGENCY ONLY.\r\n    function emergencyWithdraw(uint256 _pid) public {\r\n        PoolInfo storage pool = poolInfo[_pid];\r\n        UserInfo storage user = userInfo[_pid][msg.sender];\r\n        pool.stakedToken.safeTransfer(address(msg.sender), user.amount);\r\n        emit EmergencyWithdraw(msg.sender, _pid, user.amount);\r\n        user.amount = 0;\r\n        user.rewardDebt = 0;\r\n        if(user.amount == 0){\r\n            cantUsers =cantUsers.sub(1);\r\n        }  \r\n\r\n    }\r\n\r\n    // Update dev address by the previous dev.\r\n    function dev(address _devaddr) public {\r\n        require(msg.sender == devSetter, \"devSetter: wut?\");\r\n        devaddr = _devaddr;\r\n    }\r\n\r\n    // brrr en tu cartera\r\n    function brrr(uint256 _pid) public{\r\n        require(rewardsActive == true, \"Las recompenza aun no estan preparadas\");\r\n        updatePool(_pid);\r\n        \r\n        PoolInfo storage pool = poolInfo[_pid];\r\n        UserInfo storage user = userInfo[_pid][msg.sender];\r\n        uint256 accPATOPerShare = pool.accPATOPerShare;\r\n        uint256 stakedSupply = pool.stakedToken.balanceOf(address(this));\r\n        if (block.number > pool.lastRewardBlock && stakedSupply != 0) {\r\n            uint256 multiplier = getMultiplier(pool.lastRewardBlock, block.number);\r\n            uint256 PATOReward = multiplier.mul(PATOPerBlock).mul(pool.allocPoint).div(totalAllocPoint);\r\n            accPATOPerShare = accPATOPerShare.add(PATOReward.mul(1e12).div(stakedSupply));\r\n        }\r\n\r\n        uint256 pending = user.amount.mul(accPATOPerShare).div(1e12).sub(user.rewardDebt);\r\n        //PATOCODE\r\n        //uint256 userPerBLock = user.amount.mul(PATOPerBlock).div(pool.totalTokensInPool).mul(28800);\r\n        require(pending > 0, \"No pending to brrr\");\r\n        rewardContract.payTo(msg.sender, pending);\r\n        user.rewardDebt = user.amount.mul(accPATOPerShare).div(1e12);\r\n    }\r\n\r\n    // Reinvest PATO\r\n    function reinvest() public{\r\n        require(rewardsActive == true, \"Las recompenza aun no estan preparadas\");\r\n        PoolInfo storage pool = poolInfo[0];\r\n        UserInfo storage user = userInfo[0][msg.sender];\r\n        updatePool(0);\r\n        \r\n        uint256 pending = user.amount.mul(pool.accPATOPerShare).div(1e12).sub(user.rewardDebt);\r\n        require(pending > 0, \"No pending to reinvest\");\r\n\r\n        rewardContract.payTo(address(this), pending);\r\n        user.amount = user.amount.add(pending - pending.mul(7).div(1000));\r\n        pool.totalTokensInPool = pool.totalTokensInPool.add(pending - pending.mul(7).div(1000));\r\n        \r\n        user.rewardDebt = user.amount.mul(pool.accPATOPerShare).div(1e12);\r\n        emit Deposit(msg.sender, 0, pending);\r\n    }\r\n\r\n    //returns the pid of the pool\r\n    function findPidOf(IERC20 token) public view returns (uint256 _pid){\r\n        \r\n        uint length = poolInfo.length;\r\n        for(uint256 i = 0; i < length; i++){\r\n            if(token == poolInfo[i].stakedToken){\r\n                return i;\r\n            }\r\n        }\r\n    }\r\n    \r\n\r\n    //Setters-----------------------------------------------\r\n    //Configurar fee Default 200(2%)\r\n    function setFee(uint _fee) public onlyOwner {\r\n        fee = _fee;       \r\n    }\r\n\r\n    //Activar retiros de reward.sol\r\n    function setActive(bool _rewardsActive) public onlyOwner {\r\n        rewardsActive = _rewardsActive;\r\n    }\r\n    \r\n}",
  "sourcePath": "C:\\Escritorio\\Proyects\\MainNet\\PatoVerdeProjects-contract\\contracts\\Staking.sol",
  "compiler": {
    "name": "solc",
    "version": "0.8.0+commit.c7dfd78e.Emscripten.clang"
  },
  "schemaVersion": "3.4.3",
  "updatedAt": "2021-11-25T01:08:01.734Z",
  "devdoc": {
    "kind": "dev",
    "methods": {
      "owner()": {
        "details": "Returns the address of the current owner."
      },
      "renounceOwnership()": {
        "details": "Leaves the contract without owner. It will not be possible to call `onlyOwner` functions anymore. Can only be called by the current owner. NOTE: Renouncing ownership will leave the contract without an owner, thereby removing any functionality that is only available to the owner."
      },
      "transferOwnership(address)": {
        "details": "Transfers ownership of the contract to a new account (`newOwner`). Can only be called by the current owner."
      }
    },
    "version": 1
  },
  "userdoc": {
    "kind": "user",
    "methods": {},
    "version": 1
  }
}