{
  "contractName": "Staking",
  "abi": [
    {
      "inputs": [
        {
          "internalType": "contract PCMToken",
          "name": "_viellas",
          "type": "address"
        },
        {
          "internalType": "address",
          "name": "_devaddr",
          "type": "address"
        },
        {
          "internalType": "address",
          "name": "_devSetter",
          "type": "address"
        },
        {
          "internalType": "uint256",
          "name": "_viellasPerBlock",
          "type": "uint256"
        },
        {
          "internalType": "uint256",
          "name": "_startBlock",
          "type": "uint256"
        },
        {
          "internalType": "contract IReward",
          "name": "_rewardContract",
          "type": "address"
        }
      ],
      "stateMutability": "nonpayable",
      "type": "constructor"
    },
    {
      "anonymous": false,
      "inputs": [
        {
          "indexed": true,
          "internalType": "address",
          "name": "user",
          "type": "address"
        },
        {
          "indexed": true,
          "internalType": "uint256",
          "name": "pid",
          "type": "uint256"
        },
        {
          "indexed": false,
          "internalType": "uint256",
          "name": "amount",
          "type": "uint256"
        }
      ],
      "name": "Deposit",
      "type": "event"
    },
    {
      "anonymous": false,
      "inputs": [
        {
          "indexed": true,
          "internalType": "address",
          "name": "user",
          "type": "address"
        },
        {
          "indexed": true,
          "internalType": "uint256",
          "name": "pid",
          "type": "uint256"
        },
        {
          "indexed": false,
          "internalType": "uint256",
          "name": "amount",
          "type": "uint256"
        }
      ],
      "name": "EmergencyWithdraw",
      "type": "event"
    },
    {
      "anonymous": false,
      "inputs": [
        {
          "indexed": true,
          "internalType": "address",
          "name": "previousOwner",
          "type": "address"
        },
        {
          "indexed": true,
          "internalType": "address",
          "name": "newOwner",
          "type": "address"
        }
      ],
      "name": "OwnershipTransferred",
      "type": "event"
    },
    {
      "anonymous": false,
      "inputs": [
        {
          "indexed": true,
          "internalType": "address",
          "name": "user",
          "type": "address"
        },
        {
          "indexed": true,
          "internalType": "uint256",
          "name": "pid",
          "type": "uint256"
        },
        {
          "indexed": false,
          "internalType": "uint256",
          "name": "amount",
          "type": "uint256"
        }
      ],
      "name": "Withdraw",
      "type": "event"
    },
    {
      "inputs": [],
      "name": "BONUS_MULTIPLIER",
      "outputs": [
        {
          "internalType": "uint256",
          "name": "",
          "type": "uint256"
        }
      ],
      "stateMutability": "view",
      "type": "function"
    },
    {
      "inputs": [],
      "name": "devSetter",
      "outputs": [
        {
          "internalType": "address",
          "name": "",
          "type": "address"
        }
      ],
      "stateMutability": "view",
      "type": "function"
    },
    {
      "inputs": [],
      "name": "devaddr",
      "outputs": [
        {
          "internalType": "address",
          "name": "",
          "type": "address"
        }
      ],
      "stateMutability": "view",
      "type": "function"
    },
    {
      "inputs": [],
      "name": "initialViellasPerBlock",
      "outputs": [
        {
          "internalType": "uint256",
          "name": "",
          "type": "uint256"
        }
      ],
      "stateMutability": "view",
      "type": "function"
    },
    {
      "inputs": [],
      "name": "owner",
      "outputs": [
        {
          "internalType": "address",
          "name": "",
          "type": "address"
        }
      ],
      "stateMutability": "view",
      "type": "function"
    },
    {
      "inputs": [
        {
          "internalType": "uint256",
          "name": "",
          "type": "uint256"
        }
      ],
      "name": "poolInfo",
      "outputs": [
        {
          "internalType": "contract IERC20",
          "name": "stakedToken",
          "type": "address"
        },
        {
          "internalType": "uint256",
          "name": "allocPoint",
          "type": "uint256"
        },
        {
          "internalType": "uint256",
          "name": "lastRewardBlock",
          "type": "uint256"
        },
        {
          "internalType": "uint256",
          "name": "accViellasPerShare",
          "type": "uint256"
        }
      ],
      "stateMutability": "view",
      "type": "function"
    },
    {
      "inputs": [],
      "name": "renounceOwnership",
      "outputs": [],
      "stateMutability": "nonpayable",
      "type": "function"
    },
    {
      "inputs": [],
      "name": "rewardContract",
      "outputs": [
        {
          "internalType": "contract IReward",
          "name": "",
          "type": "address"
        }
      ],
      "stateMutability": "view",
      "type": "function"
    },
    {
      "inputs": [],
      "name": "startBlock",
      "outputs": [
        {
          "internalType": "uint256",
          "name": "",
          "type": "uint256"
        }
      ],
      "stateMutability": "view",
      "type": "function"
    },
    {
      "inputs": [],
      "name": "totalAllocPoint",
      "outputs": [
        {
          "internalType": "uint256",
          "name": "",
          "type": "uint256"
        }
      ],
      "stateMutability": "view",
      "type": "function"
    },
    {
      "inputs": [
        {
          "internalType": "address",
          "name": "newOwner",
          "type": "address"
        }
      ],
      "name": "transferOwnership",
      "outputs": [],
      "stateMutability": "nonpayable",
      "type": "function"
    },
    {
      "inputs": [
        {
          "internalType": "uint256",
          "name": "",
          "type": "uint256"
        },
        {
          "internalType": "address",
          "name": "",
          "type": "address"
        }
      ],
      "name": "userInfo",
      "outputs": [
        {
          "internalType": "uint256",
          "name": "amount",
          "type": "uint256"
        },
        {
          "internalType": "uint256",
          "name": "rewardDebt",
          "type": "uint256"
        }
      ],
      "stateMutability": "view",
      "type": "function"
    },
    {
      "inputs": [],
      "name": "viellas",
      "outputs": [
        {
          "internalType": "contract PCMToken",
          "name": "",
          "type": "address"
        }
      ],
      "stateMutability": "view",
      "type": "function"
    },
    {
      "inputs": [],
      "name": "viellasPerBlock",
      "outputs": [
        {
          "internalType": "uint256",
          "name": "",
          "type": "uint256"
        }
      ],
      "stateMutability": "view",
      "type": "function"
    },
    {
      "inputs": [
        {
          "internalType": "uint256",
          "name": "multiplierNumber",
          "type": "uint256"
        }
      ],
      "name": "updateMultiplier",
      "outputs": [],
      "stateMutability": "nonpayable",
      "type": "function"
    },
    {
      "inputs": [],
      "name": "poolLength",
      "outputs": [
        {
          "internalType": "uint256",
          "name": "",
          "type": "uint256"
        }
      ],
      "stateMutability": "view",
      "type": "function"
    },
    {
      "inputs": [
        {
          "internalType": "uint256",
          "name": "_allocPoint",
          "type": "uint256"
        },
        {
          "internalType": "contract IERC20",
          "name": "_stakedToken",
          "type": "address"
        },
        {
          "internalType": "bool",
          "name": "_withUpdate",
          "type": "bool"
        }
      ],
      "name": "add",
      "outputs": [],
      "stateMutability": "nonpayable",
      "type": "function"
    },
    {
      "inputs": [
        {
          "internalType": "uint256",
          "name": "_pid",
          "type": "uint256"
        },
        {
          "internalType": "uint256",
          "name": "_allocPoint",
          "type": "uint256"
        },
        {
          "internalType": "bool",
          "name": "_withUpdate",
          "type": "bool"
        }
      ],
      "name": "set",
      "outputs": [],
      "stateMutability": "nonpayable",
      "type": "function"
    },
    {
      "inputs": [
        {
          "internalType": "uint256",
          "name": "_from",
          "type": "uint256"
        },
        {
          "internalType": "uint256",
          "name": "_to",
          "type": "uint256"
        }
      ],
      "name": "getMultiplier",
      "outputs": [
        {
          "internalType": "uint256",
          "name": "",
          "type": "uint256"
        }
      ],
      "stateMutability": "view",
      "type": "function"
    },
    {
      "inputs": [
        {
          "internalType": "uint256",
          "name": "_pid",
          "type": "uint256"
        },
        {
          "internalType": "address",
          "name": "_user",
          "type": "address"
        }
      ],
      "name": "pendingViellas",
      "outputs": [
        {
          "internalType": "uint256",
          "name": "",
          "type": "uint256"
        }
      ],
      "stateMutability": "view",
      "type": "function"
    },
    {
      "inputs": [],
      "name": "massUpdatePools",
      "outputs": [],
      "stateMutability": "nonpayable",
      "type": "function"
    },
    {
      "inputs": [
        {
          "internalType": "uint256",
          "name": "_pid",
          "type": "uint256"
        }
      ],
      "name": "updatePool",
      "outputs": [],
      "stateMutability": "nonpayable",
      "type": "function"
    },
    {
      "inputs": [
        {
          "internalType": "uint256",
          "name": "_pid",
          "type": "uint256"
        },
        {
          "internalType": "uint256",
          "name": "_amount",
          "type": "uint256"
        }
      ],
      "name": "deposit",
      "outputs": [],
      "stateMutability": "nonpayable",
      "type": "function"
    },
    {
      "inputs": [
        {
          "internalType": "uint256",
          "name": "_pid",
          "type": "uint256"
        },
        {
          "internalType": "uint256",
          "name": "_amount",
          "type": "uint256"
        }
      ],
      "name": "withdraw",
      "outputs": [],
      "stateMutability": "nonpayable",
      "type": "function"
    },
    {
      "inputs": [
        {
          "internalType": "uint256",
          "name": "_pid",
          "type": "uint256"
        }
      ],
      "name": "emergencyWithdraw",
      "outputs": [],
      "stateMutability": "nonpayable",
      "type": "function"
    },
    {
      "inputs": [
        {
          "internalType": "address",
          "name": "_devaddr",
          "type": "address"
        }
      ],
      "name": "dev",
      "outputs": [],
      "stateMutability": "nonpayable",
      "type": "function"
    },
    {
      "inputs": [
        {
          "internalType": "uint256",
          "name": "_pid",
          "type": "uint256"
        }
      ],
      "name": "brrr",
      "outputs": [],
      "stateMutability": "nonpayable",
      "type": "function"
    },
    {
      "inputs": [],
      "name": "reinvest",
      "outputs": [],
      "stateMutability": "nonpayable",
      "type": "function"
    },
    {
      "inputs": [
        {
          "internalType": "contract IERC20",
          "name": "token",
          "type": "address"
        }
      ],
      "name": "findPidOf",
      "outputs": [
        {
          "internalType": "uint256",
          "name": "_pid",
          "type": "uint256"
        }
      ],
      "stateMutability": "view",
      "type": "function"
    },
    {
      "inputs": [],
      "name": "halving",
      "outputs": [],
      "stateMutability": "nonpayable",
      "type": "function"
    }
  ],
  "bytecode": "0x608060405260016007556000600a553480156200001b57600080fd5b5060405162002567380380620025678339810160408190526200003e91620001ff565b6200006462000055640100000000620001ab810204565b640100000000620001af810204565b60018054600160a060020a0319908116600160a060020a039889169081178355600380548316988a16989098179097556004805482169689169690961786556005948555600b84905560028054821693891693909317909255604080516080810182529687526103e86020880181815291880194855260006060890181815260088054958601815590915297517ff3f7a9fe364faab93b216da50a3214154f22a0a2b415b23a84c8169e8b636ee3939097029283018054909416969098169590951790915592517ff3f7a9fe364faab93b216da50a3214154f22a0a2b415b23a84c8169e8b636ee4840155517ff3f7a9fe364faab93b216da50a3214154f22a0a2b415b23a84c8169e8b636ee583015591517ff3f7a9fe364faab93b216da50a3214154f22a0a2b415b23a84c8169e8b636ee690910155600a919091555460065562000294565b3390565b60008054600160a060020a03838116600160a060020a0319831681178455604051919092169283917f8be0079c531659141344cd1fd0a4f28419497f9722a3daafe3b4186f6b6457e09190a35050565b60008060008060008060c0878903121562000218578182fd5b865162000225816200027b565b602088015190965062000238816200027b565b60408801519095506200024b816200027b565b80945050606087015192506080870151915060a08701516200026d816200027b565b809150509295509295509295565b600160a060020a03811681146200029157600080fd5b50565b6122c380620002a46000396000f3fe608060405234801561001057600080fd5b50600436106101de5760003560e060020a900480638d88a90e11610108578063c8df245a116100a6578063f2fde38b11610075578063f2fde38b1461037a578063f49ca2b51461038d578063fdb5a03e146103a0578063ffaa9429146103a8576101de565b8063c8df245a1461034f578063d0014e6b14610357578063d49e77cd1461035f578063e2bbb15814610367576101de565b806393f1a40b116100e257806393f1a40b14610316578063948b108b14610337578063a55cc45f1461033f578063b667e14b14610347576101de565b80638d88a90e146102e85780638da5cb5b146102fb5780638dbb1e3a14610303576101de565b806351eb05a61161018057806364482f791161014f57806364482f79146102b05780636ea69d62146102c3578063715018a6146102d85780638aa28550146102e0576101de565b806351eb05a61461026f5780635312ea8e146102825780635ffe614614610295578063630b5ba1146102a8576101de565b806317caf6f1116101bc57806317caf6f1146102375780631eaaa0451461023f578063441a3e701461025457806348cd4cb114610267576101de565b8063081e3eda146101e35780631526fe2714610201578063161d646714610224575b600080fd5b6101eb6103bb565b6040516101f8919061206c565b60405180910390f35b61021461020f366004611b57565b6103c1565b6040516101f89493929190611cb2565b6101eb610232366004611b1f565b610405565b6101eb610480565b61025261024d366004611bb6565b610486565b005b610252610262366004611bf7565b61060c565b6101eb6107be565b61025261027d366004611b57565b6107c4565b610252610290366004611b57565b610ada565b6102526102a3366004611b57565b610b90565b610252610bd7565b6102526102be366004611c18565b610c02565b6102cb610cf7565b6040516101f89190611c61565b610252610d06565b6101eb610d54565b6102526102f6366004611b1f565b610d5a565b6102cb610db6565b6101eb610311366004611bf7565b610dc5565b610329610324366004611b87565b610de2565b6040516101f8929190612075565b6101eb610e06565b6102cb610e0c565b6102cb610e1b565b610252610e2a565b6101eb610ed2565b6102cb610ed8565b610252610375366004611bf7565b610ee7565b610252610388366004611b1f565b611073565b61025261039b366004611b57565b6110e7565b61025261132f565b6101eb6103b6366004611b87565b6114ea565b60085490565b600881815481106103d157600080fd5b60009182526020909120600490910201805460018201546002830154600390930154600160a060020a039092169350919084565b600854600090815b8181101561047857600881815481106104395760e060020a634e487b7102600052603260045260246000fd5b6000918252602090912060049091020154600160a060020a038581169116141561046657915061047b9050565b8061047081612236565b91505061040d565b50505b919050565b600a5481565b61048e61167d565b600160a060020a031661049f610db6565b600160a060020a0316146104d15760405160e560020a62461bcd0281526004016104c890611efe565b60405180910390fd5b80156104df576104df610bd7565b6000600b5443116104f257600b546104f4565b435b600a549091506105049085611681565b600a5560408051608081018252600160a060020a0385811682526020820187815292820184815260006060840181815260088054600181018255925293517ff3f7a9fe364faab93b216da50a3214154f22a0a2b415b23a84c8169e8b636ee36004909202918201805473ffffffffffffffffffffffffffffffffffffffff1916919094161790925592517ff3f7a9fe364faab93b216da50a3214154f22a0a2b415b23a84c8169e8b636ee482015591517ff3f7a9fe364faab93b216da50a3214154f22a0a2b415b23a84c8169e8b636ee5830155517ff3f7a9fe364faab93b216da50a3214154f22a0a2b415b23a84c8169e8b636ee6909101556106066116b3565b50505050565b6000600883815481106106325760e060020a634e487b7102600052603260045260246000fd5b60009182526020808320868452600982526040808520338652909252922080546004909202909201925083111561067e5760405160e560020a62461bcd0281526004016104c890612035565b610687846107c4565b60006106c182600101546106bb64e8d4a510006106b5876003015487600001546117c590919063ffffffff16565b9061180d565b9061183b565b905080156107315760025460405160e060020a637bf08621028152600160a060020a0390911690637bf08621906106fe9033908590600401611c99565b600060405180830381600087803b15801561071857600080fd5b505af115801561072c573d6000803e3d6000fd5b505050505b831561075b578154610743908561183b565b8255825461075b90600160a060020a0316338661186a565b600383015482546107769164e8d4a51000916106b5916117c5565b6001830155604051859033907ff279e6a1f5e320cca91135676d9cb6e44ca8a08c0b88342bcdb1144f6511b568906107af90889061206c565b60405180910390a35050505050565b600b5481565b6000600882815481106107ea5760e060020a634e487b7102600052603260045260246000fd5b906000526020600020906004020190508060020154431161080b5750610ad7565b80546040517f70a08231000000000000000000000000000000000000000000000000000000008152600091600160a060020a0316906370a0823190610854903090600401611c61565b60206040518083038186803b15801561086c57600080fd5b505afa158015610880573d6000803e3d6000fd5b505050506040513d601f19601f820116820180604052508101906108a49190611b6f565b9050806108b8575043600290910155610ad7565b60006108c8836002015443610dc5565b905060006108f5600a546106b586600101546108ef600554876117c590919063ffffffff16565b906117c5565b9050610907600a6106b583600b6117c5565b61091b9069d3c21bcecceda10000006121f3565b600160009054906101000a9004600160a060020a0316600160a060020a03166318160ddd6040518163ffffffff1660e060020a02815260040160206040518083038186803b15801561096c57600080fd5b505afa158015610980573d6000803e3d6000fd5b505050506040513d601f19601f820116820180604052508101906109a49190611b6f565b1015610aa357600154600354600160a060020a03918216916340c10f1991166109ce84600a61180d565b6040518363ffffffff1660e060020a0281526004016109ee929190611c99565b600060405180830381600087803b158015610a0857600080fd5b505af1158015610a1c573d6000803e3d6000fd5b50506001546002546040517f40c10f19000000000000000000000000000000000000000000000000000000008152600160a060020a0392831694506340c10f199350610a7092909116908590600401611c99565b600060405180830381600087803b158015610a8a57600080fd5b505af1158015610a9e573d6000803e3d6000fd5b505050505b610ac4610ab9846106b58464e8d4a510006117c5565b600386015490611681565b6003850155505043600290920191909155505b50565b600060088281548110610b005760e060020a634e487b7102600052603260045260246000fd5b60009182526020808320858452600982526040808520338087529352909320805460049093029093018054909450610b4592600160a060020a0391909116919061186a565b8054604051849133917fbb757047c2b5f3974fe26b7c10f732e7bce710b0952a71082702781e62ae059591610b799161206c565b60405180910390a360008082556001909101555050565b610b9861167d565b600160a060020a0316610ba9610db6565b600160a060020a031614610bd25760405160e560020a62461bcd0281526004016104c890611efe565b600755565b60085460005b81811015610bfe57610bee816107c4565b610bf781612236565b9050610bdd565b5050565b610c0a61167d565b600160a060020a0316610c1b610db6565b600160a060020a031614610c445760405160e560020a62461bcd0281526004016104c890611efe565b8015610c5257610c52610bd7565b600060088481548110610c785760e060020a634e487b7102600052603260045260246000fd5b90600052602060002090600402016001015490508260088581548110610cb15760e060020a634e487b7102600052603260045260246000fd5b90600052602060002090600402016001018190555082811461060657610cec83610ce683600a5461183b90919063ffffffff16565b90611681565b600a556106066116b3565b600254600160a060020a031681565b610d0e61167d565b600160a060020a0316610d1f610db6565b600160a060020a031614610d485760405160e560020a62461bcd0281526004016104c890611efe565b610d5260006118f5565b565b60075481565b600454600160a060020a03163314610d875760405160e560020a62461bcd0281526004016104c890611f33565b6003805473ffffffffffffffffffffffffffffffffffffffff1916600160a060020a0392909216919091179055565b600054600160a060020a031690565b600754600090610dd9906108ef848661183b565b90505b92915050565b60096020908152600092835260408084209091529082529020805460019091015482565b60065481565b600454600160a060020a031681565b600154600160a060020a031681565b610e3261167d565b600160a060020a0316610e43610db6565b600160a060020a031614610e6c5760405160e560020a62461bcd0281526004016104c890611efe565b600b54431115610e7b57610d52565b6000600b5443610e8b91906121f3565b9050600080610e9a838261180d565b90506000610eb5610eac836002612106565b6006549061180d565b9050806005541415610eca5750505050610d52565b600555505050565b60055481565b600354600160a060020a031681565b600060088381548110610f0d5760e060020a634e487b7102600052603260045260246000fd5b60009182526020808320868452600982526040808520338652909252922060049091029091019150610f3e846107c4565b805415610fe5576000610f7382600101546106bb64e8d4a510006106b5876003015487600001546117c590919063ffffffff16565b90508015610fe35760025460405160e060020a637bf08621028152600160a060020a0390911690637bf0862190610fb09033908590600401611c99565b600060405180830381600087803b158015610fca57600080fd5b505af1158015610fde573d6000803e3d6000fd5b505050505b505b821561101157815461100290600160a060020a0316333086611952565b805461100e9084611681565b81555b6003820154815461102c9164e8d4a51000916106b5916117c5565b6001820155604051849033907f90890809c654f11d6e72a28fa60149770a0d11ec6c92319d6ceb2bb0a4ea1a159061106590879061206c565b60405180910390a350505050565b61107b61167d565b600160a060020a031661108c610db6565b600160a060020a0316146110b55760405160e560020a62461bcd0281526004016104c890611efe565b600160a060020a0381166110de5760405160e560020a62461bcd0281526004016104c890611d0b565b610ad7816118f5565b6110f0816107c4565b6000600882815481106111165760e060020a634e487b7102600052603260045260246000fd5b6000918252602080832085845260098252604080852033865290925281842060049384029091016003810154815493517f70a08231000000000000000000000000000000000000000000000000000000008152919650919491939192600160a060020a0316916370a082319161118e91309101611c61565b60206040518083038186803b1580156111a657600080fd5b505afa1580156111ba573d6000803e3d6000fd5b505050506040513d601f19601f820116820180604052508101906111de9190611b6f565b90508360020154431180156111f257508015155b15611252576000611207856002015443610dc5565b9050600061122e600a546106b588600101546108ef600554876117c590919063ffffffff16565b905061124d611246846106b58464e8d4a510006117c5565b8590611681565b935050505b600061127c84600101546106bb64e8d4a510006106b58789600001546117c590919063ffffffff16565b9050600081116112a15760405160e560020a62461bcd0281526004016104c890611dd6565b60025460405160e060020a637bf08621028152600160a060020a0390911690637bf08621906112d69033908590600401611c99565b600060405180830381600087803b1580156112f057600080fd5b505af1158015611304573d6000803e3d6000fd5b5050855461131f925064e8d4a5100091506106b590866117c5565b8460010181905550505050505050565b600060086000815481106113565760e060020a634e487b7102600052603260045260246000fd5b600091825260208083203384527fec8156718a8372b1db44bb411437d0870f3e3790d4a08526d024ce1b0b668f6b9091526040832060049092020192509061139d906107c4565b60006113cb82600101546106bb64e8d4a510006106b5876003015487600001546117c590919063ffffffff16565b9050600081116113f05760405160e560020a62461bcd0281526004016104c890611fa1565b60025460405160e060020a637bf08621028152600160a060020a0390911690637bf08621906114259030908590600401611c99565b600060405180830381600087803b15801561143f57600080fd5b505af1158015611453573d6000803e3d6000fd5b505050506114866114746103e86106b56007856117c590919063ffffffff16565b61147e90836121f3565b835490611681565b80835560038401546114a39164e8d4a51000916106b591906117c5565b600183015560405160009033907f90890809c654f11d6e72a28fa60149770a0d11ec6c92319d6ceb2bb0a4ea1a15906114dd90859061206c565b60405180910390a3505050565b600080600884815481106115115760e060020a634e487b7102600052603260045260246000fd5b60009182526020808320878452600982526040808520600160a060020a038981168752935280852060049485029092016003810154815492517f70a0823100000000000000000000000000000000000000000000000000000000815291975092959294929391909116916370a082319161158d91309101611c61565b60206040518083038186803b1580156115a557600080fd5b505afa1580156115b9573d6000803e3d6000fd5b505050506040513d601f19601f820116820180604052508101906115dd9190611b6f565b90508360020154431180156115f157508015155b1561164a576000611606856002015443610dc5565b9050600061162d600a546106b588600101546108ef600554876117c590919063ffffffff16565b9050611645611246846106b58464e8d4a510006117c5565b935050505b61167283600101546106bb64e8d4a510006106b58688600001546117c590919063ffffffff16565b979650505050505050565b3390565b60008061168e8385612083565b905083811015610dd95760405160e560020a62461bcd0281526004016104c890611d68565b600854600060015b8281101561171d5761170b600882815481106116ea5760e060020a634e487b7102600052603260045260246000fd5b9060005260206000209060040201600101548361168190919063ffffffff16565b915061171681612236565b90506116bb565b508015610bfe5761172f81600361180d565b905061178081610ce6600860008154811061175d5760e060020a634e487b7102600052603260045260246000fd5b906000526020600020906004020160010154600a5461183b90919063ffffffff16565b600a819055508060086000815481106117ac5760e060020a634e487b7102600052603260045260246000fd5b9060005260206000209060040201600101819055505050565b6000826117d457506000610ddc565b60006117e083856121d4565b9050826117ed858361209b565b14610dd95760405160e560020a62461bcd0281526004016104c890611ea1565b60008082116118315760405160e560020a62461bcd0281526004016104c890611e6a565b610dd9828461209b565b6000828211156118605760405160e560020a62461bcd0281526004016104c890611d9f565b610dd982846121f3565b6118f08363a9059cbb60e060020a02848460405160240161188c929190611c99565b60408051601f198184030181529190526020810180517bffffffffffffffffffffffffffffffffffffffffffffffffffffffff167fffffffff0000000000000000000000000000000000000000000000000000000090931692909217909152611976565b505050565b60008054600160a060020a0383811673ffffffffffffffffffffffffffffffffffffffff19831681178455604051919092169283917f8be0079c531659141344cd1fd0a4f28419497f9722a3daafe3b4186f6b6457e09190a35050565b610606846323b872dd60e060020a0285858560405160240161188c93929190611c75565b60006119cb826040518060400160405280602081526020017f5361666545524332303a206c6f772d6c6576656c2063616c6c206661696c656481525085600160a060020a0316611a089092919063ffffffff16565b8051909150156118f057808060200190518101906119e99190611b3b565b6118f05760405160e560020a62461bcd0281526004016104c890611fd8565b6060611a178484600085611a21565b90505b9392505050565b60603031831115611a475760405160e560020a62461bcd0281526004016104c890611e0d565b611a5085611add565b611a6f5760405160e560020a62461bcd0281526004016104c890611f6a565b60008086600160a060020a03168587604051611a8b9190611c45565b60006040518083038185875af1925050503d8060008114611ac8576040519150601f19603f3d011682016040523d82523d6000602084013e611acd565b606091505b5091509150611672828286611ae3565b3b151590565b60608315611af2575081611a1a565b825115611b025782518084602001fd5b8160405160e560020a62461bcd0281526004016104c89190611cd8565b600060208284031215611b30578081fd5b8135610dd98161226a565b600060208284031215611b4c578081fd5b8151610dd98161227f565b600060208284031215611b68578081fd5b5035919050565b600060208284031215611b80578081fd5b5051919050565b60008060408385031215611b99578081fd5b823591506020830135611bab8161226a565b809150509250929050565b600080600060608486031215611bca578081fd5b833592506020840135611bdc8161226a565b91506040840135611bec8161227f565b809150509250925092565b60008060408385031215611c09578182fd5b50508035926020909101359150565b600080600060608486031215611c2c578283fd5b83359250602084013591506040840135611bec8161227f565b60008251611c5781846020870161220a565b9190910192915050565b600160a060020a0391909116815260200190565b600160a060020a039384168152919092166020820152604081019190915260600190565b600160a060020a03929092168252602082015260400190565b600160a060020a0394909416845260208401929092526040830152606082015260800190565b6000602082528251806020840152611cf781604085016020870161220a565b601f01601f19169190910160400192915050565b60208082526026908201527f4f776e61626c653a206e6577206f776e657220697320746865207a65726f206160408201527f6464726573730000000000000000000000000000000000000000000000000000606082015260800190565b6020808252601b908201527f536166654d6174683a206164646974696f6e206f766572666c6f770000000000604082015260600190565b6020808252601e908201527f536166654d6174683a207375627472616374696f6e206f766572666c6f770000604082015260600190565b60208082526012908201527f4e6f2070656e64696e6720746f20627272720000000000000000000000000000604082015260600190565b60208082526026908201527f416464726573733a20696e73756666696369656e742062616c616e636520666f60408201527f722063616c6c0000000000000000000000000000000000000000000000000000606082015260800190565b6020808252601a908201527f536166654d6174683a206469766973696f6e206279207a65726f000000000000604082015260600190565b60208082526021908201527f536166654d6174683a206d756c7469706c69636174696f6e206f766572666c6f60408201527f7700000000000000000000000000000000000000000000000000000000000000606082015260800190565b6020808252818101527f4f776e61626c653a2063616c6c6572206973206e6f7420746865206f776e6572604082015260600190565b6020808252600f908201527f6465765365747465723a207775743f0000000000000000000000000000000000604082015260600190565b6020808252601d908201527f416464726573733a2063616c6c20746f206e6f6e2d636f6e7472616374000000604082015260600190565b60208082526016908201527f4e6f2070656e64696e6720746f207265696e7665737400000000000000000000604082015260600190565b6020808252602a908201527f5361666545524332303a204552433230206f7065726174696f6e20646964206e60408201527f6f74207375636365656400000000000000000000000000000000000000000000606082015260800190565b6020808252601d908201527f7769746864726177206578636565647320757365722062616c616e6365000000604082015260600190565b90815260200190565b918252602082015260400190565b6000821982111561209657612096612251565b500190565b6000826120b95760e060020a634e487b710281526012600452602481fd5b500490565b80825b60018086116120d057506120fd565b8187048211156120e2576120e2612251565b808616156120ef57918102915b5060029094049380026120c1565b94509492505050565b6000610dd9600019848460008261211f57506001611a1a565b8161212c57506000611a1a565b8160018114612142576002811461214c57612179565b6001915050611a1a565b60ff84111561215d5761215d612251565b8360020a91508482111561217357612173612251565b50611a1a565b5060208310610133831016604e8410600b84101617156121ac575081810a838111156121a7576121a7612251565b611a1a565b6121b984848460016120be565b8086048211156121cb576121cb612251565b02949350505050565b60008160001904831182151516156121ee576121ee612251565b500290565b60008282101561220557612205612251565b500390565b60005b8381101561222557818101518382015260200161220d565b838111156106065750506000910152565b600060001982141561224a5761224a612251565b5060010190565b60e060020a634e487b7102600052601160045260246000fd5b600160a060020a0381168114610ad757600080fd5b8015158114610ad757600080fdfea264697066735822122084629ea2ee43388e97e8fbab691e5d1b9c19656421a0e89362752c60bcc1997464736f6c63430008000033",
  "immutableReferences": {},
  "source": "// SPDX-License-Identifier: MIT\n\npragma solidity >=0.4.22 <0.9.0;\n\nimport './library/SafeMath.sol';\nimport \"@openzeppelin/contracts/token/ERC20/IERC20.sol\";\nimport \"@openzeppelin/contracts/token/ERC20/utils/SafeERC20.sol\";\nimport \"@openzeppelin/contracts/access/Ownable.sol\";\n\nimport \"./token/PCMToken.sol\";\n\ninterface IReward {\n    function payTo(address _to, uint256 _amount) external;\n}\n\ncontract Staking is Ownable {\n    using SafeMath for uint256;\n    using SafeERC20 for IERC20;\n\n    // Info of each user.\n    struct UserInfo {\n        uint256 amount;     // How many tokens the user has provided.\n        uint256 rewardDebt; // Reward debt. See explanation below.\n        //\n        // We do some fancy math here. Basically, any point in time, the amount of CAKEs\n        // entitled to a user but is pending to be distributed is:\n        //\n        //   pending reward = (user.amount * pool.accViellasPerShare) - user.rewardDebt\n        //\n        // Whenever a user deposits or withdraws LP tokens to a pool. Here's what happens:\n        //   1. The pool's `accViellasPerShare` (and `lastRewardBlock`) gets updated.\n        //   2. User receives the pending reward sent to his/her address.\n        //   3. User's `amount` gets updated.\n        //   4. User's `rewardDebt` gets updated.\n    }\n\n    // Info of each pool.\n    struct PoolInfo {\n        IERC20 stakedToken;       // Address of staked token contract.\n        uint256 allocPoint;       // How many allocation points assigned to this pool. TUVIELLAs to distribute per block.\n        uint256 lastRewardBlock;  // Last block number that TUVIELLAs distribution occurs.\n        uint256 accViellasPerShare;   // Accumulated TUVIELLAs per share, times 1e12. See below.\n    }\n\n    // The TUVIELLA TOKEN!\n    PCMToken public viellas;\n\n    IReward public rewardContract;\n    // Dev address.\n    address public devaddr;\n    \n    address public devSetter;\n    // TUVIELLAs tokens created per block.\n    uint256 public viellasPerBlock;\n\n    uint256 public initialViellasPerBlock;\n    // Bonus muliplier for early tvt makers.\n    uint256 public BONUS_MULTIPLIER = 1;\n\n    // Info of each pool.\n    PoolInfo[] public poolInfo;\n    // Info of each user that stakes tokens.\n    mapping (uint256 => mapping (address => UserInfo)) public userInfo;\n    // Total allocation points. Must be the sum of all allocation points in all pools.\n    uint256 public totalAllocPoint = 0;\n    // The block number when TUVIELLA mining starts.\n    uint256 public startBlock;\n\n    event Deposit(address indexed user, uint256 indexed pid, uint256 amount);\n    event Withdraw(address indexed user, uint256 indexed pid, uint256 amount);\n    event EmergencyWithdraw(address indexed user, uint256 indexed pid, uint256 amount);\n\n    constructor(\n        PCMToken _viellas,\n        address _devaddr,\n        address _devSetter,\n        uint256 _viellasPerBlock,\n        uint256 _startBlock,\n        IReward _rewardContract\n    ) {\n        viellas = _viellas;\n        devaddr = _devaddr;\n        devSetter = _devSetter;\n        viellasPerBlock = _viellasPerBlock;\n        startBlock = _startBlock;\n        rewardContract = _rewardContract;\n\n        // staking pool\n        poolInfo.push(PoolInfo({\n            stakedToken: _viellas,\n            allocPoint: 1000,\n            lastRewardBlock: startBlock,\n            accViellasPerShare: 0\n        }));\n        totalAllocPoint = 1000;\n        initialViellasPerBlock = viellasPerBlock;\n\n    }\n\n    function updateMultiplier(uint256 multiplierNumber) public onlyOwner {\n        BONUS_MULTIPLIER = multiplierNumber;\n    }\n\n    function poolLength() external view returns (uint256) {\n        return poolInfo.length;\n    }\n\n    // Add a new staking token to the pool. Can only be called by the owner.\n    // XXX DO NOT add the same staking token more than once. Rewards will be messed up if you do.\n    function add(uint256 _allocPoint, IERC20 _stakedToken, bool _withUpdate) public onlyOwner {\n        if (_withUpdate) {\n            massUpdatePools();\n        }\n        uint256 lastRewardBlock = block.number > startBlock ? block.number : startBlock;\n        totalAllocPoint = totalAllocPoint.add(_allocPoint);\n        poolInfo.push(PoolInfo({\n            stakedToken: _stakedToken,\n            allocPoint: _allocPoint,\n            lastRewardBlock: lastRewardBlock,\n            accViellasPerShare: 0\n        }));\n        updateStakingPool();\n    }\n\n    // Update the given pool's TUVIELLA allocation point. Can only be called by the owner.\n    function set(uint256 _pid, uint256 _allocPoint, bool _withUpdate) public onlyOwner {\n        if (_withUpdate) {\n            massUpdatePools();\n        }\n        uint256 prevAllocPoint = poolInfo[_pid].allocPoint;\n        poolInfo[_pid].allocPoint = _allocPoint;\n        if (prevAllocPoint != _allocPoint) {\n            totalAllocPoint = totalAllocPoint.sub(prevAllocPoint).add(_allocPoint);\n            updateStakingPool();\n        }\n    }\n\n    function updateStakingPool() internal {\n        uint256 length = poolInfo.length;\n        uint256 points = 0;\n        for (uint256 pid = 1; pid < length; ++pid) {\n            points = points.add(poolInfo[pid].allocPoint);\n        }\n        if (points != 0) {\n            points = points.div(3);\n            totalAllocPoint = totalAllocPoint.sub(poolInfo[0].allocPoint).add(points);\n            poolInfo[0].allocPoint = points;\n        }\n    }\n\n    // Return reward multiplier over the given _from to _to block.\n    function getMultiplier(uint256 _from, uint256 _to) public view returns (uint256) {\n        return _to.sub(_from).mul(BONUS_MULTIPLIER);\n    }\n\n    // View function to see pending TUVIELLAs on frontend.\n    function pendingViellas(uint256 _pid, address _user) external view returns (uint256) {\n        PoolInfo storage pool = poolInfo[_pid];\n        UserInfo storage user = userInfo[_pid][_user];\n        uint256 accViellasPerShare = pool.accViellasPerShare;\n        uint256 stakedSupply = pool.stakedToken.balanceOf(address(this));\n        if (block.number > pool.lastRewardBlock && stakedSupply != 0) {\n            uint256 multiplier = getMultiplier(pool.lastRewardBlock, block.number);\n            uint256 viellasReward = multiplier.mul(viellasPerBlock).mul(pool.allocPoint).div(totalAllocPoint);\n            accViellasPerShare = accViellasPerShare.add(viellasReward.mul(1e12).div(stakedSupply));\n        }\n        return user.amount.mul(accViellasPerShare).div(1e12).sub(user.rewardDebt);\n    }\n\n    // Update reward variables for all pools. Be careful of gas spending!\n    function massUpdatePools() public {\n        uint256 length = poolInfo.length;\n        for (uint256 pid = 0; pid < length; ++pid) {\n            updatePool(pid);\n        }\n    }\n\n\n    // Update reward variables of the given pool to be up-to-date.\n    function updatePool(uint256 _pid) public {\n        PoolInfo storage pool = poolInfo[_pid];\n        if (block.number <= pool.lastRewardBlock) {\n            return;\n        }\n        uint256 stakedSupply = pool.stakedToken.balanceOf(address(this));\n        if (stakedSupply == 0) {\n            pool.lastRewardBlock = block.number;\n            return;\n        }\n        uint256 multiplier = getMultiplier(pool.lastRewardBlock, block.number);\n        uint256 viellasReward = multiplier.mul(viellasPerBlock).mul(pool.allocPoint).div(totalAllocPoint);\n\n        if(viellas.totalSupply() < 1000000 ether - viellasReward.mul(11).div(10)){\n            viellas.mint(devaddr, viellasReward.div(10));\n            viellas.mint(address(rewardContract), viellasReward);\n        }\n\n        pool.accViellasPerShare = pool.accViellasPerShare.add(viellasReward.mul(1e12).div(stakedSupply));\n        pool.lastRewardBlock = block.number;\n    }\n\n    // Deposit LP tokens to MasterChef for TUVIELLA allocation.\n    function deposit(uint256 _pid, uint256 _amount) public {\n\n        PoolInfo storage pool = poolInfo[_pid];\n        UserInfo storage user = userInfo[_pid][msg.sender];\n        updatePool(_pid);\n        if (user.amount > 0) {\n            uint256 pending = user.amount.mul(pool.accViellasPerShare).div(1e12).sub(user.rewardDebt);\n            if(pending > 0) {\n                rewardContract.payTo(msg.sender, pending);\n            }\n        }\n        if (_amount > 0) {\n            pool.stakedToken.safeTransferFrom(address(msg.sender), address(this), _amount);\n            user.amount = user.amount.add(_amount);\n        }\n        user.rewardDebt = user.amount.mul(pool.accViellasPerShare).div(1e12);\n        emit Deposit(msg.sender, _pid, _amount);\n    }\n\n    // Withdraw LP tokens from MasterChef.\n    function withdraw(uint256 _pid, uint256 _amount) public {\n\n        PoolInfo storage pool = poolInfo[_pid];\n        UserInfo storage user = userInfo[_pid][msg.sender];\n        require(user.amount >= _amount, \"withdraw exceeds user balance\");\n\n        updatePool(_pid);\n        uint256 pending = user.amount.mul(pool.accViellasPerShare).div(1e12).sub(user.rewardDebt);\n        if(pending > 0) {\n            rewardContract.payTo(msg.sender, pending);\n        }\n        if(_amount > 0) {\n            user.amount = user.amount.sub(_amount);\n            pool.stakedToken.safeTransfer(address(msg.sender), _amount);\n        }\n        user.rewardDebt = user.amount.mul(pool.accViellasPerShare).div(1e12);\n        emit Withdraw(msg.sender, _pid, _amount);\n    }\n\n    // Withdraw without caring about rewards. EMERGENCY ONLY.\n    function emergencyWithdraw(uint256 _pid) public {\n        PoolInfo storage pool = poolInfo[_pid];\n        UserInfo storage user = userInfo[_pid][msg.sender];\n        pool.stakedToken.safeTransfer(address(msg.sender), user.amount);\n        emit EmergencyWithdraw(msg.sender, _pid, user.amount);\n        user.amount = 0;\n        user.rewardDebt = 0;\n    }\n\n    // Update dev address by the previous dev.\n    function dev(address _devaddr) public {\n        require(msg.sender == devSetter, \"devSetter: wut?\");\n        devaddr = _devaddr;\n    }\n\n    // brrr en tu cartera\n    function brrr(uint256 _pid) public{\n\n        updatePool(_pid);\n        \n        PoolInfo storage pool = poolInfo[_pid];\n        UserInfo storage user = userInfo[_pid][msg.sender];\n        uint256 accViellasPerShare = pool.accViellasPerShare;\n        uint256 stakedSupply = pool.stakedToken.balanceOf(address(this));\n        if (block.number > pool.lastRewardBlock && stakedSupply != 0) {\n            uint256 multiplier = getMultiplier(pool.lastRewardBlock, block.number);\n            uint256 viellasReward = multiplier.mul(viellasPerBlock).mul(pool.allocPoint).div(totalAllocPoint);\n            accViellasPerShare = accViellasPerShare.add(viellasReward.mul(1e12).div(stakedSupply));\n        }\n\n        uint256 pending = user.amount.mul(accViellasPerShare).div(1e12).sub(user.rewardDebt);\n\n        require(pending > 0, \"No pending to brrr\");\n        rewardContract.payTo(msg.sender, pending);\n        user.rewardDebt = user.amount.mul(accViellasPerShare).div(1e12);\n    }\n\n    // Reinvest viellas\n    function reinvest() public{\n        PoolInfo storage pool = poolInfo[0];\n        UserInfo storage user = userInfo[0][msg.sender];\n        updatePool(0);\n        \n        uint256 pending = user.amount.mul(pool.accViellasPerShare).div(1e12).sub(user.rewardDebt);\n        require(pending > 0, \"No pending to reinvest\");\n\n        rewardContract.payTo(address(this), pending);\n        user.amount = user.amount.add(pending - pending.mul(7).div(1000));\n        \n        user.rewardDebt = user.amount.mul(pool.accViellasPerShare).div(1e12);\n        emit Deposit(msg.sender, 0, pending);\n    }\n\n    //returns the pid of the pool\n    function findPidOf(IERC20 token) public view returns (uint256 _pid){\n        \n        uint length = poolInfo.length;\n        for(uint256 i = 0; i < length; i++){\n            if(token == poolInfo[i].stakedToken){\n                return i;\n            }\n        }\n    }\n\n    function halving() external onlyOwner{\n        \n        if(block.number > startBlock){\n            return;\n        }\n\n        uint256 blocksPassed = block.number - startBlock;\n        uint256 blocksPerHalving = 0;\n\n        uint256 pot = blocksPassed.div(blocksPerHalving);\n\n        uint256 targetViellas = initialViellasPerBlock.div(2**pot);\n\n        if(viellasPerBlock == targetViellas){\n            return;\n        }\n        viellasPerBlock = targetViellas;\n    }\n}",
  "sourcePath": "/home/guillermo/dapps/tuviella-contract/contracts/Staking.sol",
  "compiler": {
    "name": "solc",
    "version": "0.8.0+commit.c7dfd78e.Emscripten.clang"
  },
  "schemaVersion": "3.4.3",
  "updatedAt": "2021-10-31T13:03:39.840Z",
  "devdoc": {
    "kind": "dev",
    "methods": {
      "owner()": {
        "details": "Returns the address of the current owner."
      },
      "renounceOwnership()": {
        "details": "Leaves the contract without owner. It will not be possible to call `onlyOwner` functions anymore. Can only be called by the current owner. NOTE: Renouncing ownership will leave the contract without an owner, thereby removing any functionality that is only available to the owner."
      },
      "transferOwnership(address)": {
        "details": "Transfers ownership of the contract to a new account (`newOwner`). Can only be called by the current owner."
      }
    },
    "version": 1
  },
  "userdoc": {
    "kind": "user",
    "methods": {},
    "version": 1
  }
}