{
  "contractName": "Marketplace",
  "abi": [
    {
      "anonymous": false,
      "inputs": [
        {
          "indexed": false,
          "internalType": "uint256",
          "name": "id",
          "type": "uint256"
        },
        {
          "indexed": false,
          "internalType": "uint256",
          "name": "tokenId",
          "type": "uint256"
        },
        {
          "indexed": false,
          "internalType": "address",
          "name": "tokenAddress",
          "type": "address"
        },
        {
          "indexed": false,
          "internalType": "uint256",
          "name": "askingPrice",
          "type": "uint256"
        }
      ],
      "name": "itemAdded",
      "type": "event"
    },
    {
      "anonymous": false,
      "inputs": [
        {
          "indexed": false,
          "internalType": "uint256",
          "name": "id",
          "type": "uint256"
        },
        {
          "indexed": false,
          "internalType": "address",
          "name": "buyer",
          "type": "address"
        },
        {
          "indexed": false,
          "internalType": "uint256",
          "name": "askingPrice",
          "type": "uint256"
        }
      ],
      "name": "itemSold",
      "type": "event"
    },
    {
      "inputs": [
        {
          "internalType": "uint256",
          "name": "",
          "type": "uint256"
        }
      ],
      "name": "itemsForSale",
      "outputs": [
        {
          "internalType": "uint256",
          "name": "id",
          "type": "uint256"
        },
        {
          "internalType": "address",
          "name": "tokenAddress",
          "type": "address"
        },
        {
          "internalType": "uint256",
          "name": "tokenId",
          "type": "uint256"
        },
        {
          "internalType": "address payable",
          "name": "seller",
          "type": "address"
        },
        {
          "internalType": "uint256",
          "name": "askingPrice",
          "type": "uint256"
        },
        {
          "internalType": "bool",
          "name": "isSold",
          "type": "bool"
        }
      ],
      "stateMutability": "view",
      "type": "function"
    },
    {
      "inputs": [
        {
          "internalType": "uint256",
          "name": "tokenId",
          "type": "uint256"
        },
        {
          "internalType": "address",
          "name": "tokenAddress",
          "type": "address"
        },
        {
          "internalType": "uint256",
          "name": "askingPrice",
          "type": "uint256"
        }
      ],
      "name": "addItemToMarket",
      "outputs": [
        {
          "internalType": "uint256",
          "name": "",
          "type": "uint256"
        }
      ],
      "stateMutability": "nonpayable",
      "type": "function"
    },
    {
      "inputs": [
        {
          "internalType": "uint256",
          "name": "id",
          "type": "uint256"
        }
      ],
      "name": "buyItem",
      "outputs": [],
      "stateMutability": "payable",
      "type": "function"
    }
  ],
  "bytecode": "0x608060405234801561001057600080fd5b50610cd6806100206000396000f3fe608060405260043610610050577c01000000000000000000000000000000000000000000000000000000006000350463092d0afc81146100555780634abc220214610090578063e7fb74c7146100bd575b600080fd5b34801561006157600080fd5b50610075610070366004610ab6565b6100d2565b60405161008796959493929190610c2d565b60405180910390f35b34801561009c57600080fd5b506100b06100ab366004610ace565b610128565b6040516100879190610c05565b6100d06100cb366004610ab6565b6104d9565b005b600081815481106100e257600080fd5b6000918252602090912060069091020180546001820154600283015460038401546004850154600590950154939550600160a060020a0392831694919392169160ff1686565b6040517f6352211e0000000000000000000000000000000000000000000000000000000081526000908390859082903390600160a060020a03831690636352211e90610178908690600401610c05565b60206040518083038186803b15801561019057600080fd5b505afa1580156101a4573d6000803e3d6000fd5b505050506040513d601f19601f820116820180604052508101906101c89190610a93565b600160a060020a0316146101db57600080fd5b6040517f081812fc0000000000000000000000000000000000000000000000000000000081528690889082903090600160a060020a0383169063081812fc90610228908690600401610c05565b60206040518083038186803b15801561024057600080fd5b505afa158015610254573d6000803e3d6000fd5b505050506040513d601f19601f820116820180604052508101906102789190610a93565b600160a060020a03161461028b57600080fd5b600160a060020a03891660009081526001602090815260408083208d845290915290205460ff16156102db5760405160e560020a62461bcd0281526004016102d290610b60565b60405180910390fd5b60008080549050905060006040518060c001604052808381526020018c600160a060020a031681526020018d815260200133600160a060020a031681526020018b81526020016000151581525090806001815401808255809150506001900390600052602060002090600602016000909190919091506000820151816000015560208201518160010160006101000a815481600160a060020a030219169083600160a060020a031602179055506040820151816002015560608201518160030160006101000a815481600160a060020a030219169083600160a060020a031602179055506080820151816004015560a08201518160050160006101000a81548160ff021916908315150217905550505060018060008c600160a060020a0316600160a060020a0316815260200190815260200160002060008d815260200190815260200160002060006101000a81548160ff021916908315150217905550806000828154811061045e5760e060020a634e487b7102600052603260045260246000fd5b9060005260206000209060060201600001541461048e5760e060020a634e487b7102600052600160045260246000fd5b7fd3742413e0092c98517699ed9f8567218c740a5a265a7a986d9430d597937522818c8c8c6040516104c39493929190610c64565b60405180910390a19a9950505050505050505050565b6000548190811080156105205750806000828154811061050c5760e060020a634e487b7102600052603260045260246000fd5b906000526020600020906006020160000154145b61053f5760405160e560020a62461bcd0281526004016102d290610b97565b81600081815481106105645760e060020a634e487b7102600052603260045260246000fd5b600091825260209091206005600690920201015460ff161561059b5760405160e560020a62461bcd0281526004016102d290610bce565b600083815481106105bf5760e060020a634e487b7102600052603260045260246000fd5b600091825260208220600160069092020101548154600160a060020a039091169190859081106106025760e060020a634e487b7102600052603260045260246000fd5b60009182526020909120600260069092020101546040517f081812fc00000000000000000000000000000000000000000000000000000000815282903090600160a060020a0383169063081812fc9061065f908690600401610c05565b60206040518083038186803b15801561067757600080fd5b505afa15801561068b573d6000803e3d6000fd5b505050506040513d601f19601f820116820180604052508101906106af9190610a93565b600160a060020a0316146106c257600080fd5b600086815481106106e65760e060020a634e487b7102600052603260045260246000fd5b90600052602060002090600602016004015434101561071a5760405160e560020a62461bcd0281526004016102d290610b29565b6000868154811061073e5760e060020a634e487b7102600052603260045260246000fd5b6000918252602090912060069091020160030154600160a060020a031633141561076757600080fd5b60016000878154811061078d5760e060020a634e487b7102600052603260045260246000fd5b906000526020600020906006020160050160006101000a81548160ff0219169083151502179055506000600160008089815481106107de5760e060020a634e487b7102600052603260045260246000fd5b906000526020600020906006020160010160009054906101000a9004600160a060020a0316600160a060020a0316600160a060020a0316815260200190815260200160002060008089815481106108485760e060020a634e487b7102600052603260045260246000fd5b906000526020600020906006020160020154815260200190815260200160002060006101000a81548160ff021916908315150217905550600086815481106108a35760e060020a634e487b7102600052603260045260246000fd5b600091825260208220600160069092020101548154600160a060020a03909116916342842e0e91899081106108eb5760e060020a634e487b7102600052603260045260246000fd5b600091825260208220600360069092020101548154600160a060020a039091169133918b90811061092f5760e060020a634e487b7102600052603260045260246000fd5b9060005260206000209060060201600201546040518463ffffffff167c010000000000000000000000000000000000000000000000000000000002815260040161097b93929190610b05565b600060405180830381600087803b15801561099557600080fd5b505af11580156109a9573d6000803e3d6000fd5b50505050600086815481106109d15760e060020a634e487b7102600052603260045260246000fd5b60009182526020822060036006909202010154604051600160a060020a03909116913480156108fc02929091818181858888f19350505050158015610a1a573d6000803e3d6000fd5b507f8164c6f8917e418c49813e4586897c7067de5a886aa1bea980cd11fa57d48264863360008981548110610a625760e060020a634e487b7102600052603260045260246000fd5b906000526020600020906006020160040154604051610a8393929190610c0e565b60405180910390a1505050505050565b600060208284031215610aa4578081fd5b8151610aaf81610c88565b9392505050565b600060208284031215610ac7578081fd5b5035919050565b600080600060608486031215610ae2578182fd5b833592506020840135610af481610c88565b929592945050506040919091013590565b600160a060020a039384168152919092166020820152604081019190915260600190565b60208082526015908201527f4e6f7420656e6f7567682066756e64732073656e740000000000000000000000604082015260600190565b6020808252601c908201527f4974656d20697320616c726561647920757020666f722073616c652100000000604082015260600190565b60208082526013908201527f436f756c64206e6f742066696e64206974656d00000000000000000000000000604082015260600190565b60208082526015908201527f4974656d20697320616c726561647920736f6c64210000000000000000000000604082015260600190565b90815260200190565b928352600160a060020a03919091166020830152604082015260600190565b958652600160a060020a0394851660208701526040860193909352921660608401526080830191909152151560a082015260c00190565b9384526020840192909252600160a060020a03166040830152606082015260800190565b600160a060020a0381168114610c9d57600080fd5b5056fea26469706673582212200ae3be285ab57fec311684ca5e88943a1da05acacc42a173238f90b6463292e164736f6c63430008000033",
  "immutableReferences": {},
  "source": "// SPDX-License-Identifier: MIT\n\npragma solidity ^0.8.0;\n\nimport \"@openzeppelin/contracts/token/ERC721/IERC721.sol\";\n\ncontract Marketplace {\n    struct AuctionItem {\n        uint256 id;\n        address tokenAddress;\n        uint256 tokenId;\n        address payable seller;\n        uint256 askingPrice;\n        bool isSold;\n    }\n\n    AuctionItem[] public itemsForSale;\n    mapping (address => mapping (uint256 => bool)) activeItems;\n\n    event itemAdded(uint256 id, uint256 tokenId, address tokenAddress, uint256 askingPrice);\n    event itemSold(uint256 id, address buyer, uint256 askingPrice);\n\n    modifier OnlyItemOwner(address tokenAddress, uint256 tokenId){\n        IERC721 tokenContract = IERC721(tokenAddress);\n        require(tokenContract.ownerOf(tokenId) == msg.sender);\n        _;\n    }\n\n    modifier HasTransferApproval(address tokenAddress, uint256 tokenId){\n        IERC721 tokenContract = IERC721(tokenAddress);\n        require(tokenContract.getApproved(tokenId) == address(this));\n        _;\n    }\n\n    modifier ItemExists(uint256 id){\n        require(id < itemsForSale.length && itemsForSale[id].id == id, \"Could not find item\");\n        _;\n    }\n\n    modifier IsForSale(uint256 id){\n        require(itemsForSale[id].isSold == false, \"Item is already sold!\");\n        _;\n    }\n\n    function addItemToMarket(uint256 tokenId, address tokenAddress, uint256 askingPrice) OnlyItemOwner(tokenAddress,tokenId) HasTransferApproval(tokenAddress,tokenId) external returns (uint256){\n        require(activeItems[tokenAddress][tokenId] == false, \"Item is already up for sale!\");\n        uint256 newItemId = itemsForSale.length;\n        itemsForSale.push(AuctionItem(newItemId, tokenAddress, tokenId, payable(msg.sender), askingPrice, false));\n        activeItems[tokenAddress][tokenId] = true;\n\n        assert(itemsForSale[newItemId].id == newItemId);\n        emit itemAdded(newItemId, tokenId, tokenAddress, askingPrice);\n        return newItemId;\n    }\n\n    function buyItem(uint256 id) payable external ItemExists(id) IsForSale(id) HasTransferApproval(itemsForSale[id].tokenAddress,itemsForSale[id].tokenId){\n        require(msg.value >= itemsForSale[id].askingPrice, \"Not enough funds sent\");\n        require(msg.sender != itemsForSale[id].seller);\n\n        itemsForSale[id].isSold = true;\n        activeItems[itemsForSale[id].tokenAddress][itemsForSale[id].tokenId] = false;\n        IERC721(itemsForSale[id].tokenAddress).safeTransferFrom(itemsForSale[id].seller, msg.sender, itemsForSale[id].tokenId);\n        itemsForSale[id].seller.transfer(msg.value);\n\n        emit itemSold(id, msg.sender,itemsForSale[id].askingPrice);\n    }\n}",
  "sourcePath": "/home/guillermo/dapps/NFTMarketPlaceBSCtestNet/contracts/Marketplace.sol",
  "compiler": {
    "name": "solc",
    "version": "0.8.0+commit.c7dfd78e.Emscripten.clang"
  },
  "schemaVersion": "3.4.3",
  "updatedAt": "2021-11-08T00:08:13.315Z",
  "devdoc": {
    "kind": "dev",
    "methods": {},
    "version": 1
  },
  "userdoc": {
    "kind": "user",
    "methods": {},
    "version": 1
  }
}