{
  "contractName": "myNFTs",
  "abi": [
    {
      "inputs": [],
      "stateMutability": "nonpayable",
      "type": "constructor"
    },
    {
      "anonymous": false,
      "inputs": [
        {
          "indexed": true,
          "internalType": "address",
          "name": "owner",
          "type": "address"
        },
        {
          "indexed": true,
          "internalType": "address",
          "name": "approved",
          "type": "address"
        },
        {
          "indexed": true,
          "internalType": "uint256",
          "name": "tokenId",
          "type": "uint256"
        }
      ],
      "name": "Approval",
      "type": "event"
    },
    {
      "anonymous": false,
      "inputs": [
        {
          "indexed": true,
          "internalType": "address",
          "name": "owner",
          "type": "address"
        },
        {
          "indexed": true,
          "internalType": "address",
          "name": "operator",
          "type": "address"
        },
        {
          "indexed": false,
          "internalType": "bool",
          "name": "approved",
          "type": "bool"
        }
      ],
      "name": "ApprovalForAll",
      "type": "event"
    },
    {
      "anonymous": false,
      "inputs": [
        {
          "indexed": true,
          "internalType": "address",
          "name": "from",
          "type": "address"
        },
        {
          "indexed": true,
          "internalType": "address",
          "name": "to",
          "type": "address"
        },
        {
          "indexed": true,
          "internalType": "uint256",
          "name": "tokenId",
          "type": "uint256"
        }
      ],
      "name": "Transfer",
      "type": "event"
    },
    {
      "inputs": [
        {
          "internalType": "uint256",
          "name": "",
          "type": "uint256"
        }
      ],
      "name": "Items",
      "outputs": [
        {
          "internalType": "uint256",
          "name": "id",
          "type": "uint256"
        },
        {
          "internalType": "string",
          "name": "name",
          "type": "string"
        },
        {
          "internalType": "string",
          "name": "description",
          "type": "string"
        },
        {
          "internalType": "address",
          "name": "creator",
          "type": "address"
        },
        {
          "internalType": "string",
          "name": "uri",
          "type": "string"
        }
      ],
      "stateMutability": "view",
      "type": "function"
    },
    {
      "inputs": [
        {
          "internalType": "address",
          "name": "to",
          "type": "address"
        },
        {
          "internalType": "uint256",
          "name": "tokenId",
          "type": "uint256"
        }
      ],
      "name": "approve",
      "outputs": [],
      "stateMutability": "nonpayable",
      "type": "function"
    },
    {
      "inputs": [
        {
          "internalType": "address",
          "name": "owner",
          "type": "address"
        }
      ],
      "name": "balanceOf",
      "outputs": [
        {
          "internalType": "uint256",
          "name": "",
          "type": "uint256"
        }
      ],
      "stateMutability": "view",
      "type": "function"
    },
    {
      "inputs": [
        {
          "internalType": "uint256",
          "name": "tokenId",
          "type": "uint256"
        }
      ],
      "name": "getApproved",
      "outputs": [
        {
          "internalType": "address",
          "name": "",
          "type": "address"
        }
      ],
      "stateMutability": "view",
      "type": "function"
    },
    {
      "inputs": [
        {
          "internalType": "address",
          "name": "owner",
          "type": "address"
        },
        {
          "internalType": "address",
          "name": "operator",
          "type": "address"
        }
      ],
      "name": "isApprovedForAll",
      "outputs": [
        {
          "internalType": "bool",
          "name": "",
          "type": "bool"
        }
      ],
      "stateMutability": "view",
      "type": "function"
    },
    {
      "inputs": [],
      "name": "name",
      "outputs": [
        {
          "internalType": "string",
          "name": "",
          "type": "string"
        }
      ],
      "stateMutability": "view",
      "type": "function"
    },
    {
      "inputs": [
        {
          "internalType": "uint256",
          "name": "tokenId",
          "type": "uint256"
        }
      ],
      "name": "ownerOf",
      "outputs": [
        {
          "internalType": "address",
          "name": "",
          "type": "address"
        }
      ],
      "stateMutability": "view",
      "type": "function"
    },
    {
      "inputs": [
        {
          "internalType": "address",
          "name": "from",
          "type": "address"
        },
        {
          "internalType": "address",
          "name": "to",
          "type": "address"
        },
        {
          "internalType": "uint256",
          "name": "tokenId",
          "type": "uint256"
        }
      ],
      "name": "safeTransferFrom",
      "outputs": [],
      "stateMutability": "nonpayable",
      "type": "function"
    },
    {
      "inputs": [
        {
          "internalType": "address",
          "name": "from",
          "type": "address"
        },
        {
          "internalType": "address",
          "name": "to",
          "type": "address"
        },
        {
          "internalType": "uint256",
          "name": "tokenId",
          "type": "uint256"
        },
        {
          "internalType": "bytes",
          "name": "_data",
          "type": "bytes"
        }
      ],
      "name": "safeTransferFrom",
      "outputs": [],
      "stateMutability": "nonpayable",
      "type": "function"
    },
    {
      "inputs": [
        {
          "internalType": "address",
          "name": "operator",
          "type": "address"
        },
        {
          "internalType": "bool",
          "name": "approved",
          "type": "bool"
        }
      ],
      "name": "setApprovalForAll",
      "outputs": [],
      "stateMutability": "nonpayable",
      "type": "function"
    },
    {
      "inputs": [
        {
          "internalType": "bytes4",
          "name": "interfaceId",
          "type": "bytes4"
        }
      ],
      "name": "supportsInterface",
      "outputs": [
        {
          "internalType": "bool",
          "name": "",
          "type": "bool"
        }
      ],
      "stateMutability": "view",
      "type": "function"
    },
    {
      "inputs": [],
      "name": "symbol",
      "outputs": [
        {
          "internalType": "string",
          "name": "",
          "type": "string"
        }
      ],
      "stateMutability": "view",
      "type": "function"
    },
    {
      "inputs": [],
      "name": "totalCount",
      "outputs": [
        {
          "internalType": "uint256",
          "name": "",
          "type": "uint256"
        }
      ],
      "stateMutability": "view",
      "type": "function"
    },
    {
      "inputs": [
        {
          "internalType": "address",
          "name": "from",
          "type": "address"
        },
        {
          "internalType": "address",
          "name": "to",
          "type": "address"
        },
        {
          "internalType": "uint256",
          "name": "tokenId",
          "type": "uint256"
        }
      ],
      "name": "transferFrom",
      "outputs": [],
      "stateMutability": "nonpayable",
      "type": "function"
    },
    {
      "inputs": [
        {
          "internalType": "string",
          "name": "uri",
          "type": "string"
        },
        {
          "internalType": "string",
          "name": "nam",
          "type": "string"
        },
        {
          "internalType": "string",
          "name": "description",
          "type": "string"
        }
      ],
      "name": "createItem",
      "outputs": [
        {
          "internalType": "uint256",
          "name": "",
          "type": "uint256"
        }
      ],
      "stateMutability": "nonpayable",
      "type": "function"
    },
    {
      "inputs": [
        {
          "internalType": "uint256",
          "name": "tokenId",
          "type": "uint256"
        }
      ],
      "name": "tokenURI",
      "outputs": [
        {
          "internalType": "string",
          "name": "",
          "type": "string"
        }
      ],
      "stateMutability": "view",
      "type": "function"
    }
  ],
  "bytecode": "0x608060405260006006553480156200001657600080fd5b50604080518082018252601581527f4d757a616d6d696c5369646469717569546f6b656e000000000000000000000060208083019182528351808501909452600384527f4d535400000000000000000000000000000000000000000000000000000000009084015281519192916200009191600091620000b0565b508051620000a7906001906020840190620000b0565b505050620001ac565b828054620000be9062000156565b90600052602060002090601f016020900481019282620000e257600085556200012d565b82601f10620000fd57805160ff19168380011785556200012d565b828001600101855582156200012d579182015b828111156200012d57825182559160200191906001019062000110565b506200013b9291506200013f565b5090565b5b808211156200013b576000815560010162000140565b6002810460018216806200016b57607f821691505b60208210811415620001a6577f4e487b7100000000000000000000000000000000000000000000000000000000600052602260045260246000fd5b50919050565b611a1880620001bc6000396000f3fe608060405234801561001057600080fd5b506004361061011d576000357c0100000000000000000000000000000000000000000000000000000000900480636352211e116100b4578063a22cb46511610083578063a22cb46514610235578063b88d4fde14610248578063c87b56dd1461025b578063e985e9c51461026e5761011d565b80636352211e146101f457806370a0823114610207578063876ab02b1461021a57806395d89b411461022d5761011d565b806317b47cc4116100f057806317b47cc41461019557806323b872dd146101b957806334eafb11146101cc57806342842e0e146101e15761011d565b806301ffc9a71461012257806306fdde031461014b578063081812fc14610160578063095ea7b314610180575b600080fd5b610135610130366004611256565b610281565b60405161014291906113c5565b60405180910390f35b6101536102fb565b60405161014291906113d0565b61017361016e366004611312565b61038d565b6040516101429190611375565b61019361018e36600461122d565b6103dc565b005b6101a86101a3366004611312565b61047a565b60405161014295949392919061188e565b6101936101c736600461113f565b610650565b6101d461068b565b6040516101429190611885565b6101936101ef36600461113f565b610691565b610173610202366004611312565b6106ac565b6101d46102153660046110f3565b6106e4565b6101d461022836600461128e565b61072b565b61015361081a565b6101936102433660046111f3565b610829565b61019361025636600461117a565b6108fa565b610153610269366004611312565b61093c565b61013561027c36600461110d565b610a07565b6000600160e060020a031982167f80ac58cd0000000000000000000000000000000000000000000000000000000014806102e45750600160e060020a031982167f5b5e139f00000000000000000000000000000000000000000000000000000000145b806102f357506102f382610a35565b90505b919050565b60606000805461030a90611917565b80601f016020809104026020016040519081016040528092919081815260200182805461033690611917565b80156103835780601f1061035857610100808354040283529160200191610383565b820191906000526020600020905b81548152906001019060200180831161036657829003601f168201915b5050505050905090565b600061039882610a67565b6103c05760405160e560020a62461bcd0281526004016103b7906116b4565b60405180910390fd5b50600090815260046020526040902054600160a060020a031690565b60006103e7826106ac565b905080600160a060020a031683600160a060020a0316141561041e5760405160e560020a62461bcd0281526004016103b7906117cb565b80600160a060020a0316610430610a84565b600160a060020a0316148061044c575061044c8161027c610a84565b61046b5760405160e560020a62461bcd0281526004016103b790611568565b6104758383610a88565b505050565b6008602052600090815260409020805460018201805491929161049c90611917565b80601f01602080910402602001604051908101604052809291908181526020018280546104c890611917565b80156105155780601f106104ea57610100808354040283529160200191610515565b820191906000526020600020905b8154815290600101906020018083116104f857829003601f168201915b50505050509080600201805461052a90611917565b80601f016020809104026020016040519081016040528092919081815260200182805461055690611917565b80156105a35780601f10610578576101008083540402835291602001916105a3565b820191906000526020600020905b81548152906001019060200180831161058657829003601f168201915b50505060038401546004850180549495600160a060020a039092169491935091506105cd90611917565b80601f01602080910402602001604051908101604052809291908181526020018280546105f990611917565b80156106465780601f1061061b57610100808354040283529160200191610646565b820191906000526020600020905b81548152906001019060200180831161062957829003601f168201915b5050505050905085565b61066161065b610a84565b82610b03565b6106805760405160e560020a62461bcd0281526004016103b790611828565b610475838383610b8b565b60065481565b610475838383604051806020016040528060008152506108fa565b600081815260026020526040812054600160a060020a0316806102f35760405160e560020a62461bcd0281526004016103b790611622565b6000600160a060020a03821661070f5760405160e560020a62461bcd0281526004016103b7906115c5565b50600160a060020a031660009081526003602052604090205490565b60006107376007610ccb565b60006107436007610cd4565b905061074f3382610cd8565b6040805160a08101825282815260208082018781528284018790523360608401526080830189905260008581526008835293909320825181559251805192939261079f9260018501920190610fad565b50604082015180516107bb916002840191602090910190610fad565b50606082015160038201805473ffffffffffffffffffffffffffffffffffffffff1916600160a060020a039092169190911790556080820151805161080a916004840191602090910190610fad565b5050506006819055949350505050565b60606001805461030a90611917565b610831610a84565b600160a060020a031682600160a060020a031614156108655760405160e560020a62461bcd0281526004016103b7906114d4565b8060056000610872610a84565b600160a060020a03908116825260208083019390935260409182016000908120918716808252919093529120805460ff1916921515929092179091556108b6610a84565b600160a060020a03167f17307eab39ab6107e8899845ad3d59bd9653f200f220920489ca2b5937696c31836040516108ee91906113c5565b60405180910390a35050565b61090b610905610a84565b83610b03565b61092a5760405160e560020a62461bcd0281526004016103b790611828565b61093684848484610cf6565b50505050565b606061094782610a67565b6109665760405160e560020a62461bcd0281526004016103b79061176e565b6000828152600860205260409020600401805461098290611917565b80601f01602080910402602001604051908101604052809291908181526020018280546109ae90611917565b80156109fb5780601f106109d0576101008083540402835291602001916109fb565b820191906000526020600020905b8154815290600101906020018083116109de57829003601f168201915b50505050509050919050565b600160a060020a03918216600090815260056020908152604080832093909416825291909152205460ff1690565b600160e060020a031981167f01ffc9a70000000000000000000000000000000000000000000000000000000014919050565b600090815260026020526040902054600160a060020a0316151590565b3390565b6000818152600460205260409020805473ffffffffffffffffffffffffffffffffffffffff1916600160a060020a0384169081179091558190610aca826106ac565b600160a060020a03167f8c5be1e5ebec7d5bd14f71427d1e84f3dd0314c0f7b2291e5b200ac8c7c3b92560405160405180910390a45050565b6000610b0e82610a67565b610b2d5760405160e560020a62461bcd0281526004016103b79061150b565b6000610b38836106ac565b905080600160a060020a031684600160a060020a03161480610b73575083600160a060020a0316610b688461038d565b600160a060020a0316145b80610b835750610b838185610a07565b949350505050565b82600160a060020a0316610b9e826106ac565b600160a060020a031614610bc75760405160e560020a62461bcd0281526004016103b790611711565b600160a060020a038216610bf05760405160e560020a62461bcd0281526004016103b790611477565b610bfb838383610475565b610c06600082610a88565b600160a060020a0383166000908152600360205260408120805460019290610c2f908490611900565b9091555050600160a060020a0382166000908152600360205260408120805460019290610c5d9084906118e8565b9091555050600081815260026020526040808220805473ffffffffffffffffffffffffffffffffffffffff1916600160a060020a0386811691821790925591518493918716917fddf252ad1be2c89b69c2b068fc378daa952ba7f163c4a11628f55a4df523b3ef91a4505050565b80546001019055565b5490565b610cf2828260405180602001604052806000815250610d2c565b5050565b610d01848484610b8b565b610d0d84848484610d62565b6109365760405160e560020a62461bcd0281526004016103b7906113e3565b610d368383610eb5565b610d436000848484610d62565b6104755760405160e560020a62461bcd0281526004016103b7906113e3565b6000610d7684600160a060020a0316610fa7565b15610eaa5783600160a060020a031663150b7a02610d92610a84565b8786866040518563ffffffff167c0100000000000000000000000000000000000000000000000000000000028152600401610dd09493929190611389565b602060405180830381600087803b158015610dea57600080fd5b505af1925050508015610e1a575060408051601f3d908101601f19168201909252610e1791810190611272565b60015b610e77573d808015610e48576040519150601f19603f3d011682016040523d82523d6000602084013e610e4d565b606091505b508051610e6f5760405160e560020a62461bcd0281526004016103b7906113e3565b805181602001fd5b600160e060020a0319167f150b7a0200000000000000000000000000000000000000000000000000000000149050610b83565b506001949350505050565b600160a060020a038216610ede5760405160e560020a62461bcd0281526004016103b79061167f565b610ee781610a67565b15610f075760405160e560020a62461bcd0281526004016103b790611440565b610f1360008383610475565b600160a060020a0382166000908152600360205260408120805460019290610f3c9084906118e8565b9091555050600081815260026020526040808220805473ffffffffffffffffffffffffffffffffffffffff1916600160a060020a03861690811790915590518392907fddf252ad1be2c89b69c2b068fc378daa952ba7f163c4a11628f55a4df523b3ef908290a45050565b3b151590565b828054610fb990611917565b90600052602060002090601f016020900481019282610fdb5760008555611021565b82601f10610ff457805160ff1916838001178555611021565b82800160010185558215611021579182015b82811115611021578251825591602001919060010190611006565b5061102d929150611031565b5090565b5b8082111561102d5760008155600101611032565b600067ffffffffffffffff808411156110615761106161199a565b604051601f8501601f1916810160200182811182821017156110855761108561199a565b60405284815291508183850186101561109d57600080fd5b8484602083013760006020868301015250509392505050565b8035600160a060020a03811681146102f657600080fd5b600082601f8301126110dd578081fd5b6110ec83833560208501611046565b9392505050565b600060208284031215611104578081fd5b6110ec826110b6565b6000806040838503121561111f578081fd5b611128836110b6565b9150611136602084016110b6565b90509250929050565b600080600060608486031215611153578081fd5b61115c846110b6565b925061116a602085016110b6565b9150604084013590509250925092565b6000806000806080858703121561118f578081fd5b611198856110b6565b93506111a6602086016110b6565b925060408501359150606085013567ffffffffffffffff8111156111c8578182fd5b8501601f810187136111d8578182fd5b6111e787823560208401611046565b91505092959194509250565b60008060408385031215611205578182fd5b61120e836110b6565b915060208301358015158114611222578182fd5b809150509250929050565b6000806040838503121561123f578182fd5b611248836110b6565b946020939093013593505050565b600060208284031215611267578081fd5b81356110ec816119c9565b600060208284031215611283578081fd5b81516110ec816119c9565b6000806000606084860312156112a2578283fd5b833567ffffffffffffffff808211156112b9578485fd5b6112c5878388016110cd565b945060208601359150808211156112da578384fd5b6112e6878388016110cd565b935060408601359150808211156112fb578283fd5b50611308868287016110cd565b9150509250925092565b600060208284031215611323578081fd5b5035919050565b60008151808452815b8181101561134f57602081850181015186830182015201611333565b818111156113605782602083870101525b50601f01601f19169290920160200192915050565b600160a060020a0391909116815260200190565b6000600160a060020a038087168352808616602084015250836040830152608060608301526113bb608083018461132a565b9695505050505050565b901515815260200190565b6000602082526110ec602083018461132a565b60208082526032908201527f4552433732313a207472616e7366657220746f206e6f6e20455243373231526560408201527f63656976657220696d706c656d656e7465720000000000000000000000000000606082015260800190565b6020808252601c908201527f4552433732313a20746f6b656e20616c7265616479206d696e74656400000000604082015260600190565b60208082526024908201527f4552433732313a207472616e7366657220746f20746865207a65726f2061646460408201527f7265737300000000000000000000000000000000000000000000000000000000606082015260800190565b60208082526019908201527f4552433732313a20617070726f766520746f2063616c6c657200000000000000604082015260600190565b6020808252602c908201527f4552433732313a206f70657261746f7220717565727920666f72206e6f6e657860408201527f697374656e7420746f6b656e0000000000000000000000000000000000000000606082015260800190565b60208082526038908201527f4552433732313a20617070726f76652063616c6c6572206973206e6f74206f7760408201527f6e6572206e6f7220617070726f76656420666f7220616c6c0000000000000000606082015260800190565b6020808252602a908201527f4552433732313a2062616c616e636520717565727920666f7220746865207a6560408201527f726f206164647265737300000000000000000000000000000000000000000000606082015260800190565b60208082526029908201527f4552433732313a206f776e657220717565727920666f72206e6f6e657869737460408201527f656e7420746f6b656e0000000000000000000000000000000000000000000000606082015260800190565b6020808252818101527f4552433732313a206d696e7420746f20746865207a65726f2061646472657373604082015260600190565b6020808252602c908201527f4552433732313a20617070726f76656420717565727920666f72206e6f6e657860408201527f697374656e7420746f6b656e0000000000000000000000000000000000000000606082015260800190565b60208082526029908201527f4552433732313a207472616e73666572206f6620746f6b656e2074686174206960408201527f73206e6f74206f776e0000000000000000000000000000000000000000000000606082015260800190565b6020808252602f908201527f4552433732314d657461646174613a2055524920717565727920666f72206e6f60408201527f6e6578697374656e7420746f6b656e0000000000000000000000000000000000606082015260800190565b60208082526021908201527f4552433732313a20617070726f76616c20746f2063757272656e74206f776e6560408201527f7200000000000000000000000000000000000000000000000000000000000000606082015260800190565b60208082526031908201527f4552433732313a207472616e736665722063616c6c6572206973206e6f74206f60408201527f776e6572206e6f7220617070726f766564000000000000000000000000000000606082015260800190565b90815260200190565b600086825260a060208301526118a760a083018761132a565b82810360408401526118b9818761132a565b9050600160a060020a038516606084015282810360808401526118dc818561132a565b98975050505050505050565b600082198211156118fb576118fb61196b565b500190565b6000828210156119125761191261196b565b500390565b60028104600182168061192b57607f821691505b60208210811415611965577f4e487b7100000000000000000000000000000000000000000000000000000000600052602260045260246000fd5b50919050565b7f4e487b7100000000000000000000000000000000000000000000000000000000600052601160045260246000fd5b7f4e487b7100000000000000000000000000000000000000000000000000000000600052604160045260246000fd5b600160e060020a0319811681146119df57600080fd5b5056fea2646970667358221220fa77c73d706af03a9cca235c50c997821da3e4509874d71a4a98ce31a203137464736f6c63430008000033",
  "immutableReferences": {},
  "source": "// SPDX-License-Identifier: MIT\npragma solidity >=0.4.21 <0.9.0;\n\nimport \"@openzeppelin/contracts/token/ERC721/ERC721.sol\";\nimport \"@openzeppelin/contracts/utils/Counters.sol\";\n\ncontract myNFTs is ERC721 {\n    uint public totalCount=0;\n    using Counters for Counters.Counter;\n    Counters.Counter private _tokenIds;\n\n    constructor() ERC721(\"MuzammilSiddiquiToken\", \"MST\"){}\n\n    struct Item {\n        uint256 id;\n        string name;\n        string description;\n        address creator;\n        string uri;\n    }\n\n    mapping (uint256 => Item) public Items;\n\n    function createItem(string memory uri,string memory nam, string memory description) public returns (uint256){\n        _tokenIds.increment();\n        uint256 newItemId = _tokenIds.current();\n        _safeMint(msg.sender, newItemId);\n\n        Items[newItemId] = Item(newItemId,nam, description, msg.sender, uri);\ntotalCount = newItemId;\n        return newItemId;\n    }\n\n    function tokenURI(uint256 tokenId) public view override returns (string memory) {\n        require(_exists(tokenId), \"ERC721Metadata: URI query for nonexistent token\");\n\n       return Items[tokenId].uri;\n    }\n}",
  "sourcePath": "/home/guillermo/dapps/NFTMarketPlaceBSCtestNet/contracts/myNFTs.sol",
  "compiler": {
    "name": "solc",
    "version": "0.8.0+commit.c7dfd78e.Emscripten.clang"
  },
  "schemaVersion": "3.4.3",
  "updatedAt": "2021-11-08T00:08:13.380Z",
  "devdoc": {
    "kind": "dev",
    "methods": {
      "approve(address,uint256)": {
        "details": "See {IERC721-approve}."
      },
      "balanceOf(address)": {
        "details": "See {IERC721-balanceOf}."
      },
      "getApproved(uint256)": {
        "details": "See {IERC721-getApproved}."
      },
      "isApprovedForAll(address,address)": {
        "details": "See {IERC721-isApprovedForAll}."
      },
      "name()": {
        "details": "See {IERC721Metadata-name}."
      },
      "ownerOf(uint256)": {
        "details": "See {IERC721-ownerOf}."
      },
      "safeTransferFrom(address,address,uint256)": {
        "details": "See {IERC721-safeTransferFrom}."
      },
      "safeTransferFrom(address,address,uint256,bytes)": {
        "details": "See {IERC721-safeTransferFrom}."
      },
      "setApprovalForAll(address,bool)": {
        "details": "See {IERC721-setApprovalForAll}."
      },
      "supportsInterface(bytes4)": {
        "details": "See {IERC165-supportsInterface}."
      },
      "symbol()": {
        "details": "See {IERC721Metadata-symbol}."
      },
      "tokenURI(uint256)": {
        "details": "See {IERC721Metadata-tokenURI}."
      },
      "transferFrom(address,address,uint256)": {
        "details": "See {IERC721-transferFrom}."
      }
    },
    "version": 1
  },
  "userdoc": {
    "kind": "user",
    "methods": {},
    "version": 1
  }
}